:020000040800F2
:10000000600800200D020008150200081702000811
:10001000190200081B0200081D0200080000000071
:100020000000000000000000000000001F020008A7
:100030002102000800000000230200088B2C0008A9
:1000400027020008270200082702000827020008EC
:1000500027020008270200082702000827020008DC
:1000600027020008270200082702000827020008CC
:1000700027020008270200082702000827020008BC
:1000800027020008270200082702000827020008AC
:10009000270200082702000827020008270200089C
:1000A00027020008AD2D00082702000827020008DB
:1000B000270200082702000827020008270200087C
:1000C000270200082702000827020008270200086C
:1000D000270200082702000827020008270200085C
:1000E00075030008270200082702000827020008FD
:1000F000270200082702000827020008270200083C
:10010000270200082702000827020008270200082B
:100110000133000827020008270200082702000810
:10012000270200082702000827020008270200080B
:1001300027020008270200082702000827020008FB
:1001400027020008270200082702000827020008EB
:1001500027020008270200082702000827020008DB
:1001600027020008270200082702000827020008CB
:1001700027020008270200082702000800000000EC
:1001800027020008270200082702000827020008AB
:10019000270200082702000827020008270200089B
:1001A000270200082702000827020008270200088B
:1001B000270200082702000827020008270200087B
:1001C000270200082702000800000000270200089C
:1001D000270200082702000827020008270200085B
:1001E000270200082702000827020008270200084B
:1001F0002702000827020008DFF80CD000F0A8F85A
:1002000000480047253C0008600800200648804759
:1002100006480047FEE7FEE7FEE7FEE7FEE7FEE7EB
:10022000FEE7FEE7FEE7FEE7592D0008F9010008AA
:100230002DE9F05F0546002092469B46884606461B
:10024000814640241BE0284641464746224600F0AE
:100250006FF853465A46C01A914110D311461846BA
:10026000224600F056F82D1A67EB01084F46224649
:100270000120002100F04DF817EB00094E41201E2F
:10028000A4F10104DFDC484631462A464346BDE876
:10029000F09F421E12F8013F002BFBD111F8013BE9
:1002A00002F8013B002BF9D17047421C10F8011BEA
:1002B0000029FBD1801A704710B5002200E0521CC3
:1002C000835C8C5CA34201D1002BF8D1D8B2E1B29F
:1002D000401A10BD034611F8012B00F8012B002A2B
:1002E000F9D11846704730B50B4601460020202250
:1002F000012409E021FA02F59D4205D303FA02F533
:10030000491B04FA02F52844151EA2F10102F1DC92
:1003100030BD202A04DB203A00FA02F100207047A9
:100320009140C2F1200320FA03F319439040704733
:10033000202A04DB203A21FA02F00021704721FA3A
:1003400002F3D040C2F120029140084319467047A1
:10035000064C074D06E0E06840F0010394E8070012
:1003600098471034AC42F6D3FFF74AFF5C9C020872
:100370007C9C02084FF4806010B500F06FF84FF4D9
:10038000006000F06BF8BDE810404FF4804000F0D2
:1003900065B890F83510022903D08021416501200D
:1003A0007047052180F835100068016821F00101CF
:1003B000016000207047000070B5044600F050F95D
:1003C0000546601C02D004480078044400F048F957
:1003D000401BA042FAD370BD140000202DE9F0416B
:1003E0001B4CB0F5006F4FF000054FF0010105D038
:1003F0002170B0F5806FA18003D005E0A580257045
:1004000002E06078012802D06170BDE8F0811148F7
:10041000002101F043FB0F48016814204863FFF7F7
:10042000CBFF0C48002101F055FB0B4F4FF48C56CD
:1004300001223146384600F00EF9C820FFF7BCFF14
:1004400000223146384600F006F96570DDE700000D
:10045000040000204001002000100240044910B5B3
:100460000A68024202D00860FFF7B8FF10BD000022
:10047000143C01402DE9F84FDFF89CE100224FF0D9
:1004800001084FF0030B4FF00F0A00BF0B6808FA8A
:1004900002F42340A34271D14D68022D01D0122DE8
:1004A0000FD1D5080E69570700EB8505A9462D6ABF
:1004B000FF0E0AFA07FCBE4025EA0C052E43C9F8D8
:1004C00020600F79550006680BFA05FC07F003075A
:1004D00026EA0C06AF40374307604E68012E05D070
:1004E000022E03D0112E01D0122E0ED18668CF68B5
:1004F00026EA0C06AF403743876046680F79A6436B
:10050000C7F30017974037434760C4688E6824EAF2
:100510000C04AE402643C6604C68E40075D53F4CE1
:10052000256845F480452560246822F00306950778
:1005300004F4804400943A4C2D0F2644D6F8084821
:10054000DFF8E0C00AFA05F7604524EA070401D1A4
:1005500000272EE0344FB84201D1012729E0334F64
:10056000B84201D1022724E0314FB84201D103271C
:100570001FE0304FB84202D104271AE045E02E4F69
:10058000B84201D1052714E02C4FB84201D106270B
:100590000FE02B4FB84201D107270AE0294FB8429C
:1005A00001D1082705E0284FB84201D1092700E012
:1005B0000A27AF4027437546C6F808784E68DEF82C
:1005C0000040F60324EA030400D51C43124E2C60BD
:1005D000361D4D683468AD0324EA030400D51C437E
:1005E0000D4F346008374D683C68ED0224EA03047F
:1005F00000D51C43084D3C600C354E682C68B60293
:1006000024EA030400D51C432C60521C102AFFF47A
:100610003DAFBDE8F88F0000003C01404438024087
:100620000030014000000240000402400008024087
:10063000000C02400010024000140240001802406A
:10064000001C0240002002400024024000690840D3
:1006500000D0012070470AB1816170470904FBE7AF
:10066000014880687047000014000020024881683B
:10067000027811448160704714000020094810B5C9
:10068000016841F400710160016841F4807101600A
:10069000032000F097F8002000F006F800F024F89E
:1006A000002010BD003C024070B50D4D04464FF4D3
:1006B0007A700C4A29781268B0FBF1F0B2FBF0F0C6
:1006C00000F04EFF48B9102C07D200222146501EE0
:1006D00000F058F800206C6070BD012070BD000073
:1006E00014000020200000201F4808B5016841F0D8
:1006F00080510160006800F0805000901A48001D91
:10070000016841F480410160006800F4804000907D
:10071000052000F057F800226FF00B00114600F0A2
:1007200031F800226FF00A00114600F02BF8002289
:100730006FF00900114600F025F80022501F114605
:1007400000F020F80022101F114600F01BF80022D4
:10075000901E114600F016F80022BDE80840501E19
:10076000114600F00FB8000040380240410900F087
:100770001F028900012001F1E0219040C1F8000131
:10078000704700000E4BF0B41B680D46C3F3022304
:10079000C3F10706042E00D90426191D072901D22A
:1007A000002300E0DB1E012404FA06F19C40491EF0
:1007B0002940641E994014402143F0BC02F09AB9CC
:1007C0000CED00E0064900F0070210B54FF6FF04FB
:1007D0000868044B204040EA02201843086010BD1E
:1007E0000CED00E00000FA051848F8B5016841F08A
:1007F000805101600068164C00F080500090206825
:1008000040F480302060FFF72BFF4FF47A760546E6
:1008100005E000BFFFF724FF401BB0420FD860681F
:10082000C003F7D5206840F400302060FFF718FFC0
:10083000054606E0FFF714FF401BB04201D9032034
:10084000F8BD60688003F5D50020F8BD403802404F
:10085000007000402DE9F84F04460078DFF824943A
:100860004FF000063746C0070ED0D9F8001021F42B
:100870000001C9F80010D9F80010626B1143C9F8E3
:100880000010606B00B90126FE4D2068843500031E
:100890000ED5E16B286820F4401008432860E06B17
:1008A000B0F5801F01D010B102E0012600E0012761
:1008B00020684FF4800BC0020CD5216C286820F40E
:1008C000400008432860206C584501D1012601E012
:1008D00000B901272068C10100D50126800666D530
:1008E000E8483830016841F0805101600068DFF865
:1008F00098A300F080500090DAF8001041F4807165
:10090000CAF80010FFF7ACFE804605E0FFF7A8FE2E
:10091000A0EB080064287DD8DAF80000C005F5D502
:10092000DFF8608308F16808D8F8000010F4407020
:100930002AD0218E01F44071814225D0D8F80010D0
:10094000D8F8002021F4407142F48032C8F8002029
:10095000D8F8002022F48032C8F80020C8F800102F
:10096000D8F80000C0070FD0FFF77AFE824607E0F4
:10097000FFF776FEA0EB0A0141F288308142CAD827
:10098000D8F800008007F3D5206BC0F301210329BC
:100990007ED0D9F8001021F4F811C9F80010228E89
:1009A000D8F80010C2F30B021143C8F800102078E9
:1009B000C00607D5286820F0807028602868A16BE1
:1009C000084328602188AF488830490405D5626E05
:1009D000016821F44031114301602188090405D5E3
:1009E000A26E016821F44021114301602168C9030E
:1009F00005D5E26E016821F44011114301602168C0
:100A0000890305D5226F016821F44001114301607B
:100A1000217800E034E1490605D5626C016821F0D7
:100A20000301114301602178090605D5A26C016814
:100A300021F00C01114301602188C90505D5E26C44
:100A4000016821F03001114301602188890505D535
:100A5000226D016821F0C001114301602188490520
:100A600005D5626D016821F4407111430160218850
:100A7000090505D5A26D016821F4406111430160AB
:100A80002188C90407D5E26D016821F4405100E0D6
:100A90005FE0114301602188890405D5226E016859
:100AA00021F44041114301602168490205D5A26F3C
:100AB000016821F080611143016021684FF0006AF4
:100AC000890209D5E26F016821F0006111430160DC
:100AD000E16F514500D1012721680A0700D50127A0
:100AE000490305D5626F016821F04071114301602F
:100AF0002168090206D5D4F88020016821F08051D0
:100B0000114301602168490106D5D4F884200168A9
:100B100021F00051114301602068000106D5D4F88E
:100B20008810286820F00070084328602068C00002
:100B300006D5D4F88C10286820F08060084328601F
:100B4000DFF84891012E0ED02068B0F1007F0AD066
:100B50008FE04F4AD9F80030104023F4F8120243D6
:100B6000C9F800201BE7D9F800004E4620F080604D
:100B7000C9F80000FFF774FD804605E0FFF770FD3F
:100B8000A0EB080064287BD830680001F6D42178F7
:100B90003C487C30C90712D0616B81B9237A626806
:100BA0000168D0F800C09201C1F3014142EA01425C
:100BB000CCF3036142EA016141EA037101602168FB
:100BC0000A0303D5E26BB2F5801F04D0C9021AD51F
:100BD000216C594517D16368016894F80CC002680C
:100BE0009B01C1F3014143EA0141C2F3027241EAB0
:100BF0000C6141EA027101602968626A21F01F01FB
:100C0000521E114329602168C90110D5238A6268E8
:100C10000168D0F800C09201C1F3036142EA0342C7
:100C200042EA0162CCF3027142EA0171016021687B
:100C300089010CD56168228A237B94F808C0890158
:100C400041EA024141EA036141EA0C710160316805
:100C5000B04641F080613160FFF702FD064604E0D6
:100C6000FFF7FEFC801B64280AD8D8F800000001BA
:100C7000F6D5E7B3D9F800004E4620F0805009E0E1
:100C80007BE000000838024000700040003802405D
:100C9000FFFCFF0FC9F80000FFF7E2FC074604E085
:100CA000FFF7DEFCC01B642867D83068C0438000B3
:100CB000F6D5216835480A0301D5E26B1AB1C9029D
:100CC0001DD5216CD9B963690168277E02689B0133
:100CD000C1F3014143EA0143C2F3027143EA0762EF
:100CE00042EA0171016029686FF0FF0300E04BE008
:100CF000A26A21F4F85103EB022211432960216812
:100D0000890212D5E16F51450FD1238C62690168C8
:100D100007689201C1F3036142EA034242EA0162B9
:100D2000C7F3027142EA017101602178090716D503
:100D300061690268D0F800C08B01277FC2F30362AB
:100D4000CCF3014143EA014141EA026141EA077102
:100D500001602868E16A20F4403008432860306868
:100D600040F080503060FFF77BFC044608E000BF95
:100D7000FFF776FC001B642802D90320BDE8F88F3A
:100D80003068C0438000F3D40020F7E78838024081
:100D90002DE9F04705000F4663D0444E306800F05F
:100DA0000F00B84209D2306820F00F00384330609D
:100DB000306800F00F00B84253D128683C4C8107DE
:100DC00012D5400703D5206840F4E0502060287811
:100DD000000703D5206840F460402060A9682068BF
:100DE00020F0F000084320602878C0072AD030495E
:100DF00068680839012810D00968022810D08907CE
:100E000000292EDA216821F0030101432160FFF758
:100E100027FC804641F288390DE009688903EFE735
:100E20008901EDE7FFF71CFCA0EB0801494502D959
:100E30000320BDE8F0876868216801F00C01B1EB80
:100E4000800FEFD1306800F00F00B8420BD9306846
:100E500020F00F0038433060306800F00F00B842D7
:100E600001D00120E5E72878400705D5E96820682A
:100E700020F4E050084320602878000706D5286950
:100E8000216821F4604141EAC000206000F03CF894
:100E90002168084AC1F30311515CC8400649086043
:100EA0000020FFF701FC0020C3E70000003C0240E7
:100EB00008380240449C02082000002001480068D5
:100EC00070470000200000200449054809680068B8
:100ED000044AC1F38221515CC8407047083802407F
:100EE00020000020549C0208044905480968006855
:100EF000044AC1F34231515CC8407047083802408F
:100F000020000020549C0208154910B515480968B6
:100F100011F00C0213D04110042A0FD0082A0ED170
:100F20000F4C241F2268236802F03F025B0207D5A2
:100F30002068C0F38810A0FB010106E0084610BD40
:100F40002168C1F38811A1FB00010023FFF770F9AC
:100F50002168C1F30141491C4900B0FBF1F010BD0B
:100F6000083802400024F4002DE9F84F05004FF046
:100F700000076ED02878DFF82093A9F1040AC00793
:100F8000AAF104044CD0D9F800104846C1F38101FD
:100F9000012908D00068C0F3810002280AD1DAF8DC
:100FA0000000400206D52068800339D56868002813
:100FB000DFD035E06868B0F5803F0BD010B1B0F5F8
:100FC000A02F11D0206820F480302060206820F409
:100FD000802002E0206840F480302060686890B192
:100FE000FFF73EFB06460AE0206840F480202060C0
:100FF000F0E700BFFFF734FB801B642872D820683D
:101000008003F7D50CE0FFF72BFB064605E000BF99
:10101000FFF726FB801B6428F0D820688003F7D4F4
:101020002878800742D5D9F80010484611F00C0FF7
:1010300008D00068C0F3810002280BD1DAF8000064
:10104000400207D42068800718D5E868012800D13D
:1010500014E01EE1E8680028206817D040F0010085
:101060002060FFF7FDFA064605E000BFFFF7F8FA3B
:10107000801B0228C2D820688007F7D5286921681C
:1010800021F0F80141EAC00020600FE020F00100EB
:101090002060FFF7E5FA064605E000BFFFF7E0FA3B
:1010A000801B02281ED820688007F7D42878000704
:1010B00029D5794869696C3000298046016812D0C9
:1010C00041F001010160FFF7CBFA064605E000BFE1
:1010D000FFF7C6FA801B022804D8D8F80000800762
:1010E000F6D510E089E021F001010160FFF7B8FAC0
:1010F000064604E0FFF7B4FA801B02287DD8D8F832
:1011000000008007F6D4287840076BD5DFF8888187
:1011100008F13808D8F80000C0000BD4D8F8001047
:1011200041F08051C8F80010D8F80000012700F005
:101130008050009059480168C90512D4016883465F
:1011400041F480710160FFF78BFA064605E000BFAD
:10115000FFF786FA801B64284FD8DBF80000C00533
:10116000F6D54D4EA868683601280AD008B1052882
:1011700011D0306820F001003060306820F00400A9
:1011800002E0306840F001003060A868A0B1FFF7CD
:1011900067FA83460CE0306840F004003060F0E706
:1011A000FFF75EFAA0EB0B0141F28830814268D86C
:1011B00030688007F4D50EE0FFF752FA834607E067
:1011C000FFF74EFAA0EB0B0141F28830814258D86C
:1011D00030688007F4D42FB1D8F8001021F0805186
:1011E000C8F80010A869E0B3D9F80010C1F3810174
:1011F00002294ED00228206800E042E020F08070F2
:10120000206003D0FFF72CFA05463DE0FFF728FAEF
:10121000064604E0FFF724FA801B022831D8206834
:101220008001F7D4D5E90921DFF874C0D5E90706B4
:1012300095F830304F0895F82C1030430CEB0745EB
:1012400045EA8212104340EA016040EA0370CAF89E
:101250000000206840F080702060FFF701FA05462A
:1012600005E014E0FFF7FCF9401B022809D82068CC
:101270008001F7D50BE000BFFFF7F2F9401B022811
:1012800002D90320BDE8F88F20688001F4D4002043
:10129000F8E70120F6E7000008380240007000403F
:1012A0000000FFFF10B5040002D0607A10B106E024
:1012B000012010BD00202072204600F00BF8022013
:1012C000607201212068026842F0040202606172CB
:1012D000002010BD08B500680649884208D10648BC
:1012E000016841F040010160006800F0400000909A
:1012F00008BD000000080650343802402DE9F047D0
:10130000040005D094F85D000025A56218B107E03F
:101310000120BDE8F087204684F85C5000F050F8CA
:10132000022284F85D204FF4E0632068016821F018
:1013300040010160E068984201D9002101E04FF4CA
:101340008051B0F5706F02D0984200D0A5624FF086
:101350000109266B2EB9984201D9226301E0C4F835
:101360003090D4E90468D4E90102278B46EA0806E4
:10137000A36A104307F4007830432668D4E907C213
:1013800040EA080040EA0C00CC460427104318430A
:101390003060D4F81880666B606AE26807EA184724
:1013A000236830433A431043084358602068C169BA
:1013B00021F40061C161256684F85DC00020A8E7C2
:1013C00010B5006886B00D49884214D10C480168F8
:1013D00041F48011016000680221002200F48010B5
:1013E0000590032305244FF460708DE81F00054825
:1013F0006946FFF73FF806B010BD000000500140FD
:1014000044380240001402402DE9F84F044690F899
:101410005C0000269846012817460D460DD04FF077
:10142000010A84F85CA0FFF71BF9834694F85D007D
:10143000B146012804D002267FE00220BDE8F88FE3
:10144000002D79D0002F77D0A2680321A563A7874C
:1014500084F85D10C4F86090E787C4F84090A4F861
:101460004490A4F84690B2F5004FC4F85090C4F8E8
:101470004C9004D12068016841F4804101602068EB
:101480000168490603D4016841F040010160E06849
:10149000B0F5E06F17D83CE020688168890706D571
:1014A00035F8021BC160E08F401EE0870BE0B8F109
:1014B000000F2CD0B8F1FF3F05D0FFF7D1F8A0EB1B
:1014C0000B01414523D2E08F0028E5D124E02068BC
:1014D000816889070FD5E18F012905D935F8021BED
:1014E000C160E08F801E04E015F8011B0173E08FDE
:1014F000401EE0870DE0B8F1000F08D0B8F1FF3FC3
:1015000007D0FFF7ADF8A0EB0B01414501D303264F
:1015100013E0E08F0028DAD15A464146204601F018
:10152000FAFA08B120202066A06818B92068C168BE
:1015300080680090206E00B1012684F85DA03046DE
:1015400084F85C907AE704284FF0E020016903D02A
:1015500021F004010161704741F00401FAE770478E
:10156000401EB0F1807F10B501D3012010BD4FF0B7
:10157000E02460610F21601701F0BCFA0020A06137
:101580000721216110BD10B5FFF7E9FF10BD7047BD
:101590007047000070B590F83C20012A1FD001224E
:1015A00080F83C2002680F4C5368A242956802D034
:1015B0000D4CA24203D14C6823F4700323430C6802
:1015C0008968002623F070031C43546025F08005D1
:1015D00002682943916080F83C60304670BD02206B
:1015E00070BD0000000001400004014010B504007F
:1015F00003D094F83D0010B107E0012010BD002099
:1016000084F83C00204600F00DF8022084F83D00EC
:101610002068211D01F0DCFB012084F83D00002042
:1016200010BD000008B500681149884212D1114868
:10163000016841F00101016000680022012100F011
:10164000010000901920FFF79DF8BDE8084019201F
:10165000FFF78CB8B0F1804F09D10648001F016830
:1016600041F001010160006800F00100009008BD38
:1016700000000140443802400168CA6842F001029B
:10168000CA600068016841F00101016000207047F4
:1016900070B5044690F83C00012817D03A4E012559
:1016A00084F83C50022084F83D0022689068304065
:1016B00020F47F4090600868502839D00DDC202845
:1016C0005BD005DC98B3102843D153E0022070BDF5
:1016D000302855D040283CD141E0602830D07028D7
:1016E0000CD0B0F5805F03D0B0F5005F31D112E0CF
:1016F0002068254A70328168114016E04A682068E7
:10170000D1E9021301F0D5FB21688868304040F030
:10171000770088601DE04A682068D1E9021301F073
:10172000C8FB2068816841F48041816011E01EE0BF
:10173000CA684968206801F0F1FC2068502106E081
:10174000CA684968206801F0FAFC2068602101F04D
:10175000B9FB002084F83D5084F83C0070BDCA6895
:101760004968206801F0DAFC20684021EFE7206832
:101770000021ECE720681021E9E720682021E6E756
:1017800020683021E3E7000088FFFEFF704770B556
:101790000446006800250169C943890715D4C1685A
:1017A000C943890711D4EA1E02610121217720680B
:1017B00080698007204602D0FFF7E8FF04E000F0D0
:1017C000BBF8204600F069F9257720680169C94314
:1017D000490717D4C168C943490713D402216FF0E0
:1017E0000402026121772068806910F4407F20465E
:1017F00002D0FFF7CBFF04E000F09EF8204600F097
:101800004CF9257720680169C943090716D4C168D6
:10181000C943090712D404216FF00802026121773D
:101820002068C0698007204602D0FFF7AFFF04E0C0
:1018300000F082F8204600F030F925772068016931
:10184000C943C90617D4C168C943C90613D40821BE
:101850006FF01002026121772068C06910F4407FA8
:10186000204602D0FFF792FF04E000F065F8204622
:1018700000F013F9257720680169C943C90708D129
:10188000C168C943C90704D1891E0161204600F01F
:101890004FF920686FF080050169C943090607D434
:1018A000C168C943090603D405612046FFF76FFEEE
:1018B00020680169C943C90507D4C168C94309063D
:1018C00003D405612046FFF762FE20680169C94321
:1018D000490609D4C168C943490605D46FF04001DF
:1018E0000161204600F025F920680169C943890695
:1018F0000BD4C168C943890607D46FF02001016188
:101900002046BDE87040FFF743BE70BD00B50068DB
:1019100085B0B0F1804F0BD100200121009102224F
:10192000CDE90120CDE9030102486946FEF7A2FD99
:1019300005B000BD00000240704770B5044690F845
:101940003C000D4601280ED0012684F83C600220A0
:1019500084F83D000C2A45D007DC5AB1042A1BD07C
:10196000082A78D12CE0022070BD102A4ED0142A0B
:1019700071D15DE0206801F0ADFA2068816941F025
:10198000080181612068816921F00401816120687A
:101990002A698169114311E0206801F0CFFA2068BB
:1019A000816941F4006181612068816921F480616D
:1019B000816120682969826942EA012181614AE0E6
:1019C000206801F0F1FA2068C16941F00801C161A5
:1019D0002068C16921F00401C16120682A69C169D8
:1019E000114311E0206801F015FB2068C16941F442
:1019F0000061C1612068C16921F48061C161206812
:101A00002969C26942EA0121C16124E0206801F02C
:101A10002DFB2068416D41F0080141652068416D52
:101A200021F00401416520682A69416D114311E0EC
:101A3000206801F047FB2068416D41F40061416579
:101A40002068416D21F48061416520682969426DFB
:101A500042EA01214165002084F83D6084F83C00A1
:101A600070BD10B5040003D094F83D0010B107E03C
:101A7000012010BD002084F83C00204600F00CF846
:101A8000022084F83D002068211D01F0A1F9012009
:101A900084F83D00002010BD7047704710B501224A
:101AA0000446006801F0FAF908492068884202D02B
:101AB0000749884203D1416C41F4004141642068E8
:101AC000016841F001010160002010BD00000140EB
:101AD0000004014010B500220446006801F0DEF960
:101AE00041F21112104821689310814202D00F4830
:101AF000814209D1086A104206D1086A184203D10E
:101B0000486C20F4004048642068016A114206D104
:101B1000016A194203D1016821F00101016001202D
:101B200084F83D00002010BD000001400004014089
:101B3000704770477047000070B501680446C86977
:101B40000A688B6810F00F0F5CD003F0010502F4F7
:101B500090762E4369D0C60707D0D60505D5012655
:101B60000E62E16E41F00101E166810708D5D907F7
:101B700006D0266802213162E16E41F00401E1667F
:101B8000410708D5D90706D0236804211962E16E00
:101B900041F00201E16601070AD502F02001294364
:101BA00006D0236808211962E16E41F00801E16660
:101BB000E16E002932D0800604D5900602D5204679
:101BC00001F040FCE06E000703D420688068400606
:101BD00025D5204601F028FC2068816849061AD5E1
:101BE000816821F040018160606EA0B12F490165DC
:101BF000606EFEF7CEFB002810D0606E016DBDE870
:101C000070400847830610D593060ED52046BDE8E0
:101C1000704001F017BC2046FFF78CFF70BD2046D6
:101C2000FFF788FF0020E06670BD03062FD513067E
:101C30002DD594F869002128F6D1B4F8520020B1CE
:101C4000A068B0F5805F0AD00BE0086820F0800043
:101C500008602068016841F04001016070BD2069A2
:101C600060B1E06C411CE16421680078C1F8280093
:101C7000B4F85200401EA4F8520070BDE06C008819
:101C8000C0F308008862E06C801CE064F0E7400666
:101C9000F3D55006F1D50B682022204623F04003EF
:101CA0000B6084F8692000F0DCF870BD1534000882
:101CB00010B5040003D094F8690010B107E00120CA
:101CC00010BD002084F86800204600F027F824208A
:101CD00084F869002068016821F001010160204654
:101CE00001F0ECFB0128EBD0606A10B1204601F056
:101CF0000DFB2068416821F49041416020688168B3
:101D000021F02A0181602068016841F00101016031
:101D10002046BDE8104001F05DBB000070B51E4ECE
:101D20000023056803221D4902241D48B54286B0E0
:101D30001AD10D6845F400250D600968029301F47D
:101D4000002105910821CDE90024CDE90321694650
:101D5000FEF790FB002201213420FEF713FD342012
:101D6000FEF704FD06B070BD0E4EB542FAD10D6807
:101D700045F480250D6009680725CDE9023201F49C
:101D8000802105914FF440710495CDE90014694616
:101D9000FEF770FBE6E70000004C004040380240D0
:101DA000000C024000480040704700002DE9F84355
:101DB000044690F869001F4616460D4620284ED16D
:101DC000C5B1BEB194F86800012848D0012284F85A
:101DD000682021214FF00008C4F86C8084F8691055
:101DE0005034FEF73DFC268081466680503C4FF41F
:101DF000805619E00120BDE8F88300BFB4F8520016
:101E0000401EA4F8520000224B4680212046009735
:101E100001F080FCA0B9A068B04201D1206988B16E
:101E200015F8010B21688862B4F852000028E5D14A
:101E300000224B4640212046009701F06BFC38B150
:101E40000320D8E735F8020B2168C0F30800EAE761
:101E5000202184F86910002084F86880CBE70220F4
:101E6000C9E770472DE9FE4F91469B4620288A46D8
:101E7000DDE90C6201D32038C0B2224B01AC00EB8B
:101E80004001002003EB4101431C0D5C2554D8B2F6
:101E90000628F9D306EB46014FF6FF7000EAC603A9
:101EA000009200EA41024946504600F001FA01273B
:101EB000A04600255FF0000418F8050007FA04F1B9
:101EC00008420DD0012E15D004FB069105FB06A09B
:101ED0003346CDF800B089B21A4680B200F0E8F976
:101EE000641CE4B2082CE7D36D1CEDB2062DE1D3DF
:101EF000BDE8FE8F09EB04015A460AEB050000F02D
:101F00002BF9EDE7044200082DE9F0470E4607469D
:101F10004FF4FA74B4EB460F00D90C46DFF8849006
:101F200001224D4648465102FEF795FB4FF4807A58
:101F3000284600225146FEF78EFB4FEA172820461E
:101F400002F0CEF805460020F9B204E02B1805F89F
:101F50000080801C5970A042F8D37000B0FBF4F1EF
:101F6000B0FBF4F704FB110857B1002606E0A2B25B
:101F70000D480A232946FFF747FA761CBE42F6D3DE
:101F80001FFA88F208480A232946FFF73DFA012282
:101F900051464846FEF75FFB2846BDE8F04701F092
:101FA000F3BC0000000802409C0000202DE9F04F27
:101FB000674D0129FDB004464FF4A0794FF499789C
:101FC0004FF4007A4FF480774FF4FA7631D003293A
:101FD00062D002297ED000295BD1002000F028FBCE
:101FE00000214B46F022084600F0F8FA5146AA4676
:101FF00001225046FEF72FFB0022BB4639462846F9
:10200000FEF729FB0025E9462F46494600203246C7
:102010002B18E35C0B54401C9042F9D34D480A2323
:102020006946FFF7F1F97F1C474505F5FA75ECD9CC
:102030002AE0012000F0FCFA00214A46F02308467D
:1020400000F0CCFA5146AA4601225046FEF703FBA7
:102050000022BB4639462846FEF7FDFA0025E94630
:102060002F464946002032462B18E35C0B54401C97
:102070009042F9D337480A236946FFF7C5F97F1C18
:10208000474505F5FA75ECD9012259465046FEF749
:10209000E2FA7DB0BDE8F08F032000F0C9FA00211C
:1020A0004A46F023084600F099FA5146AA46012212
:1020B0005046FEF7D0FA0022BB4639462846FEF7C6
:1020C000CAFA0025E94637462E46002049463A46D8
:1020D0002B1800E00FE0E35C0B54401C9042F7D358
:1020E0001C480A236946FFF78FF9761C464505F51B
:1020F000FA75EAD9C8E7022000F09AFA00214B46A7
:10210000F022084600F06AFA5146AA4601225046DB
:10211000FEF7A1FA0022BB4639462846FEF79BFA95
:102120000025E9462F464946002032462B18E35C3D
:102130000B54401C9042F9D306480A236946FFF726
:1021400063F97F1C474505F5FA75ECD99CE700005B
:10215000000802409C0000202DE9FE43054651483E
:102160000C46164641888D427DD2008884427AD240
:10217000DFF834814FF40077002239464046FEF7FD
:102180006AFA4FF48079404600224946FEF763FA26
:102190002A2000F019FA012239464046FEF75BFA80
:1021A000012249464046FEF756FA0022494640467B
:1021B000FEF751FA681C290A8DF800108DF80150BD
:1021C000020A8DF8022001238DF80300042237480B
:1021D0006946FFF719F9012249464046FEF73BFAE6
:1021E000002239464046FEF736FA0022494640466C
:1021F000FEF731FA2B2000F0E7F90122394640467C
:10220000FEF729FA012249464046FEF724FA002249
:1022100049464046FEF71FFA601C210A8DF804105B
:102220008DF80540020A8DF8062001238DF807007D
:1022300004221E4801A9FFF7E7F80122494640465B
:10224000FEF709FA002239464046FEF704FA00225A
:1022500049464046FEF7FFF92C2000F0B5F901226F
:102260003946404600E01BE0FEF7F5F901224946F9
:102270004046FEF7F0F9002249464046FEF7EBF9EA
:10228000300A8DF808000948012302228DF8096000
:1022900002A9FFF7B9F8012249464046FEF7DBF9EB
:1022A000BDE8FE8300000020000802409C000020E2
:1022B0002DE9F041154C16461D46069F6288904256
:1022C00021D2228891421ED263888219521E9A42DC
:1022D00002DB6288121A96B223884A19521E9A4269
:1022E00002DB2288521A95B24B1982195B1E521ECC
:1022F0009BB292B200F072F905FB06F13846BDE8D8
:10230000F041FFF701BEBDE8F081000000000020B1
:102310002DE9FC47994692460D460446DDE90A78C8
:1023200007EB47060AE0641C4B46CDE900785246AD
:102330002946FFF797FD05EB4600C5B22078002837
:10234000F1D1BDE8FC870000012202489102FEF7AE
:1023500082B900000008024010B5FFF7F5FF00F059
:1023600023F900F005F9012000F08AF94FF47A70A2
:10237000FEF722F8CB2000F083F9392000F09CF919
:102380002C2000F099F9002000F096F9342000F09C
:1023900093F9022000F090F9CF2000F071F90020AD
:1023A00000F08AF9C12000F087F9302000F084F9AC
:1023B000E82000F065F9852000F07EF9002000F0AB
:1023C0007BF9782000F078F9EA2000F059F9002034
:1023D00000F072F9002000F06FF9ED2000F050F9E4
:1023E000642000F069F9032000F066F9122000F083
:1023F00063F9812000F060F9F72000F041F9202016
:1024000000F05AF9C02000F03BF9232000F054F905
:10241000C12000F035F9102000F04EF9C52000F081
:102420002FF93E2000F048F9282000F045F9C72098
:1024300000F026F9862000F03FF9362000F020F960
:10244000482000F039F93A2000F01AF9552000F040
:1024500033F9B12000F014F9002000F02DF9182014
:1024600000F02AF9B62000F00BF9082000F024F95A
:10247000822000F021F9272000F01EF9F22000F060
:10248000FFF8002000F018F9262000F0F9F80120EC
:1024900000F012F9E02000F0F3F80F2000F00CF942
:1024A000312000F009F92B2000F006F90C2000F093
:1024B00003F90E2000F000F9082000F0FDF84E208E
:1024C00000F0FAF8F12000F0F7F8372000F0F4F807
:1024D000072000F0F1F8102000F0EEF8032000F0E3
:1024E000EBF80E2000F0E8F8092000F0E5F80020F5
:1024F00000F0E2F8E12000F0C3F8002000F0DCF882
:102500000E2000F0D9F8142000F0D6F8032000F0D7
:10251000D3F8112000F0D0F8072000F0CDF83120DA
:1025200000F0CAF8C12000F0C7F8482000F0C4F855
:10253000082000F0C1F80F2000F0BEF80C2000F0D9
:10254000BBF8312000F0B8F8362000F0B5F80F20C5
:1025500000F0B2F8112000F093F87820FDF72CFF7E
:10256000292000F08DF8BDE81040002000F060B890
:1025700070B501220B4D940228462146FEF76BF8F8
:10258000C820FDF719FF00222846A110FEF763F8C6
:10259000C820FDF711FF21462846BDE87040012202
:1025A000FEF759B80008024010B500F08FF900F0AE
:1025B0009DF8BDE81040034800224FF48071FEF7FB
:1025C0004AB8000000080240012301B502481A463B
:1025D0006946FEF719FF08BD9C0000202DE9F04177
:1025E0001C4615460E4607462A2000F049F8380AD0
:1025F00000F062F8F8B200F05FF8280A00F05CF82A
:10260000E8B200F059F82B2000F03AF8300A00F058
:1026100053F8F0B200F050F8200A00F04DF8E0B2A4
:1026200000F04AF8BDE8F0412C2000F029B8000085
:102630002DE9F0410746362000F022F80120FDF791
:10264000BBFE0E4C4FF4A0764FF0F00567B1012FA2
:102650000CD0022F0CD0032F04D1E82000F02CF86E
:1026600066802580BDE8F081482002E02820F5E75B
:10267000882000F021F865802680F3E70000002024
:1026800070B50C4D4FF48074002206462146284652
:10269000FDF7E1FF002228466100FDF7DCFF304630
:1026A000FFF792FF21462846BDE870400122FDF762
:1026B000D2BF00000008024070B50B4C0122064654
:1026C00051022046FDF7C7FFA515204600222946E6
:1026D000FDF7C1FF3046FFF777FF29462046BDE8EA
:1026E00070400122FDF7B7BF000802402DE9F04F0E
:1026F000624887B0016841F010010160016801F093
:1027000010010591016841F004010160016801F0C8
:1027100004010591016841F020010160016801F0A8
:1027200020010591016841F080010160016801F01C
:1027300080010591016841F001010160016801F02B
:1027400001010591016841F002010160016801F099
:1027500002010591016841F008010160016801F082
:1027600008010591016841F0400101600068002204
:10277000DFF80CB141F2E81100F040000590584636
:10278000FDF769FF4FF481483E4800224146FDF7BE
:1027900062FF4FF410793C4800224946FDF75BFF89
:1027A0004FF4E06A394800225146FDF754FF0024F7
:1027B00048F2140069460294CDE900045846FDF73A
:1027C00059FE0125694603266820CDE90005CDE9BB
:1027D00002465846FDF74EFE68036946CDE90004FF
:1027E0002A480294FDF746FE4FF48C500090CDE944
:1027F0000154694658460394FDF73CFE244FA80354
:1028000069460294CDE900075846FDF733FEB00251
:102810006946CDE900071B480294FDF72BFECDF871
:1028200000806946CDE9015416480394FDF722FE65
:10283000CDF800906946CDE9015413480394FDF7A3
:1028400019FE80206946CDE900040F480294FDF787
:1028500011FECDF800A0694603960C48CDE901545D
:10286000FDF708FE002201212820FDF78BFF28201C
:10287000FDF77CFF07B0BDE8F08F00003038024064
:10288000001002400004024000180240000802400C
:10289000000011100849074810B508600846FEF707
:1028A00001FD002805D0BDE81040382103A000F04C
:1028B00063BF10BD00080650900000202E2E2F533D
:1028C00072632F726E672E630000000070B5114DA9
:1028D0004FF4E063104800214FF482746A15C0E998
:1028E000021301610723C0E90512C161016241625F
:1028F000C0E90A1301634163C0E90054FEF7FEFC1E
:10290000002805D0BDE87040472104A000F034BF86
:1029100070BD0000005001409C0000202E2E2F535F
:1029200072632F7370692E6300000000194845F22E
:102930005F4210B51649002488B042F20F7380E858
:102940001600C0E9033444618461FEF74FFE18B1FC
:10295000412111A000F010FF4FF4805003900D486A
:1029600003A9FEF795FE18B147210BA000F004FF64
:1029700008486946009401940294FEF70BFE002873
:1029800003D04F2104A000F0F7FE08B010BD0000F6
:1029900000000140000100202E2E2F5372632F747F
:1029A000696D2E6300000000254840F6C31110B584
:1029B000002440F237428EB0C0E9024104614FF07A
:1029C00080438461C0E90032FEF710FE18B1622135
:1029D0001CA000F0D1FE4FF480500A9018480AA9BC
:1029E000FEF756FE18B1682116A000F0C5FE144887
:1029F000FFF737F818B16D2112A000F0BDFE1048A6
:102A000007A907940994FEF7C5FD18B174210DA01C
:102A100000F0B2FE60204FF4FA718DE81300084810
:102A2000002269460494FEF788FF18B17D2105A0B5
:102A300000F0A2FE0248FEF769FF0EB010BD0000D4
:102A4000400100202E2E2F5372632F74696D2E6368
:102A5000000000000E48002110B50C4C0C224FF471
:102A6000E1330460C0E90131C160C0E90412816151
:102A7000C16101624162FFF71BF9002805D0BDE882
:102A80001040442103A000F077BE10BD004C004070
:102A9000800100202E2E2F5372632F757361727484
:102AA0002E6300000E48002110B50C4C0C224FF490
:102AB000E1330460C0E90131C160C0E90412816101
:102AC000C16101624162FFF7F3F8002805D0BDE85B
:102AD0001040592103A000F04FBE10BD0048004037
:102AE000F00100202E2E2F5372632F7573617274C4
:102AF0002E630000090700284FEA116106DA00F092
:102B00000F0000F1E02080F8141D704700F1E02074
:102B100080F800147047F8B515460E4604460B467B
:102B20004FF4C0510092002200F019F888B9002239
:102B3000334680212046009500F061F848B9002214
:102B400033464FF4C0612046009500F008F8002895
:102B500004D0206E40F0200020660320F8BD2DE94F
:102B6000F8434FF4C0681D4617460E46DDF8209026
:102B700004463DE0464505D127B9007B8DF80000AD
:102B80009DF80000681C33D02DB1FDF769FDA0EB66
:102B90000900A8422CD32068416821F0E00141607F
:102BA0006068B0F5827F0BD1A068B0F5004F02D00D
:102BB000B0F5806F04D12068016821F04001016008
:102BC000A06AB0F5005F0AD120684DF6FF72016877
:102BD000114001602068016841F400510160012149
:102BE00084F85D10002084F85C000320BDE8F883C1
:102BF000206881683140B942BCD10020F6E72DE958
:102C0000F0411D4616460F460446DDF8188035E0B3
:102C1000681C33D02DB1FDF723FDA0EB0800A842BE
:102C20002CD32068416821F0E00141606068B0F574
:102C3000827F0BD1A068B0F5004F02D0B0F5806F55
:102C400004D12068016821F040010160A06AB0F55C
:102C5000005F0AD120684DF6FF72016811400160E3
:102C60002068016841F400510160012184F85D1081
:102C7000002084F85C000320BDE8F08120688068B3
:102C80003840B042C4D10020F6E710B5FDF7EEFCA5
:102C9000BDE81040FEF777BC2C4870B5B8B00168AD
:102CA00041F080510160006800F080503690284863
:102CB000016841F44041016000684FF4A021022501
:102CC00000F440403690012004238205D8240926D0
:102CD000CDE92A52CDE924012CA924A881E8780065
:102CE000FEF742F900B1FEE7FDF77EFD00B1FEE719
:102CF0004FF480524FF4A05100243394CDE93412A4
:102D00000F20CDE93105072131A8FEF741F800B1C8
:102D1000FEE71048149413941F9400906846FDF742
:102D200099FD00B1FEE7FEF7C9F84FF47A71B0FBE8
:102D3000F1F0FEF715FC0420FEF705FC0022501E02
:102D40001146FDF71FFD38B070BD0000403802404D
:102D50000070004000032000104A30B5104814688D
:102D600000210F4B44F470041460083305680D4AC9
:102D70000D4C45F00105056019600368051D134001
:102D8000074A03600C322C600568E305034C25F408
:102D900080250560803C1160236030BD88ED00E037
:102DA00000380240FFFFF6FE10300024064810B540
:102DB000FEF7EDFC05480188491C89B201800A290B
:102DC00001D90021018010BD000100200A0000206F
:102DD000F0B5274B4FF0804E264D02689842264EA4
:102DE000264F274C09D0704507D0A84205D0B042E5
:102DF00003D0B84201D0A04205D1D1F804C022F0DE
:102E000070024CEA020298421BD0704519D0A842C9
:102E100017D0B04215D0B84213D0A04211D0194DEE
:102E2000A8420ED0184DA8420BD0184DA84208D089
:102E3000174DA84205D0174DA84202D0164DA84202
:102E400003D1CD6822F440722A434D6922F08002FA
:102E50002A43026098428A68C2620A68826201D08C
:102E6000A04201D10969016301214161F0BD000067
:102E7000000001400004004000080040000C004039
:102E8000000401400040014000440140004801406E
:102E900000180040001C00400020004010B5046AEB
:102EA00001238A408B409C430462016A1143016202
:102EB00010BD42EA032283680A4323F47F410A4398
:102EC00082607047826822F070020A4342F0070174
:102ED00081607047F0B5026A164B154F22F001026F
:102EE00098420262066A4268846926F002068B688C
:102EF0000D6804EA070424F0030443EA060345EAE4
:102F0000040502D00C4CA0420BD1CC6822F44077CF
:102F1000D1E9056223F008031C433E43324324F009
:102F2000040342608561496841630362F0BD0000AB
:102F30008FFFFEFF0000014000040140F0B5026A6F
:102F4000174B164D22F0100298420262046A426842
:102F5000836924F020048F680E6803EA050323F4D4
:102F6000407544EA071345EA062402D00D4DA842F5
:102F70000ED1CD6823F08003D1E9056722F44062C9
:102F800043EA051342EA860223F0400342EA87023D
:102F900042608461496881630362F0BDFF8FFFFE78
:102FA0000000014000040140F0B5026A174B164FC3
:102FB00022F4807298420262056A4368C26925F46D
:102FC00000758E6802EA07020C6822F0030745EAE2
:102FD000062244EA070402D00D4DA8420ED1CD6866
:102FE00022F40062D1E9056723F4405342EA052246
:102FF00043EA061322F4806243EA07134360C46184
:103000004968C1630262F0BD8FFFFEFF000001400E
:1030100000040140F0B5026A124B114F22F48052B5
:1030200098420262046A4268C36924F400548E68BC
:103030000D6803EA070323F4407344EA063443EAC5
:10304000052302D0084DA84204D14D6922F48042E4
:1030500042EA85124260C361496801640462F0BDBE
:10306000FF8FFFFE0000014000040140F0B5026A3E
:10307000DFF844C022F480320262056A4268446D7F
:1030800025F400350E8960450C4F0B6804EA0704EF
:1030900045EA064543EA040302D0094CA04204D1A4
:1030A0004C6922F4803242EA042242604365496856
:1030B00081650562F0BD0000000001408FFFFEFF4A
:1030C00000040140F0B5026ADFF844C022F4801227
:1030D0000262046A4268436D24F400140E8960455C
:1030E0000C4F0D6803EA070344EA065443EA05233C
:1030F00002D0094DA84204D14D6922F4802242EA4F
:103100008522426043654968C1650462F0BD0000E4
:1031100000000140FF8FFFFE0004014010B5036A6C
:10312000046A23F00A0324F00104046284690B4357
:1031300024F0F00141EA02118161036210BD10B573
:10314000036A23F0100303628369046A23F4704363
:1031500024F0A00443EA0232826144EA01110162D0
:1031600010BD00002DE9F0410F4E10255FF0000466
:103170004FF6FF7701223046082107EA4404FDF7A5
:103180006AFA002230460821FDF765FA1021304620
:10319000FDF75CFA08B1641CA4B26D1E15F0FF05C2
:1031A000E8D12046BDE8F081001002402DE9F0474B
:1031B000DFF8DC900122082106464846FDF74BFA6D
:1031C000012248462021FDF746FA012248464021C7
:1031D000FDF741FA002748464FF47A7A3C464021F1
:1031E00055463A46FDF737FA0EE0902000F062F8B7
:1031F000FFF7B8FF0744D02000F05CF8FFF7B2FFFC
:10320000641C6D1E804405D004214846FDF71EFA5B
:103210000028EAD001224D4640214846FDF71BFA1E
:10322000544504D104212846FDF710FA20B10020AE
:1032300030807080BDE8F087B8FBF4F0B7FBF4F1A4
:1032400040F21112CC239FED130B40424C4281B24D
:10325000B1FBF2F1A0B2B0FBF3F0C1F1E30101EE7A
:10326000101A0F3801EE900AB8EEC12BB8EEE11B30
:1032700022EE002B21EE001BBCEEC20BFCEEC10BBC
:1032800010EE100A3080012010EE901A7180D1E704
:10329000001002408FC2F5285C8FF23F04480421E1
:1032A00010B5FDF7D3F908B1002010BD012010BD05
:1032B0000010024070B5114E082400220546214638
:1032C0003046FDF7C8F9280601D5012200E00022AA
:1032D00030462021FDF7BFF968060122050E304671
:1032E0000821FDF7B8F9002230460821FDF7B3F9AF
:1032F000641E14F0FF04E6D170BD0000001002400F
:103300000148FEF719BC00008001002090F824104D
:10331000C90706D00168836A4A6822F400321A435A
:103320004A6090F82410890706D50168C36A4A6884
:1033300022F480321A434A6090F82410490706D5D7
:103340000168036B4A6822F480221A434A6090F8AD
:103350002410090706D50168436B4A6822F400422D
:103360001A434A6090F82410C90606D50168836B99
:103370008A6822F480521A438A6090F824108906E1
:1033800006D50168C36B8A6822F400521A438A602A
:1033900090F82410490611D50168036C4A6822F49C
:1033A00080121A434A60016CB1F5801F06D1016892
:1033B000436C4A6822F4C0021A434A6090F8241011
:1033C000090606D50168826C486820F40020104385
:1033D0004860704738B500250446C566FDF740F9DA
:1033E00003462068006800070BD56FF07E40009010
:1033F000002220464FF4001100F08CF908B10320A0
:1034000038BD202084F8690084F8685084F86A0088
:10341000002038BD10B5806B0021A0F85A10A0F82C
:103420005210FEF787FB10BD016820220B6823F4C1
:1034300090730B6001688B6823F001038B6080F848
:103440006A20704710B590F86A10B0F85C20222905
:10345000016805D0886940F008008861022010BD2D
:103460008368B3F5805F01D1036973B14B6A416D25
:1034700013404A1C42650B70B0F85A10491E0904EB
:10348000090CA0F85A1008D016E04B6A416D1340A1
:103490000B80416D891C4165EEE7016820220B68B5
:1034A00023F490730B6001688B6823F001038B6039
:1034B00080F86A20FEF778FC002010BD2DE9F04767
:1034C00004468068874B884F2668D4E90415E26972
:1034D0000843D6F800C010211543002228431546A2
:1034E0000CEA030C814B4CEA000CC6F800C04FF408
:1034F00000492068D4F80CC0466826F4405646EAD5
:103500000C0646602668D4F82080A069D6F808C06A
:1035100040EA08002CF4306C4CEA000CC6F808C0F5
:103520002068B8420AD11B6813F0030352D0012B64
:103530007AD0022B76D0032B79D177E06C4EB04253
:103540000AD11B6813F00C036AD0042B6CD0082B33
:1035500068D00C2B6BD169E0664EB0420AD11B6873
:1035600013F030035CD0102B5ED0202B5AD0302BC0
:103570005DD15BE0604EB0420AD11B6813F0C0031E
:103580004ED0402B50D0802B4CD0C02B4FD14DE093
:103590005A4EB0420DD11B6813F4407340D0B3F5BE
:1035A000807F41D0B3F5007F3CD0B3F5407F3ED162
:1035B0003CE0534EB0420FD11B6813F4406309D076
:1035C000B3F5806F30D0B3F5006F2BD0B3F5406FFB
:1035D0002DD12BE001212AE04A4EB0420DD11B68CB
:1035E00013F440531CD0B3F5805F1DD0B3F5005FDA
:1035F00018D0B3F5405F1AD118E0434EB04216D14F
:103600001B6813F440430BD0B3F5804F0CD04B45EF
:1036100008D0B3F5404F0AD108E005E002E0FFE72B
:10362000002104E0022102E0042100E00821E66913
:103630004E452AD109291FD2DFE801F00508141EE2
:10364000171E1E1E1A00FDF73FFC01E0FDF74CFCA3
:103650000146D4F80400490001EB5001B1FBF0F041
:1036600082B20AE029496068F6E7FDF74DFCEFE712
:1036700060684FF48031EFE70125216822F00F00E8
:10368000C2F342021043C86028E0092925D2DFE8CE
:1036900001F005080B24102424241C00FDF714FC61
:1036A00009E0FDF721FC06E06168194A02EB5102CE
:1036B0000EE0FDF729FC0146D4E9002001EB5001A2
:1036C000B1FBF0F080B2D06008E0616809EB510214
:1036D000B2FBF1F189B2C16000E001252846BDE8E6
:1036E000F0870000F369FFEF0010014090380240BE
:1036F0000044004000480040004C004000500040A2
:103700000014014000780040007C00400048E801BF
:103710000024F4002DE9F041984617460E46044671
:10372000069D1DE0681C1BD02DB1FCF799FFA0EB96
:103730000800A84214D32168202000220B6823F43B
:10374000D0730B6021688B6823F001038B6084F8D1
:10375000690084F86A00032084F86820BDE8F081DD
:103760002068C06936EA000004D00020B842D9D0F1
:103770000020F3E70120F9E7FEE700000FB4084B53
:1037800010B504A902AA039800F01CF8044602A987
:10379000002000F0F3F8204610BC5DF814FB000098
:1037A0007D39000802E008C8121F08C1002AFAD1BA
:1037B00070477047002001E001C1121F002AFBD1B1
:1037C000704700002DE9FF4F8BB09A460F46054623
:1037D000002606E025280BD052460D9990476D1C17
:1037E000761C28780028F5D10FB03046BDE8F08F60
:1037F0000024A0460122604900E0044315F8013F7F
:10380000203B02FA03F00842F7D128782E2817D17E
:1038100015F8010F44F004042A280ED06FF02F028F
:103820002878A0F1300109290AD808EB880102EBB9
:10383000410100EB01086D1CF2E757F8048B6D1C89
:10384000287869283ED006DC0028CDD063280BD02C
:10385000642804D136E0732810D075284BD0524626
:103860000D999047761C85E017F8040B8DF8000041
:1038700000208DF80100E946012003E057F8049B81
:103880004FF0FF3061074FF0000401D40AE0641CE0
:1038900044450DDA8442FADB19F804100029F6D108
:1038A00006E0641C8442FCDB19F804100029F8D1FE
:1038B000264404E019F8010B52460D999047641E06
:1038C000F8D257E001CF4FF00A0B002802DA40424D
:1038D0002D2102E0210504D52B218DF82410012192
:1038E00003E0E10705D02021F7E70DF12009089159
:1038F0000CE00021F9E701CF4FF00A0BF9E7594638
:10390000FCF7F1FC01F1300209F8012D0028F6D195
:10391000ADEB090000F1200B600701D44FF0010866
:10392000D84502DDA8EB0B0000E000208046002413
:1039300006E009A85246005D0D999047641C761C6C
:1039400008988442F5DB04E0302052460D999047F8
:10395000761CB8F10001A8F10108F5DC05E019F8C2
:10396000010B52460D999047761CBBF10001ABF15B
:10397000010BF4DC6D1C34E7092801000A68531CB4
:103980000B6010707047000010B5002821D0114B5B
:103990000022001F196803E0814203D80A464968E3
:1039A0000029F9D152B11368841A9C4204D10068ED
:1039B00018441060104602E0506000E0186039B111
:1039C00002680B1A934203D10B681A4402604968DB
:1039D000416010BD240000202DE9FC41844EB088D8
:1039E00000287CD1F0880A2879D182480121FEF78D
:1039F000DDFA0020FEF71CFE4FF6FF7402250023BF
:103A00000F221421CDE900547BA0FEF781FC002396
:103A100023221421CDE9005479A0FEF779FCDFF8C8
:103A2000F0814FF48C57012239464046FCF713FED3
:103A3000C820FCF7C1FC002239464046FCF70BFECB
:103A4000C820FCF7B9FC012239464046FCF703FECA
:103A5000C820FCF7B1FC002239464046FCF7FBFDCC
:103A6000C820FCF7A9FC012239464046FCF7F3FDCB
:103A7000C820FCF7A1FC002239464046FCF7EBFDCC
:103A8000C820FCF799FC012239464046FCF7E3FDCB
:103A9000C820FCF791FC002239464046FCF7DBFDCC
:103AA000C820FCF789FC012239464046FCF7D3FDCB
:103AB000C820FCF781FC002239464046FCF7CBFDCC
:103AC000012239464046FCF7C6FDC820FCF774FCCD
:103AD000002239464046FCF7BEFDC82000E084E0E5
:103AE000FCF76AFC012239464046FCF7B4FDC820C9
:103AF000FCF762FC002239464046FCF7ACFDC820CA
:103B0000FCF75AFC012239464046FCF7A4FDC820C8
:103B1000FCF752FC002239464046FCF79CFDC820C9
:103B2000FCF74AFC012239464046FCF794FDC820C8
:103B3000FCF742FC002239464046FCF78CFDC820C9
:103B4000FCF73AFC012239464046FCF784FDC820C8
:103B5000FCF732FC002239464046FCF77CFDC820C9
:103B6000FCF72AFC012239464046FCF774FDC820C8
:103B7000FCF722FC002239464046FCF76CFDC820C9
:103B8000FCF71AFC012239464046FCF764FDC820C8
:103B9000FCF712FC002239464046FCF75CFDC820C9
:103BA000FCF70AFC012239464046FCF754FDC820C8
:103BB000FCF702FC002239464046FCF74CFDC820C9
:103BC000FCF7FAFB00230F221421CDE9005411A0C9
:103BD000FEF79EFB002323221421CDE900540DA003
:103BE000FEF796FB01203070B080BDE8FC8100003C
:103BF0000400002044440008706C65617365000097
:103C0000636C6F73652074686520646F6F72000069
:103C100000100240202020202020202020202020D2
:103C2000202020000EB5BFF34F8FBFF36F8FFF4AE8
:103C30004FF000094846FE49C1F80090116841F470
:103C400000311160BFF34F8FBFF36F8FF7497031B1
:103C50000860BFF34F8F081FF54D43F6FF74103512
:103C60000068C0F34E33C0F3C90104EA43160846A6
:103C700046EA80772F60401EFAD25B1EF5D2BFF372
:103C80004F8F106840F480301060BFF34F8FBFF348
:103C90006F8FFCF7F3FCFEF7FFFFFEF727FDFEF743
:103CA00001FFFEF713FEFEF741FEFEF7F3FDFEF700
:103CB0007BFEFEF7CFFEDF48FDF7DEFCFEF74CFB98
:103CC000DD480121FEF772F940F6B830FCF774FBCD
:103CD0000020FEF7ADFC4FF6FF75022600231E22E2
:103CE0001421CDE90065D5A0FEF712FBDFF85CA337
:103CF0000327D74C4FF4814B1420FCF75DFBFFF7F3
:103D00006BFE00F023FAFFF7C9FA00287ED0D148F5
:103D100001225946FCF79FFC02A8FFF747FA012849
:103D2000EAD1BDF80810BDF80A00A1F15102132A2A
:103D300006D2A0F16E03112B02D2A378012B7FD003
:103D4000A1F16F03122B09D2A0F1730CBCF1180F73
:103D500004D294F802C0BCF1010F77D0A1F1890C14
:103D6000BCF1100F09D2A0F18108B8F1130F04D2F1
:103D700094F80280B8F1010F74D0162A09D2A0F18C
:103D80009008B8F1140F04D294F80280B8F1010F32
:103D90006ED0122B06D2A0F19503102B02D2A3787D
:103DA000012B6BD0BCF1120F06D2A0F19703122B9E
:103DB00002D2A378012B67D0A1F15503142B06D2B0
:103DC000A0F1AF03102B02D2A378012B62D0A1F196
:103DD00070030F2B06D2A0F1B0030E2B02D2A378F2
:103DE000012B5DD0A1F18703122B09D2A0F1AF0CFA
:103DF000BCF1120F04D294F802C0BCF1010F55D0EF
:103E000072390F2909D2A0F1C90101E05BE117E085
:103E1000132902D2A17801294ED01D2A06D2A0F181
:103E2000E601112902D2A17801294BD01C2B05D221
:103E3000EE381328FBD2A07801287DD0E5E005E01C
:103E4000864885A1FCF725FA85A104E0834882A174
:103E5000FCF71FFA83A181481E30FCF71AFAD2E062
:103E600000E005E07D487CA1FCF713FA7EA1F2E7B3
:103E70007A4879A1FCF70DFA7CA1ECE7774876A1A6
:103E8000FCF707FA7AA1E6E7744873A1FCF701FA98
:103E900078A1E0E7714870A1FCF7FBF976A1DAE7B9
:103EA0006E486DA1FCF7F5F974A1D4E76B486AA1DF
:103EB000FCF7EFF972A1CEE7684867A1FCF7E9F9D2
:103EC00070A1C8E7654A70A164481E32FFF756FC2E
:103ED0005F496248083184F802901E30FCF7ECF923
:103EE00058B355480121FEF761F80020FEF7A0FB0A
:103EF00000230F221421CDE9006564A0FEF708FA23
:103F0000002323221421CDE9006563A0FEF700FA07
:103F10004FF48458504601224146FCF79CFBC820D0
:103F2000FCF74AFA002241465046FCF794FBC820B1
:103F3000FCF742FA012201E05AE01EE041465046F9
:103F4000FCF789FBC820FCF737FA002241465046AF
:103F5000FCF781FBC820FCF72FFA012241465046AE
:103F6000FCF779FBC820FCF727FA002241465046AF
:103F7000FCF771FB4FF47A7026E000231E22142117
:103F8000CDE9007547A0FEF7C3F949480021FDF7C8
:103F900085FD4749142009684863FCF70DFA444839
:103FA0000021FDF797FD4FF4885850460122414605
:103FB000FCF751FBC820FCF7FFF9002241465046B0
:103FC000FCF749FB4FF4FA60FCF7F6F90022504683
:103FD0004FF48C51FCF73FFB20493C31A1F11E000E
:103FE000FCF778F91D491D483C31FCF773F90CE0EA
:103FF0001A493C31A1F11E00FCF76CF9174917482A
:104000003C31FCF767F984F8029001210A48FDF77A
:10401000CDFF124A1CA102F14600FFF7AFFB0020C2
:10402000FEF706FB00231E22142143E014ED00E0FE
:1040300050EF00E00001002044440008456E746524
:10404000722050617373776F726400000010024039
:1040500004000020000402402A0000002C00002080
:104060003100000032000000330000003400000086
:104070003500000036000000370000003800000066
:104080003900000030000000257300005061737398
:10409000776F726400000000696E636F727265630F
:1040A00074000000436F72726563742000000000AA
:1040B000400100200848CDE90075FEF729F93220BB
:1040C000FCF77AF918E6054800225946FCF7C3FACE
:1040D0000120A07010E600007200002000040240E1
:1040E000F0B50B30154D20F007010024144A0FE005
:1040F00003688B420BD38B4205D95E1A431847687D
:10410000C3E9006700E04368136002C004E0021DD9
:1041100010680028ECD12046002802D1286808B198
:104120000020F0BD064A07481060074A121A22F024
:104130000702C0E9002401202860D7E728000020FA
:104140002400002064020020600400207FB5234D7D
:104150004FF4004421462846FCF778FA20A1024695
:1041600002A8FFF70BFB02A8FCF79FF882B21E48DB
:10417000C82302A9FDF71AFE21462846FCF766FA75
:1041800000281A484FF4007103D00022FCF763FAAC
:104190007FBD0122FCF75FFA0020FEF749FA4FF6D7
:1041A000FF74022500230F221421CDE9005410A032
:1041B000FEF7AEF8002323221421CDE900540EA00F
:1041C000FEF7A6F84FF4FA60FCF7F6F80020FEF7C9
:1041D0002FFA0B480121FDF7E9FE7FBD00100240D8
:1041E00025640A0D00000000F001002000180240C4
:1041F0005072657373000000427574746F6E000036
:10420000444400080000000000005C0000000000C2
:10421000060006000000287C287C28005C54FE5420
:104220007400442010084400285454205000060014
:104230000000000038440000000044380000000086
:1042400002070200000010107C101000C0000000E7
:10425000000010101010100040000000000060105E
:104260000C0000007C64544C7C00487C4000000042
:10427000645454544800445454546C003C207020FE
:1042800020005C54545424007C545454740004049E
:1042900064140C007C5454547C005C5454547C00D2
:1042A000440000000000C40000000000102844008A
:1042B00000002828282828004428100000000804AE
:1042C000540800007C4454545C007C2424247C006A
:1042D0007C5454546C007C44444444007C44444426
:1042E00038007C54545444007C14141404007C445E
:1042F000445474007C1010107C0044447C444400FE
:10430000604040447C007C10102844007C404040C9
:1043100040007C0810087C007C0810207C00384499
:10432000444438007C14141408003C2464243C00E9
:104330007C14141468005C545454740004047C0409
:1043400004007C4040407C000C3040300C003C407D
:1043500030403C004428102844000C1060100C0031
:104360004464544C44007C44000000000C10600085
:104370000000447C000000000001000100004040FB
:10438000404040400001000000007C2424247C00C8
:104390007C5454546C007C44444444007C44444465
:1043A00038007C54545444007C14141404007C449D
:1043B000445474007C1010107C0044447C4444003D
:1043C000604040447C007C10102844007C40404009
:1043D00040007C0810087C007C0810207C003844D9
:1043E000444438007C14141408003C2464243C0029
:1043F0007C14141468005C545454740004047C0449
:1044000004007C4040407C000C3040300C003C40BC
:1044100030403C004428102844000C1060100C0070
:104420004464544C4400107C440000006C000000C4
:104430000000447C100000000201020100000000A6
:1044400000000000FFFFFFFFFFFFFFFFFFFFFFFF78
:10445000FFFFFFFFFFFFFFFFFFFFFFFFFFFFFFFF6C
:10446000FFFFFFFFFFFFFFFFFFFFFFFFFFFFFFFF5C
:10447000FFFFFFFFFFFFFFFFFFFFFFFFFFFFFFFF4C
:10448000FFFFFFFFFFFFFFFFFFFFFFFFFFFFFFFF3C
:10625000FFFFFFFFFFFFFFFFFFFF002000200020E8
:10626000002000200020002000200020002000202E
:10627000002000200020002000200020002000201E
:10628000002000200020002000200020002000200E
:1062900000200020002000200020002000200020FE
:1062A00000200020002000200020002000200020EE
:1062B00000200020002000200020002000200020DE
:1062C00000200020FFFFFFFFFFFFFFFFFFFFFFFF9A
:1062D000FFFFFFFFFFFFFFFFFFFFFFFFFFFFFFFFCE
:1062E000FFFFFFFFFFFFFFFFFFFFFFFFFFFFFFFFBE
:1062F000FFFFFFFFFFFFFFFFFFFFFFFFFFFFFFFFAE
:10630000FFFFFFFFFFFFFFFFFFFFFFFFFFFFFFFF9D
:10631000FFFFFFFFFFFFFFFFFFFFFFFFFFFFFFFF8D
:10632000FFFFFFFFFFFFFFFFFFFFFFFFFFFFFFFF7D
:10633000FFFFFFFFFFFFFFFFFFFFFFFFFFFFFFFF6D
:10634000FFFFFFFFFFFFFFFFFFFFFFFFFFFFFFFF5D
:10635000FFFFFFFFFFFFFFFFFFFFFFFFFFFFFFFF4D
:10636000FFFFFFFFFFFFFFFFFFFFFFFFFFFFFFFF3D
:10637000FFFFFFFFFFFFFFFFFFFFFFFFFFFFFFFF2D
:10638000FFFFFFFFFFFFFFFFFFFFFFFFFFFFFFFF1D
:10639000FFFFFFFFFFFFFFFFFFFFFFFFFFFFFFFF0D
:1063A000FFFFFFFFFFFFFFFFFFFFFFFFFFFFFFFFFD
:1063B000FFFFFFFFFFFFFFFFFFFFFFFFFFFFFFFFED
:1063C000FFFFFFFFFFFFFFFFFFFFFFFFFFFFFFFFDD
:1063D000FFFFFFFFFFFFFFFFFFFFFFFFFFFFFFFFCD
:1063E000FFFFFFFFFFFFFFFFFFFFFFFFFFFFFFFFBD
:1063F000FFFFFFFFFFFFFFFFFFFFFFFFFFFFFFFFAD
:10640000FFFFFFFFFFFFFFFFFFFFFFFFFFFFFFFF9C
:10641000FFFFFFFFFFFFFFFFFFFFFFFFFFFFFFFF8C
:10642000FFFFFFFFFFFFFFFFFFFFFFFFFFFFFFFF7C
:10643000FFFFFFFFFFFFFFFFFFFFFFFFFFFFFFFF6C
:10644000FFFFFFFFFFFFFFFFFFFFFFFFFFFFFFFF5C
:10645000FFFFFFFFFFFFFFFFFFFFFFFFFFFFFFFF4C
:10646000FFFFFFFFFFFFFFFFFFFFFFFFFFFFFFFF3C
:10647000FFFFFFFFFFFFFFFFFFFFFFFFFFFFFFFF2C
:10648000FFFFFFFFFFFFFFFFFFFFFFFFFFFFFFFF1C
:10649000FFFFFFFFFFFFFFFFFFFFFFFFFFFFFFFF0C
:1064A000FFFFFFFFFFFFFFFFFFFFFFFFFFFFFFFFFC
:1064B000FFFFFFFFFFFFFFFFFFFFFFFFFFFFFFFFEC
:1064C000FFFFFFFFFFFFFFFFFFFFFFFFFFFFFFFFDC
:1064D000FFFFFFFFFFFFFFFFFFFF0020FFFFFFFFAA
:1064E000FFFFFFFFFFFFFFFFFFFFFFFFFFFFFFFFBC
:1064F000FFFFFFFFFFFFFFFFFFFFFFFFFFFFFFFFAC
:10650000FFFFFFFFFFFFFFFFFFFFFFFFFFFFFFFF9B
:10651000FFFFFFFFFFFFFFFFFFFFFFFFFFFFFFFF8B
:10652000FFFFFFFFFFFFFFFFFFFFFFFFFFFFFFFF7B
:10653000FFFFFFFFFFFFFFFFFFFFFFFFFFFFFFFF6B
:10654000FFFF0020FFFFFFFFFFFFFFFFFFFFFFFF39
:10655000FFFFFFFFFFFFFFFFFFFFFFFFFFFFFFFF4B
:10656000FFFFFFFFFFFFFFFFFFFFFFFFFFFFFFFF3B
:10657000FFFFFFFFFFFFFFFFFFFFFFFFFFFFFFFF2B
:10658000FFFFFFFFFFFFFFFFFFFFFFFFFFFFFFFF1B
:10659000FFFFFFFFFFFFFFFFFFFFFFFFFFFFFFFF0B
:1065A000FFFFFFFFFFFFFFFFFFFFFFFFFFFFFFFFFB
:1065B000FFFFFFFFFFFFFFFFFFFFFFFFFFFFFFFFEB
:1065C000FFFFFFFFFFFFFFFFFFFFFFFFFFFFFFFFDB
:1065D000FFFFFFFFFFFFFFFFFFFFFFFFFFFFFFFFCB
:1065E000FFFFFFFFFFFFFFFFFFFFFFFFFFFFFFFFBB
:1065F000FFFFFFFFFFFFFFFFFFFFFFFFFFFFFFFFAB
:10660000FFFFFFFFFFFFFFFFFFFFFFFFFFFFFFFF9A
:10661000FFFFFFFFFFFFFFFFFFFFFFFFFFFFFFFF8A
:10662000FFFFFFFFFFFFFFFFFFFFFFFFFFFFFFFF7A
:10663000FFFFFFFFFFFFFFFFFFFFFFFFFFFFFFFF6A
:10664000FFFFFFFFFFFFFFFFFFFFFFFFFFFFFFFF5A
:10665000FFFFFFFFFFFFFFFFFFFFFFFFFFFFFFFF4A
:10666000FFFFFFFFFFFFFFFFFFFFFFFFFFFFFFFF3A
:10667000FFFFFFFFFFFFFFFFFFFFFFFFFFFFFFFF2A
:10668000FFFFFFFFFFFFFFFFFFFFFFFFFFFFFFFF1A
:10669000FFFFFFFFFFFFFFFFFFFFFFFFFFFFFFFF0A
:1066A000FFFFFFFFFFFFFFFFFFFFFFFFFFFFFFFFFA
:1066B000FFFFFFFFFFFFFFFFFFFFFFFFFFFFFFFFEA
:1066C000FFFFFFFFFFFFFFFFFFFFFFFFFFFFFFFFDA
:1066D000FFFFFFFFFFFFFFFFFFFFFFFFFFFFFFFFCA
:1066E000FFFFFFFFFFFFFFFFFFFFFFFFFFFFFFFFBA
:1066F000FFFFFFFFFFFFFFFFFFFFFFFFFFFFFFFFAA
:10670000FFFFFFFFFFFFFFFFFFFFFFFFFFFFFFFF99
:10671000FFFFFFFFFFFFFFFFFFFFFFFFFFFFFFFF89
:10672000FFFFFFFFFFFFFFFFFFFFFFFFFFFFFFFF79
:10673000FFFFFFFFFFFFFFFFFFFFFFFFFFFFFFFF69
:10674000FFFFFFFFFFFFFFFFFFFFFFFFFFFFFFFF59
:10675000FFFFFFFFFFFFFFFFFFFF0020FFFFFFFF27
:10676000FFFFFFFFFFFFFFFFFFFFFFFFFFFFFFFF39
:10677000FFFFFFFFFFFFFFFFFFFFFFFFFFFFFFFF29
:10678000FFFFFFFFFFFFFFFFFFFFFFFFFFFFFFFF19
:10679000FFFFFFFFFFFFFFFFFFFFFFFFFFFFFFFF09
:1067A000FFFFFFFFFFFFFFFFFFFFFFFFFFFFFFFFF9
:1067B000FFFFFFFFFFFFFFFFFFFFFFFFFFFFFFFFE9
:1067C000FFFF0020FFFFFFFFFFFFFFFFFFFFFFFFB7
:1067D000FFFFFFFFFFFFFFFFFFFFFFFFFFFFFFFFC9
:1067E000FFFFFFFFFFFFFFFFFFFFFFFFFFFFFFFFB9
:1067F000FFFFFFFFFFFFFFFFFFFFFFFFFFFFFFFFA9
:10680000FFFFFFFFFFFFFFFFFFFFFFFFFFFFFFFF98
:10681000FFFFFFFFFFFFFFFFFFFFFFFFFFFFFFFF88
:10682000FFFFFFFFFFFFFFFFFFFFFFFFFFFFFFFF78
:10683000FFFFFFFFFFFFFFFFFFFFFFFFFFFFFFFF68
:10684000FFFFFFFFFFFFFFFFFFFFFFFFFFFFFFFF58
:10685000FFFFFFFFFFFFFFFFFFFFFFFFFFFFFFFF48
:10686000FFFFFFFFFFFFFFFFFFFFFFFFFFFFFFFF38
:10687000FFFFFFFFFFFFFFFFFFFFFFFFFFFFFFFF28
:10688000FFFFFFFFFFFFFFFFFFFFFFFFFFFFFFFF18
:10689000FFFFFFFFFFFFFFFFFFFFFFFFFFFFFFFF08
:1068A000FFFFFFFFFFFFFFFFFFFFFFFFFFFFFFFFF8
:1068B000FFFFFFFFFFFFFFFFFFFFFFFFFFFFFFFFE8
:1068C000FFFFFFFFFFFFFFFFFFFFFFFFFFFFFFFFD8
:1068D000FFFFFFFFFFFFFFFFFFFFFFFFFFFFFFFFC8
:1068E000FFFFFFFFFFFFFFFFFFFFFFFFFFFFFFFFB8
:1068F000FFFFFFFFFFFFFFFFFFFFFFFFFFFFFFFFA8
:10690000FFFFFFFFFFFFFFFFFFFFFFFFFFFFFFFF97
:10691000FFFFFFFFFFFFFFFFFFFFFFFFFFFFFFFF87
:10692000FFFFFFFFFFFFFFFFFFFFFFFFFFFFFFFF77
:10693000FFFFFFFFFFFFFFFFFFFFFFFFFFFFFFFF67
:10694000FFFFFFFFFFFFFFFFFFFFFFFFFFFFFFFF57
:10695000FFFFFFFFFFFFFFFFFFFFFFFFFFFFFFFF47
:10696000FFFFFFFFFFFFFFFFFFFFFFFFFFFFFFFF37
:10697000FFFFFFFFFFFFFFFFFFFFFFFFFFFFFFFF27
:10698000FFFFFFFFFFFFFFFFFFFFFFFFFFFFFFFF17
:10699000FFFFFFFFFFFFFFFFFFFFFFFFFFFFFFFF07
:1069A000FFFFFFFFFFFFFFFFFFFFFFFFFFFFFFFFF7
:1069B000FFFFFFFFFFFFFFFFFFFFFFFFFFFFFFFFE7
:1069C000FFFFFFFFFFFFFFFFFFFFFFFFFFFFFFFFD7
:1069D000FFFFFFFFFFFFFFFFFFFF0020FFFFFFFFA5
:1069E000FFFFFFFFFFFFFFFFFFFFFFFFFFFFFFFFB7
:1069F000FFFFFFFFFFFFFFFFFFFFFFFFFFFFFFFFA7
:106A0000FFFFFFFFFFFFFFFFFFFFFFFFFFFFFFFF96
:106A1000FFFFFFFFFFFFFFFFFFFFFFFFFFFFFFFF86
:106A2000FFFFFFFFFFFFFFFFFFFFFFFFFFFFFFFF76
:106A3000FFFFFFFFFFFFFFFFFFFFFFFFFFFFFFFF66
:106A4000FFFF0020FFFFFFFFFFFFFFFFFFFFFFFF34
:106A5000FFFFFFFFFFFFFFFFFFFFFFFFFFFFFFFF46
:106A6000FFFFFFFFFFFFFFFFFFFFFFFFFFFFFFFF36
:106A7000FFFFFFFFFFFFFFFFFFFFFFFFFFFFFFFF26
:106A8000FFFFFFFFFFFFFFFFFFFFFFFFFFFFFFFF16
:106A9000FFFFFFFFFFFFFFFFFFFFFFFFFFFFFFFF06
:106AA000FFFFFFFFFFFFFFFFFFFFFFFFFFFFFFFFF6
:106AB000FFFFFFFFFFFFFFFFFFFFFFFFFFFFFFFFE6
:106AC000FFFFFFFFFFFFFFFFFFFFFFFFFFFFFFFFD6
:106AD000FFFFFFFFFFFFFFFFFFFFFFFFFFFFFFFFC6
:106AE000FFFFFFFFFFFFFFFFFFFFFFFFFFFFFFFFB6
:106AF000FFFFFFFFFFFFFFFFFFFFFFFFFFFFFFFFA6
:106B0000FFFFFFFFFFFFFFFFFFFFFFFFFFFFFFFF95
:106B1000FFFFFFFFFFFFFFFFFFFFFFFFFFFFFFFF85
:106B2000FFFFFFFFFFFFFFFFFFFFFFFFFFFFFFFF75
:106B3000FFFFFFFFFFFFFFFFFFFFFFFFFFFFFFFF65
:106B4000FFFFFFFFFFFFFFFFFFFFFFFFFFFFFFFF55
:106B5000FFFFFFFFFFFFFFFFFFFFFFFFFFFFFFFF45
:106B6000FFFFFFFFFFFFFFFFFFFFFFFFFFFFFFFF35
:106B7000FFFFFFFFFFFFFFFFFFFFFFFFFFFFFFFF25
:106B8000FFFFFFFFFFFFFFFFFFFFFFFFFFFFFFFF15
:106B9000FFFFFFFFFFFFFFFFFFFFFFFFFFFFFFFF05
:106BA000FFFFFFFFFFFFFFFFFFFFFFFFFFFFFFFFF5
:106BB000FFFFFFFFFFFFFFFFFFFFFFFFFFFFFFFFE5
:106BC000FFFFFFFFFFFFFFFFFFFFFFFFFFFFFFFFD5
:106BD000FFFFFFFFFFFFFFFFFFFFFFFFFFFFFFFFC5
:106BE000FFFFFFFFFFFFFFFFFFFFFFFFFFFFFFFFB5
:106BF000FFFFFFFFFFFFFFFFFFFFFFFFFFFFFFFFA5
:106C0000FFFFFFFFFFFFFFFFFFFFFFFFFFFFFFFF94
:106C1000FFFFFFFFFFFFFFFFFFFFFFFFFFFFFFFF84
:106C2000FFFFFFFFFFFFFFFFFFFFFFFFFFFFFFFF74
:106C3000FFFFFFFFFFFFFFFFFFFFFFFFFFFFFFFF64
:106C4000FFFFFFFFFFFFFFFFFFFFFFFFFFFFFFFF54
:106C5000FFFFFFFFFFFFFFFFFFFF0020FFFFFFFF22
:106C6000FFFFFFFFFFFFFFFFFFFFFFFFFFFFFFFF34
:106C7000FFFFFFFFFFFFFFFFFFFFFFFFFFFFFFFF24
:106C8000FFFFFFFFFFFFFFFFFFFFFFFFFFFFFFFF14
:106C9000FFFFFFFFFFFFFFFFFFFFFFFFFFFFFFFF04
:106CA000FFFFFFFFFFFFFFFFFFFFFFFFFFFFFFFFF4
:106CB000FFFFFFFFFFFFFFFFFFFFFFFFFFFFFFFFE4
:106CC000FFFF0020FFFFFFFFFFFFFFFFFFFFFFFFB2
:106CD000FFFFFFFFFFFFFFFFFFFFFFFFFFFFFFFFC4
:106CE000FFFFFFFFFFFFFFFFFFFFFFFFFFFFFFFFB4
:106CF000FFFFFFFFFFFFFFFFFFFFFFFFFFFFFFFFA4
:106D0000FFFFFFFFFFFFFFFFFFFFFFFFFFFFFFFF93
:106D1000FFFFFFFFFFFFFFFFFFFFFFFFFFFFFFFF83
:106D2000FFFFFFFFFFFFFFFFFFFFFFFFFFFFFFFF73
:106D3000FFFFFFFFFFFFFFFFFFFFFFFFFFFFFFFF63
:106D4000FFFFFFFFFFFFFFFFFFFFFFFFFFFFFFFF53
:106D5000FFFFFFFFFFFFFFFFFFFFFFFFFFFFFFFF43
:106D6000FFFFFFFFFFFFFFFFFFFFFFFFFFFFFFFF33
:106D7000FFFFFFFFFFFFFFFFFFFFFFFFFFFFFFFF23
:106D8000FFFFFFFFFFFFFFFFFFFFFFFFFFFFFFFF13
:106D9000FFFFFFFFFFFFFFFFFFFFFFFFFFFFFFFF03
:106DA000FFFFFFFFFFFFFFFFFFFFFFFFFFFFFFFFF3
:106DB000FFFFFFFFFFFFFFFFFFFFFFFFFFFFFFFFE3
:106DC000FFFFFFFFFFFFFFFFFFFFFFFFFFFFFFFFD3
:106DD000FFFFFFFFFFFFFFFFFFFFFFFFFFFFFFFFC3
:106DE000FFFFFFFFFFFFFFFFFFFFFFFFFFFFFFFFB3
:106DF000FFFFFFFFFFFFFFFFFFFFFFFFFFFFFFFFA3
:106E0000FFFFFFFFFFFFFFFFFFFFFFFFFFFFFFFF92
:106E1000FFFFFFFFFFFFFFFFFFFFFFFFFFFFFFFF82
:106E2000FFFFFFFFFFFFFFFFFFFFFFFFFFFFFFFF72
:106E3000FFFFFFFFFFFFFFFFFFFFFFFFFFFFFFFF62
:106E4000FFFFFFFFFFFFFFFFFFFFFFFFFFFFFFFF52
:106E5000FFFFFFFFFFFFFFFFFFFFFFFFFFFFFFFF42
:106E6000FFFFFFFFFFFFFFFFFFFFFFFFFFFFFFFF32
:106E7000FFFFFFFFFFFFFFFFFFFFFFFFFFFFFFFF22
:106E8000FFFFFFFFFFFFFFFFFFFFFFFFFFFFFFFF12
:106E9000FFFFFFFFFFFFFFFFFFFFFFFFFFFFFFFF02
:106EA000FFFFFFFFFFFFFFFFFFFFFFFFFFFFFFFFF2
:106EB000FFFFFFFFFFFFFFFFFFFFFFFFFFFFFFFFE2
:106EC000FFFFFFFFFFFFFFFFFFFFFFFFFFFFFFFFD2
:106ED000FFFFFFFFFFFFFFFFFFFF0020FFFFFFFFA0
:106EE000FFFFFFFFFFFFFFFFFFFFFFFFFFFFFFFFB2
:106EF000FFFFFFFFFFFFFFFFFFFFFFFFFFFFFFFFA2
:106F0000FFFFFFFFFFFFFFFFFFFFFFFFFFFFFFFF91
:106F1000FFFFFFFFFFFFFFFFFFFFFFFFFFFFFFFF81
:106F2000FFFFFFFFFFFFFFFFFFFFFFFFFFFFFFFF71
:106F3000FFFFFFFFFFFFFFFFFFFFFFFFFFFFFFFF61
:106F4000FFFF0020FFFFFFFFFFFFFFFFFFFFFFFF2F
:106F5000FFFFFFFFFFFFFFFFFFFFFFFFFFFFFFFF41
:106F6000FFFFFFFFFFFFFFFFFFFFFFFFFFFFFFFF31
:106F7000FFFFFFFFFFFFFFFFFFFFFFFFFFFFFFFF21
:106F8000FFFFFFFFFFFFFFFFFFFFFFFFFFFFFFFF11
:106F9000FFFFFFFFFFFFFFFFFFFFFFFFFFFFFFFF01
:106FA000FFFFFFFFFFFFFFFFFFFFFFFFFFFFFFFFF1
:106FB000FFFFFFFFFFFFFFFFFFFFFFFFFFFFFFFFE1
:106FC000FFFFFFFFFFFFFFFFFFFFFFFFFFFFFFFFD1
:106FD000FFFFFFFFFFFFFFFFFFFFFFFFFFFFFFFFC1
:106FE000FFFFFFFFFFFFFFFFFFFFFFFFFFFFFFFFB1
:106FF000FFFFFFFFFFFFFFFFFFFFFFFFFFFFFFFFA1
:10700000FFFFFFFFFFFFFFFFFFFFFFFFFFFFFFFF90
:10701000FFFFFFFFFFFFFFFFFFFFFFFFFFFFFFFF80
:10702000FFFFFFFFFFFFFFFFFFFFFFFFFFFFFFFF70
:10703000FFFFFFFFFFFFFFFFFFFFFFFFFFFFFFFF60
:10704000FFFFFFFFFFFFFFFFFFFFFFFFFFFFFFFF50
:10705000FFFFFFFFFFFFFFFFFFFFFFFFFFFFFFFF40
:10706000FFFFFFFFFFFFFFFFFFFFFFFFFFFFFFFF30
:10707000FFFFFFFFFFFFFFFFFFFFFFFFFFFFFFFF20
:10708000FFFFFFFFFFFFFFFFFFFFFFFFFFFFFFFF10
:10709000FFFFFFFFFFFFFFFFFFFFFFFFFFFFFFFF00
:1070A000FFFFFFFFFFFFFFFFFFFFFFFFFFFFFFFFF0
:1070B000FFFFFFFFFFFFFFFFFFFFFFFFFFFFFFFFE0
:1070C000FFFFFFFFFFFFFFFFFFFFFFFFFFFFFFFFD0
:1070D000FFFFFFFFFFFFFFFFFFFFFFFFFFFFFFFFC0
:1070E000FFFFFFFFFFFFFFFFFFFFFFFFFFFFFFFFB0
:1070F000FFFFFFFFFFFFFFFFFFFFFFFFFFFFFFFFA0
:10710000FFFFFFFFFFFFFFFFFFFFFFFFFFFFFFFF8F
:10711000FFFFFFFFFFFFFFFFFFFFFFFFFFFFFFFF7F
:10712000FFFFFFFFFFFFFFFFFFFFFFFFFFFFFFFF6F
:10713000FFFFFFFFFFFFFFFFFFFFFFFFFFFFFFFF5F
:10714000FFFFFFFFFFFFFFFFFFFFFFFFFFFFFFFF4F
:10715000FFFFFFFFFFFFFFFFFFFF0020FFFFFFFF1D
:10716000FFFFFFFFFFFFFFFFFFFFFFFFFFFFFFFF2F
:10717000FFFFFFFFFFFFFFFFFFFFFFFFFFFFFFFF1F
:10718000FFFFFFFFFFFFFFFFFFFFFFFFFFFFFFFF0F
:10719000FFFFFFFFFFFFFFFFFFFFFFFFFFFFFFFFFF
:1071A000FFFFFFFFFFFFFFFFFFFFFFFFFFFFFFFFEF
:1071B000FFFFFFFFFFFFFFFFFFFFFFFFFFFFFFFFDF
:1071C000FFFF0020FFFFFFFFFFFFFFFFFFFFFFFFAD
:1071D000FFFFFFFFFFFFFFFFFFFFFFFFFFFFFFFFBF
:1071E000FFFFFFFFFFFFFFFFFFFFFFFFFFFFFFFFAF
:1071F000FFFFFFFFFFFFFFFFFFFFFFFFFFFFFFFF9F
:10720000FFFFFFFFFFFFFFFFFFFFFFFFFFFFFFFF8E
:10721000FFFFFFFFFFFFFFFFFFFFFFFFFFFFFFFF7E
:10722000FFFFFFFFFFFFFFFFFFFFFFFFFFFFFFFF6E
:10723000FFFFFFFFFFFFFFFFFFFFFFFFFFFFFFFF5E
:10724000FFFFFFFFFFFFFFFFFFFFFFFFFFFFFFFF4E
:10725000FFFFFFFFFFFFFFFFFFFFFFFFFFFFFFFF3E
:10726000FFFFFFFFFFFFFFFFFFFFFFFFFFFFFFFF2E
:10727000FFFFFFFFFFFFFFFFFFFFFFFFFFFFFFFF1E
:10728000FFFFFFFFFFFFFFFFFFFFFFFFFFFFFFFF0E
:10729000FFFFFFFFFFFFFFFFFFFFFFFFFFFFFFFFFE
:1072A000FFFFFFFFFFFFFFFFFFFFFFFFFFFFFFFFEE
:1072B000FFFFFFFFFFFFFFFFFFFFFFFFFFFFFFFFDE
:1072C000FFFFFFFFFFFFFFFFFFFFFFFFFFFFFFFFCE
:1072D000FFFFFFFFFFFFFFFFFFFFFFFFFFFFFFFFBE
:1072E000FFFFFFFFFFFFFFFFFFFFFFFFFFFFFFFFAE
:1072F000FFFFFFFFFFFFFFFFFFFFFFFFFFFFFFFF9E
:10730000FFFFFFFFFFFFFFFFFFFFFFFFFFFFFFFF8D
:10731000FFFFFFFFFFFFFFFFFFFFFFFFFFFFFFFF7D
:10732000FFFFFFFFFFFFFFFFFFFFFFFFFFFFFFFF6D
:10733000FFFFFFFFFFFFFFFFFFFFFFFFFFFFFFFF5D
:10734000FFFFFFFFFFFFFFFFFFFFFFFFFFFFFFFF4D
:10735000FFFFFFFFFFFFFFFFFFFFFFFFFFFFFFFF3D
:10736000FFFFFFFFFFFFFFFFFFFFFFFFFFFFFFFF2D
:10737000FFFFFFFFFFFFFFFFFFFFFFFFFFFFFFFF1D
:10738000FFFFFFFFFFFFFFFFFFFFFFFFFFFFFFFF0D
:10739000FFFFFFFFFFFFFFFFFFFFFFFFFFFFFFFFFD
:1073A000FFFFFFFFFFFFFFFFFFFFFFFFFFFFFFFFED
:1073B000FFFFFFFFFFFFFFFFFFFFFFFFFFFFFFFFDD
:1073C000FFFFFFFFFFFFFFFFFFFFFFFFFFFFFFFFCD
:1073D000FFFFFFFFFFFFFFFFFFFF0020FFFFFFFF9B
:1073E000FFFFFFFFFFFFFFFFFFFFFFFFFFFFFFFFAD
:1073F000FFFFFFFFFFFFFFFFFFFFFFFFFFFFFFFF9D
:10740000FFFFFFFFFFFFFFFFFFFFFFFFFFFFFFFF8C
:10741000FFFFFFFFFFFFFFFFFFFFFFFFFFFFFFFF7C
:10742000FFFFFFFFFFFFFFFFFFFFFFFFFFFFFFFF6C
:10743000FFFFFFFFFFFFFFFFFFFFFFFFFFFFFFFF5C
:10744000FFFF0020FFFFFFFFFFFFFFFFFFFFFFFF2A
:10745000FFFFFFFFFFFFFFFFFFFFFFFFFFFFFFFF3C
:10746000FFFFFFFFFFFFFFFFFFFFFFFFFFFFFFFF2C
:10747000FFFFFFFFFFFFFFFFFFFFFFFFFFFFFFFF1C
:10748000FFFFFFFFFFFFFFFFFFFFFFFFFFFFFFFF0C
:10749000FFFFFFFFFFFFFFFFFFFFFFFFFFFFFFFFFC
:1074A000FFFFFFFFFFFFFFFFFFFFFFFFFFFFFFFFEC
:1074B000FFFFFFFFFFFFFFFFFFFFFFFFFFFFFFFFDC
:1074C000FFFFFFFFFFFFFFFFFFFFFFFFFFFFFFFFCC
:1074D000FFFFFFFFFFFFFFFFFFFFFFFFFFFFFFFFBC
:1074E000FFFFFFFFFFFFFFFFFFFFFFFFFFFFFFFFAC
:1074F000FFFFFFFFFFFFFFFFFFFFFFFFFFFFFFFF9C
:10750000FFFFFFFFFFFFFFFFFFFFFFFFFFFFFFFF8B
:10751000FFFFFFFFFFFFFFFFFFFFFFFFFFFFFFFF7B
:10752000FFFFFFFFFFFFFFFFFFFFFFFFFFFFFFFF6B
:10753000FFFFFFFFFFFFFFFFFFFFFFFFFFFFFFFF5B
:10754000FFFFFFFFFFFFFFFFFFFFFFFFFFFFFFFF4B
:10755000FFFFFFFFFFFFFFFFFFFFFFFFFFFFFFFF3B
:10756000FFFFFFFFFFFFFFFFFFFFFFFFFFFFFFFF2B
:10757000FFFFFFFFFFFFFFFFFFFFFFFFFFFFFFFF1B
:10758000FFFFFFFFFFFFFFFFFFFFFFFFFFFFFFFF0B
:10759000FFFFFFFFFFFFFFFFFFFFFFFFFFFFFFFFFB
:1075A000FFFFFFFFFFFFFFFFFFFFFFFFFFFFFFFFEB
:1075B000FFFFFFFFFFFFFFFFFFFFFFFFFFFFFFFFDB
:1075C000FFFFFFFFFFFFFFFFFFFFFFFFFFFFFFFFCB
:1075D000FFFFFFFFFFFFFFFFFFFFFFFFFFFFFFFFBB
:1075E000FFFFFFFFFFFFFFFFFFFFFFFFFFFFFFFFAB
:1075F000FFFFFFFFFFFFFFFFFFFFFFFFFFFFFFFF9B
:10760000FFFFFFFFFFFFFFFFFFFFFFFFFFFFFFFF8A
:10761000FFFFFFFFFFFFFFFFFFFFFFFFFFFFFFFF7A
:10762000FFFFFFFFFFFFFFFFFFFFFFFFFFFFFFFF6A
:10763000FFFFFFFFFFFFFFFFFFFFFFFFFFFFFFFF5A
:10764000FFFFFFFFFFFFFFFFFFFFFFFFFFFFFFFF4A
:10765000FFFFFFFFFFFFFFFFFFFF0020FFFFFFFF18
:10766000FFFFFFFFFFFFFFFFFFFFFFFFFFFFFFFF2A
:10767000FFFFFFFFFFFFFFFFFFFFFFFFFFFFFFFF1A
:10768000FFFFFFFFFFFFFFFFFFFFFFFFFFFFFFFF0A
:10769000FFFFFFFFFFFFFFFFFFFFFFFFFFFFFFFFFA
:1076A000FFFFFFFFFFFFFFFFFFFFFFFFFFFFFFFFEA
:1076B000FFFFFFFFFFFFFFFFFFFFFFFFFFFFFFFFDA
:1076C000FFFF0020FFFFFFFFFFFFFFFFFFFFFFFFA8
:1076D000FFFFFFFFFFFFFFFFFFFFFFFFFFFFFFFFBA
:1076E000FFFFFFFFFFFFFFFFFFFFFFFFFFFFFFFFAA
:1076F000FFFFFFFFFFFFFFFFFFFFFFFFFFFFFFFF9A
:10770000FFFFFFFFFFFFFFFFFFFFFFFFFFFFFFFF89
:10771000FFFFFFFFFFFFFFFFFFFFFFFFFFFFFFFF79
:10772000FFFFFFFFFFFFFFFFFFFFFFFFFFFFFFFF69
:10773000FFFFFFFFFFFFFFFFFFFFFFFFFFFFFFFF59
:10774000FFFFFFFFFFFFFFFFFFFFFFFFFFFFFFFF49
:10775000FFFFFFFFFFFFFFFFFFFFFFFFFFFFFFFF39
:10776000FFFFFFFFFFFFFFFFFFFFFFFFFFFFFFFF29
:10777000FFFFFFFFFFFFFFFFFFFFFFFFFFFFFFFF19
:10778000FFFFFFFFFFFFFFFFFFFFFFFFFFFFFFFF09
:10779000FFFFFFFFFFFFFFFFFFFFFFFFFFFFFFFFF9
:1077A000FFFFFFFFFFFFFFFFFFFFFFFFFFFFFFFFE9
:1077B000FFFFFFFFFFFFFFFFFFFFFFFFFFFFFFFFD9
:1077C000FFFFFFFFFFFFFFFFFFFFFFFFFFFFFFFFC9
:1077D000FFFFFFFFFFFFFFFFFFFFFFFFFFFFFFFFB9
:1077E000FFFFFFFFFFFFFFFFFFFFFFFFFFFFFFFFA9
:1077F000FFFFFFFFFFFFFFFFFFFFFFFFFFFFFFFF99
:10780000FFFFFFFFFFFFFFFFFFFFFFFFFFFFFFFF88
:10781000FFFFFFFFFFFFFFFFFFFFFFFFFFFFFFFF78
:10782000FFFFFFFFFFFFFFFFFFFFFFFFFFFFFFFF68
:10783000FFFFFFFFFFFFFFFFFFFFFFFFFFFFFFFF58
:10784000FFFFFFFFFFFFFFFFFFFFFFFFFFFFFFFF48
:10785000FFFFFFFFFFFFFFFFFFFFFFFFFFFFFFFF38
:10786000FFFFFFFFFFFFFFFFFFFFFFFFFFFFFFFF28
:10787000FFFFFFFFFFFFFFFFFFFFFFFFFFFFFFFF18
:10788000FFFFFFFFFFFFFFFFFFFFFFFFFFFFFFFF08
:10789000FFFFFFFFFFFFFFFFFFFFFFFFFFFFFFFFF8
