:020000040800F2
:10000000E80500200D02000815020008170200088C
:10001000190200081B0200081D0200080000000071
:100020000000000000000000000000001F020008A7
:10003000210200080000000023020008F326000847
:1000400027020008270200082702000827020008EC
:1000500027020008270200082702000827020008DC
:1000600027020008270200082702000827020008CC
:1000700027020008270200082702000827020008BC
:1000800027020008270200082702000827020008AC
:10009000270200082702000827020008270200089C
:1000A0002702000815280008270200082702000878
:1000B000270200082702000827020008270200087C
:1000C000270200082702000827020008270200086C
:1000D000270200082702000827020008270200085C
:1000E000F50200082702000827020008270200087E
:1000F000270200082702000827020008270200083C
:10010000270200082702000827020008270200082B
:10011000A12B000827020008270200082702000878
:10012000270200082702000827020008270200080B
:1001300027020008270200082702000827020008FB
:1001400027020008270200082702000827020008EB
:1001500027020008270200082702000827020008DB
:1001600027020008270200082702000827020008CB
:1001700027020008270200082702000800000000EC
:1001800027020008270200082702000827020008AB
:10019000270200082702000827020008270200089B
:1001A000270200082702000827020008270200088B
:1001B000270200082702000827020008270200087B
:1001C000270200082702000800000000270200089C
:1001D000270200082702000827020008270200085B
:1001E000270200082702000827020008270200084B
:1001F0002702000827020008DFF80CD000F068F89A
:100200000048004739300008E805002006488047CC
:1002100006480047FEE7FEE7FEE7FEE7FEE7FEE7EB
:10022000FEE7FEE7FEE7FEE7C1270008F901000848
:100230002DE9F05F0546002092469B46884606461B
:10024000814640241BE0284641464746224600F0AE
:100250002FF853465A46C01A914110D311461846FA
:10026000224600F016F82D1A67EB01084F46224689
:100270000120002100F00DF817EB00094E41201E6F
:10028000A4F10104DFDC484631462A464346BDE876
:10029000F09F202A04DB203A00FA02F10020704788
:1002A0009140C2F1200320FA03F3194390407047B4
:1002B000202A04DB203A21FA02F00021704721FABB
:1002C00002F3D040C2F12002914008431946704722
:1002D000064C074D06E0E06840F0010394E8070093
:1002E00098471034AC42F6D3FFF78AFFFC88020827
:1002F0001C8902084FF4806010B500F035F84FF407
:10030000006000F031F84FF4804000F02DF8BDE8B7
:1003100010404FF4004000F027B890F83510022943
:1003200003D08021416501207047052180F83510F8
:100330000068016821F001010160002070470000A1
:1003400070B5044600F00EF90546601C02D0044862
:100350000078044400F006F9401BA042FAD370BDB7
:100360000400002070470000044910B50A680242EA
:1003700002D00860FFF7F6FF10BD0000143C0140FA
:100380002DE9F84FDFF89CE100224FF001084FF013
:10039000030B4FF00F0A00BF0B6808FA02F423406A
:1003A000A34271D14D68022D01D0122D0FD1D50875
:1003B0000E69570700EB8505A9462D6AFF0E0AFA5C
:1003C00007FCBE4025EA0C052E43C9F820600F79D2
:1003D000550006680BFA05FC07F0030726EA0C0631
:1003E000AF40374307604E68012E05D0022E03D080
:1003F000112E01D0122E0ED18668CF6826EA0C0687
:10040000AF403743876046680F79A643C7F30017AC
:10041000974037434760C4688E6824EA0C04AE40B6
:100420002643C6604C68E40075D53F4C256845F40A
:1004300080452560246822F00306950704F4804473
:1004400000943A4C2D0F2644D6F80848DFF8E0C057
:100450000AFA05F7604524EA070401D100272EE0D7
:10046000344FB84201D1012729E0334FB84201D1BE
:10047000022724E0314FB84201D103271FE0304F5B
:10048000B84202D104271AE045E02E4FB84201D10C
:10049000052714E02C4FB84201D106270FE02B4F5F
:1004A000B84201D107270AE0294FB84201D10827F5
:1004B00005E0284FB84201D1092700E00A27AF40E4
:1004C00027437546C6F808784E68DEF80040F60304
:1004D00024EA030400D51C43124E2C60361D4D68DF
:1004E0003468AD0324EA030400D51C430D4F346087
:1004F00008374D683C68ED0224EA030400D51C432C
:10050000084D3C600C354E682C68B60224EA0304A2
:1005100000D51C432C60521C102AFFF43DAFBDE8EF
:10052000F88F0000003C0140443802400030014098
:10053000000002400004024000080240000C02409B
:10054000001002400014024000180240001C02404B
:1005500000200240002402400AB181617047090472
:10056000FBE700000148806870470000040000209D
:1005700002488168027811448160704704000020BD
:10058000094810B5016841F400710160016841F447
:1005900080710160032000F097F8002000F006F859
:1005A00000F024F8002010BD003C024070B50D4D55
:1005B00004464FF47A700C4A29781268B0FBF1F0C7
:1005C000B2FBF0F000F04EFF48B9102C07D2002229
:1005D0002146501E00F058F800206C6070BD0120CC
:1005E00070BD000004000020100000201F4808B566
:1005F000016841F080510160006800F08050009077
:100600001A48001D016841F480410160006800F44F
:1006100080400090052000F057F800226FF00B009A
:10062000114600F031F800226FF00A00114600F088
:100630002BF800226FF00900114600F025F8002287
:10064000501F114600F020F80022101F114600F044
:100650001BF80022901E114600F016F80022BDE89B
:100660000840501E114600F00FB80000403802400C
:10067000410900F01F028900012001F1E0219040B2
:10068000C1F80001704700000E4BF0B41B680D4626
:10069000C3F30223C3F10706042E00D90426191D53
:1006A000072901D2002300E0DB1E012404FA06F131
:1006B0009C40491E2940641E994014402143F0BCCF
:1006C00001F04CBF0CED00E0064900F0070210B548
:1006D0004FF6FF040868044B204040EA022018430C
:1006E000086010BD0CED00E00000FA051848F8B5F0
:1006F000016841F0805101600068164C00F08050A4
:100700000090206840F480302060FFF72BFF4FF40A
:100710007A76054605E000BFFFF724FF401BB04294
:100720000FD86068C003F7D5206840F4003020601F
:10073000FFF718FF054606E0FFF714FF401BB04225
:1007400001D90320F8BD60688003F5D50020F8BD0D
:1007500040380240007000402DE9F84F0446007810
:10076000DFF824944FF000063746C0070ED0D9F8C2
:10077000001021F40001C9F80010D9F80010626BD4
:100780001143C9F80010606B00B90126FE4D2068C6
:10079000843500030ED5E16B286820F4401008432F
:1007A0002860E06BB0F5801F01D010B102E0012697
:1007B00000E0012720684FF4800BC0020CD5216CAB
:1007C000286820F4400008432860206C584501D177
:1007D000012601E000B901272068C10100D50126EA
:1007E000800666D5E8483830016841F080510160E4
:1007F0000068DFF898A300F080500090DAF800104D
:1008000041F48071CAF80010FFF7ACFE804605E0A5
:10081000FFF7A8FEA0EB080064287DD8DAF80000F6
:10082000C005F5D5DFF8608308F16808D8F8000046
:1008300010F440702AD0218E01F44071814225D0FD
:10084000D8F80010D8F8002021F4407142F480322A
:10085000C8F80020D8F8002022F48032C8F8002020
:10086000C8F80010D8F80000C0070FD0FFF77AFED4
:10087000824607E0FFF776FEA0EB0A0141F28830DE
:100880008142CAD8D8F800008007F3D5206BC0F3A6
:10089000012103297ED0D9F8001021F4F811C9F8FC
:1008A0000010228ED8F80010C2F30B021143C8F8D2
:1008B00000102078C00607D5286820F080702860D6
:1008C0002868A16B084328602188AF488830490414
:1008D00005D5626E016821F4403111430160218821
:1008E000090405D5A26E016821F44021114301607D
:1008F0002168C90305D5E26E016821F44011114356
:1009000001602168890305D5226F016821F4400147
:1009100011430160217800E034E1490605D5626C9D
:10092000016821F00301114301602178090605D512
:10093000A26C016821F00C01114301602188C905F6
:1009400005D5E26C016821F0300111430160218876
:10095000890505D5226D016821F0C00111430160B0
:100960002188490505D5626D016821F44071114364
:1009700001602188090505D5A26D016821F4406157
:10098000114301602188C90407D5E26D016821F493
:10099000405100E05FE0114301602188890405D5E2
:1009A000226E016821F4404111430160216849022F
:1009B00005D5A26F016821F08061114301602168B3
:1009C0004FF0006A890209D5E26F016821F00061E9
:1009D00011430160E16F514500D1012721680A07E9
:1009E00000D50127490305D5626F016821F04071E8
:1009F000114301602168090206D5D4F880200168FE
:100A000021F08051114301602168490106D5D4F8D5
:100A10008420016821F00051114301602068000129
:100A200006D5D4F88810286820F0007008432860A4
:100A30002068C00006D5D4F88C10286820F08060AB
:100A400008432860DFF84891012E0ED02068B0F1ED
:100A5000007F0AD08FE04F4AD9F80030104023F4CD
:100A6000F8120243C9F800201BE7D9F800004E46EF
:100A700020F08060C9F80000FFF774FD804605E0B3
:100A8000FFF770FDA0EB080064287BD830680001F8
:100A9000F6D421783C487C30C90712D0616B81B90B
:100AA000237A62680168D0F800C09201C1F3014165
:100AB00042EA0142CCF3036142EA016141EA037177
:100AC000016021680A0303D5E26BB2F5801F04D0F0
:100AD000C9021AD5216C594517D16368016894F889
:100AE0000CC002689B01C1F3014143EA0141C2F31A
:100AF000027241EA0C6141EA027101602968626A8E
:100B000021F01F01521E114329602168C90110D52F
:100B1000238A62680168D0F800C09201C1F30361C2
:100B200042EA034242EA0162CCF3027142EA0171F5
:100B30000160216889010CD56168228A237B94F8C1
:100B400008C0890141EA024141EA036141EA0C71AE
:100B500001603168B04641F080613160FFF702FD0D
:100B6000064604E0FFF7FEFC801B64280AD8D8F88C
:100B700000000001F6D5E7B3D9F800004E4620F09A
:100B8000805009E07BE0000008380240007000401F
:100B900000380240FFFCFF0FC9F80000FFF7E2FC3D
:100BA000074604E0FFF7DEFCC01B642867D8306806
:100BB000C0438000F6D5216835480A0301D5E26BB1
:100BC0001AB1C9021DD5216CD9B963690168277EA4
:100BD00002689B01C1F3014143EA0143C2F3027180
:100BE00043EA076242EA0171016029686FF0FF037E
:100BF00000E04BE0A26A21F4F85103EB022211431A
:100C000029602168890212D5E16F51450FD1238CEB
:100C10006269016807689201C1F3036142EA034215
:100C200042EA0162C7F3027142EA01710160217870
:100C3000090716D561690268D0F800C08B01277FCB
:100C4000C2F30362CCF3014143EA014141EA02618C
:100C500041EA077101602868E16A20F440300843E6
:100C60002860306840F080503060FFF77BFC04461D
:100C700008E000BFFFF776FC001B642802D90320C0
:100C8000BDE8F88F3068C0438000F3D40020F7E758
:100C9000883802402DE9F04705000F4663D0444EE6
:100CA000306800F00F00B84209D2306820F00F0021
:100CB00038433060306800F00F00B84253D12868E4
:100CC0003C4C810712D5400703D5206840F4E05022
:100CD00020602878000703D5206840F46040206039
:100CE000A968206820F0F000084320602878C00739
:100CF0002AD0304968680839012810D009680228CC
:100D000010D0890700292EDA216821F00301014360
:100D10002160FFF727FC804641F288390DE0096821
:100D20008903EFE78901EDE7FFF71CFCA0EB080161
:100D3000494502D90320BDE8F0876868216801F0C1
:100D40000C01B1EB800FEFD1306800F00F00B8421A
:100D50000BD9306820F00F0038433060306800F065
:100D60000F00B84201D00120E5E72878400705D5FB
:100D7000E968206820F4E0500843206028780007E4
:100D800006D52869216821F4604141EAC00020604D
:100D900000F03CF82168084AC1F30311515CC840D7
:100DA000064908600020FFF701FC0020C3E70000AF
:100DB000003C024008380240E4880208100000208D
:100DC00001480068704700001000002004490548F1
:100DD00009680068044AC1F38221515CC840704729
:100DE0000838024010000020F48802080449054831
:100DF00009680068044AC1F34231515CC840704739
:100E00000838024010000020F4880208154910B587
:100E10001548096811F00C0213D04110042A0FD0B4
:100E2000082A0ED10F4C241F2268236802F03F02CB
:100E30005B0207D52068C0F38810A0FB010106E023
:100E4000084610BD2168C1F38811A1FB00010023F1
:100E5000FFF7EEF92168C1F30141491C4900B0FBDD
:100E6000F1F010BD083802400024F4002DE9F84FDD
:100E700005004FF000076ED02878DFF82093A9F125
:100E8000040AC007AAF104044CD0D9F8001048465F
:100E9000C1F38101012908D00068C0F38100022854
:100EA0000AD1DAF80000400206D52068800339D55F
:100EB00068680028DFD035E06868B0F5803F0BD067
:100EC00010B1B0F5A02F11D0206820F48030206040
:100ED000206820F4802002E0206840F48030206008
:100EE000686890B1FFF73EFB06460AE0206840F4D0
:100EF00080202060F0E700BFFFF734FB801B6428F0
:100F000072D820688003F7D50CE0FFF72BFB06466C
:100F100005E000BFFFF726FB801B6428F0D820689F
:100F20008003F7D42878800742D5D9F800104846C6
:100F300011F00C0F08D00068C0F3810002280BD11B
:100F4000DAF80000400207D42068800718D5E86866
:100F5000012800D114E01EE1E8680028206817D0BD
:100F600040F001002060FFF7FDFA064605E000BFF3
:100F7000FFF7F8FA801B0228C2D820688007F7D54F
:100F80002869216821F0F80141EAC00020600FE0E3
:100F900020F001002060FFF7E5FA064605E000BFFB
:100FA000FFF7E0FA801B02281ED820688007F7D4DC
:100FB0002878000729D5794869696C30002980466E
:100FC000016812D041F001010160FFF7CBFA06463B
:100FD00005E000BFFFF7C6FA801B022804D8D8F846
:100FE00000008007F6D510E089E021F001010160E2
:100FF000FFF7B8FA064604E0FFF7B4FA801B0228B0
:101000007DD8D8F800008007F6D4287840076BD543
:10101000DFF8888108F13808D8F80000C0000BD448
:10102000D8F8001041F08051C8F80010D8F800003E
:10103000012700F08050009059480168C90512D47A
:101040000168834641F480710160FFF78BFA064620
:1010500005E000BFFFF786FA801B64284FD8DBF855
:101060000000C005F6D54D4EA868683601280AD0A4
:1010700008B1052811D0306820F0010030603068D8
:1010800020F0040002E0306840F001003060A86801
:10109000A0B1FFF767FA83460CE0306840F0040027
:1010A0003060F0E7FFF75EFAA0EB0B0141F2883009
:1010B000814268D830688007F4D50EE0FFF752FA15
:1010C000834607E0FFF74EFAA0EB0B0141F28830B0
:1010D000814258D830688007F4D42FB1D8F8001076
:1010E00021F08051C8F80010A869E0B3D9F80010C9
:1010F000C1F3810102294ED00228206800E042E0BD
:1011000020F08070206003D0FFF72CFA05463DE008
:10111000FFF728FA064604E0FFF724FA801B0228AE
:1011200031D820688001F7D4D5E90921DFF874C0EF
:10113000D5E9070695F830304F0895F82C10304364
:101140000CEB074545EA8212104340EA016040EA91
:101150000370CAF80000206840F080702060FFF73C
:1011600001FA054605E014E0FFF7FCF9401B0228F0
:1011700009D820688001F7D50BE000BFFFF7F2F92E
:10118000401B022802D90320BDE8F88F20688001A7
:10119000F4D40020F8E70120F6E700000838024008
:1011A000007000400000FFFF10B5040002D0607A1C
:1011B00010B106E0012010BD00202072204600F092
:1011C0000BF80220607201212068026842F00402DC
:1011D00002606172002010BD08B5006806498842AF
:1011E00008D10648016841F040010160006800F044
:1011F0004000009008BD000000080650343802404E
:101200002DE9F047040005D094F85D000025A562A3
:1012100018B107E00120BDE8F087204684F85C5053
:1012200000F050F8022284F85D204FF4E06320685B
:10123000016821F040010160E068984201D9002175
:1012400001E04FF48051B0F5706F02D0984200D0A9
:10125000A5624FF00109266B2EB9984201D922638D
:1012600001E0C4F83090D4E90468D4E90102278B86
:1012700046EA0806A36A104307F40078304326685C
:10128000D4E907C240EA080040EA0C00CC46042733
:10129000104318433060D4F81880666B606AE268C7
:1012A00007EA1847236830433A431043084358601D
:1012B0002068C16921F40061C161256684F85DC0C0
:1012C0000020A8E710B5006886B00D49884214D107
:1012D0000C48016841F4801101600068022100227D
:1012E00000F480100590032305244FF460708DE80E
:1012F0001F0005486946FFF743F806B010BD00001F
:101300000050014044380240001402402DE9F84FDB
:10131000044690F85C0000269846012817460D46C2
:101320000DD04FF0010A84F85CA0FFF71BF983464B
:1013300094F85D00B146012804D002267FE0022027
:10134000BDE8F88F002D79D0002F77D0A268032157
:10135000A563A78784F85D10C4F86090E787C4F898
:101360004090A4F84490A4F84690B2F5004FC4F819
:101370005090C4F84C9004D12068016841F4804139
:10138000016020680168490603D4016841F040010A
:101390000160E068B0F5E06F17D83CE02068816834
:1013A000890706D535F8021BC160E08F401EE08733
:1013B0000BE0B8F1000F2CD0B8F1FF3F05D0FFF7DC
:1013C000D1F8A0EB0B01414523D2E08F0028E5D1F5
:1013D00024E02068816889070FD5E18F012905D9AC
:1013E00035F8021BC160E08F801E04E015F8011B78
:1013F0000173E08F401EE0870DE0B8F1000F08D0C8
:10140000B8F1FF3F07D0FFF7ADF8A0EB0B01414566
:1014100001D3032613E0E08F0028DAD15A46414673
:10142000204601F0ACF808B120202066A06818B969
:101430002068C16880680090206E00B1012684F8A1
:101440005DA0304684F85C907AE704284FF0E020F5
:10145000016903D021F004010161704741F00401EA
:10146000FAE77047401EB0F1807F10B501D301202C
:1014700010BD4FF0E02460610F21601701F06EF89D
:101480000020A0610721216110BD10B5FFF7E9FF21
:1014900010BD70477047000070B590F83C20012ADD
:1014A0001FD0012280F83C2002680F4C5368A242F2
:1014B000956802D00D4CA24203D14C6823F470030E
:1014C00023430C688968002623F070031C43546092
:1014D00025F0800502682943916080F83C60304621
:1014E00070BD022070BD00000000014000040140FA
:1014F00010B5040003D094F83D0010B107E00120BE
:1015000010BD002084F83C00204600F00DF80220B9
:1015100084F83D002068211D01F082F9012084F843
:101520003D00002010BD000008B500681149884248
:1015300012D11148016841F00101016000680022E8
:10154000012100F0010000901920FFF79DF8BDE88F
:1015500008401920FFF78CB8B0F1804F09D1064838
:10156000001F016841F001010160006800F0010006
:10157000009008BD000001404438024070B50446A8
:1015800090F83C00012817D03A4E012584F83C50D1
:10159000022084F83D0022689068304020F47F40AB
:1015A00090600868502839D00DDC20285BD005DC1D
:1015B00098B3102843D153E0022070BD302855D095
:1015C00040283CD141E0602830D070280CD0B0F5E4
:1015D000805F03D0B0F5005F31D112E02068254A6A
:1015E00070328168114016E04A682068D1E9021320
:1015F00001F07CF921688868304040F0770088600D
:101600001DE04A682068D1E9021301F06FF92068F3
:10161000816841F48041816011E01EE0CA68496838
:10162000206801F099FA2068502106E0CA684968EC
:10163000206801F0A2FA2068602101F060F9002022
:1016400084F83D5084F83C0070BDCA684968206841
:1016500001F082FA20684021EFE720680021ECE7E2
:1016600020681021E9E720682021E6E72068302182
:10167000E3E7000088FFFEFF704770B5044600688E
:1016800000250169C943890715D4C168C943890781
:1016900011D4EA1E02610121217720688069800748
:1016A000204602D0FFF7E8FF04E000F0BDF8204636
:1016B00000F06BF9257720680169C943490717D401
:1016C000C168C943490713D402216FF004020261C3
:1016D00021772068806910F4407F204602D0FFF710
:1016E000CBFF04E000F0A0F8204600F04EF925778B
:1016F00020680169C943090716D4C168C9430907AD
:1017000012D404216FF00802026121772068C069B9
:101710008007204602D0FFF7AFFF04E000F084F816
:10172000204600F032F9257720680169C943C906CF
:1017300017D4C168C943C90613D408216FF0100239
:10174000026121772068C06910F4407F204602D0F2
:10175000FFF792FF04E000F067F8204600F015F96B
:10176000257720680169C943C90708D1C168C94301
:10177000C90704D1891E0161204600F007F92068DD
:101780006FF080050169C943090607D4C168C943E0
:10179000090603D405612046FFF77BFE2068016936
:1017A000C943C90507D4C168C943090603D4056103
:1017B0002046FFF76EFE20680169C943490609D437
:1017C000C168C943490605D46FF040010161204654
:1017D00000F0DDF820680169C94389060BD4C168AF
:1017E000C943890607D46FF0200101612046BDE896
:1017F0007040FFF74FBE70BD00B5006885B0B0F116
:10180000804F0CD10020012304210091022269465F
:10181000CDE90120CDE903030248FEF7B1FD05B093
:1018200000BD000000000240704770B5044690F80B
:101830003C000D4601280ED0012684F83C600220B1
:1018400084F83D000C2A45D007DC5AB1042A1BD08D
:10185000082A78D12CE0022070BD102A4ED0142A1C
:1018600071D15DE0206801F053F82068816941F092
:10187000080181612068816921F00401816120688B
:101880002A698169114311E0206801F075F8206828
:10189000816941F4006181612068816921F480617E
:1018A000816120682969826942EA012181614AE0F7
:1018B000206801F097F82068C16941F00801C16112
:1018C0002068C16921F00401C16120682A69C169E9
:1018D000114311E0206801F0BBF82068C16941F4B0
:1018E0000061C1612068C16921F48061C161206823
:1018F0002969C26942EA0121C16124E0206801F03E
:10190000D3F82068416D41F0080141652068416DC0
:1019100021F00401416520682A69416D114311E0FD
:10192000206801F0EDF82068416D41F400614165E7
:101930002068416D21F48061416520682969426D0C
:1019400042EA01214165002084F83D6084F83C00B2
:1019500070BD10B5040003D094F83D0010B107E04D
:10196000012010BD002084F83C00204600F00CF857
:10197000022084F83D002068211D00F051FF012065
:1019800084F83D00002010BD7047704770477047D5
:101990007047000070B501680446C8690A688B6822
:1019A00010F00F0F5CD003F0010502F490762E4387
:1019B00069D0C60707D0D60505D501260E62E16EAF
:1019C00041F00101E166810708D5D90706D02668F4
:1019D00002213162E16E41F00401E166410708D560
:1019E000D90706D0236804211962E16E41F0020193
:1019F000E16601070AD502F02001294306D02368D9
:101A000008211962E16E41F00801E166E16E0029EA
:101A100032D0800604D5900602D5204601F062F946
:101A2000E06E000703D420688068400625D5204674
:101A300001F04AF92068816849061AD5816821F0C9
:101A400040018160606EA0B12F490165606EFEF7B4
:101A500064FC002810D0606E016DBDE8704008473E
:101A6000830610D593060ED52046BDE8704001F0E0
:101A700039B92046FFF78CFF70BD2046FFF788FF7D
:101A80000020E06670BD03062FD513062DD594F80F
:101A900069002128F6D1B4F8520020B1A068B0F551
:101AA000805F0AD00BE0086820F0800008602068A2
:101AB000016841F04001016070BD206960B1E06CD7
:101AC000411CE16421680078C1F82800B4F8520094
:101AD000401EA4F8520070BDE06C0088C0F30800FE
:101AE0008862E06C801CE064F0E74006F3D55006A5
:101AF000F1D50B682022204623F040030B6084F8C8
:101B0000692000F080F870BDB52C000810B5040005
:101B100003D094F8690010B107E0012010BD002047
:101B200084F86800204600F027F8242084F8690033
:101B30002068016821F001010160204601F00EF9E2
:101B40000128EBD0606A10B1204601F02FF8206820
:101B5000416821F4904141602068816821F02A01A8
:101B600081602068016841F0010101602046BDE804
:101B7000104001F07FB8000070B51E4E00230568CC
:101B800003221D4902241D48B54286B01AD10D68B2
:101B900045F400250D600968029301F400210591C8
:101BA0000821CDE90024CDE903216946FEF7E8FBD1
:101BB000002201213420FEF767FD3420FEF758FD96
:101BC00006B070BD0E4EB542FAD10D6845F48025C1
:101BD0000D6009680725CDE9023201F480210591E5
:101BE0004FF440710495CDE900146946FEF7C8FB37
:101BF000E6E70000004C004040380240000C024084
:101C000000480040704770472DE9F04F674D0129AB
:101C1000FDB004464FF4A0794FF499784FF4007A60
:101C20004FF480774FF4FA7631D0032962D002293D
:101C30007ED000295BD1002000F030FA00214B4615
:101C4000F022084600F000FA5146AA46012250460A
:101C5000FEF782FC0022BB4639462846FEF77CFC94
:101C60000025E9462F464946002032462B18E35C02
:101C70000B54401C9042F9D34D480A236946FFF7A4
:101C800045FB7F1C474505F5FA75ECD92AE0012094
:101C900000F004FA00214A46F023084600F0D4F987
:101CA0005146AA4601225046FEF756FC0022BB468A
:101CB00039462846FEF750FC0025E9462F4649469E
:101CC000002032462B18E35C0B54401C9042F9D3A1
:101CD00037480A236946FFF719FB7F1C474505F57E
:101CE000FA75ECD9012259465046FEF735FC7DB015
:101CF000BDE8F08F032000F0D1F900214A46F0231F
:101D0000084600F0A1F95146AA4601225046FEF7C6
:101D100023FC0022BB4639462846FEF71DFC002561
:101D2000E94637462E46002049463A462B1800E041
:101D30000FE0E35C0B54401C9042F7D31C480A238D
:101D40006946FFF7E3FA761C464505F5FA75EAD9C8
:101D5000C8E7022000F0A2F900214B46F022084615
:101D600000F072F95146AA4601225046FEF7F4FBF4
:101D70000022BB4639462846FEF7EEFB0025E94621
:101D80002F464946002032462B18E35C0B54401C7A
:101D90009042F9D306480A236946FFF7B7FA7F1C39
:101DA000474505F5FA75ECD99CE7000000080240AC
:101DB00020000020012202489102FEF7CDBB000066
:101DC0000008024010B5FFF7F5FF00F023F900F01E
:101DD00005F9012000F08AF94FF47A70FEF7B0FAA5
:101DE000CB2000F083F9392000F09CF92C2000F082
:101DF00099F9002000F096F9342000F093F90220C0
:101E000000F090F9CF2000F071F9002000F08AF97D
:101E1000C12000F087F9302000F084F9E82000F0BC
:101E200065F9852000F07EF9002000F07BF978202C
:101E300000F078F9EA2000F059F9002000F072F97A
:101E4000002000F06FF9ED2000F050F9642000F060
:101E500069F9032000F066F9122000F063F981208F
:101E600000F060F9F72000F041F9202000F05AF965
:101E7000C02000F03BF9232000F054F9C12000F00D
:101E800035F9102000F04EF9C52000F02FF93E2062
:101E900000F048F9282000F045F9C72000F026F9A5
:101EA000862000F03FF9362000F020F9482000F0AD
:101EB00039F93A2000F01AF9552000F033F9B12031
:101EC00000F014F9002000F02DF9182000F02AF994
:101ED000B62000F00BF9082000F024F9822000F071
:101EE00021F9272000F01EF9F22000F0FFF8002071
:101EF00000F018F9262000F0F9F8012000F012F99E
:101F0000E02000F0F3F80F2000F00CF9312000F091
:101F100009F92B2000F006F90C2000F003F90E203F
:101F200000F000F9082000F0FDF84E2000F0FAF86B
:101F3000F12000F0F7F8372000F0F4F8072000F067
:101F4000F1F8102000F0EEF8032000F0EBF80E207E
:101F500000F0E8F8092000F0E5F8002000F0E2F8D1
:101F6000E12000F0C3F8002000F0DCF80E2000F0C3
:101F7000D9F8142000F0D6F8032000F0D3F811208F
:101F800000F0D0F8072000F0CDF8312000F0CAF8BA
:101F9000C12000F0C7F8482000F0C4F8082000F085
:101FA000C1F80F2000F0BEF80C2000F0BBF8312083
:101FB00000F0B8F8362000F0B5F80F2000F0B2F8C5
:101FC000112000F093F87820FEF7BAF9292000F0EC
:101FD0008DF8BDE81040002000F060B870B5012217
:101FE0000B4D940228462146FEF7B6FAC820FEF7AC
:101FF000A7F900222846A110FEF7AEFAC820FEF786
:102000009FF921462846BDE870400122FEF7A4BA98
:102010000008024010B500F08DF900F09DF8BDE811
:102020001040034800224FF48071FEF795BA00007B
:1020300000080240012301B502481A466946FFF72D
:1020400065F908BD200000202DE9F0411C46154629
:102050000E4607462A2000F049F8380A00F062F8D8
:10206000F8B200F05FF8280A00F05CF8E8B200F07F
:1020700059F82B2000F03AF8300A00F053F8F0B28B
:1020800000F050F8200A00F04DF8E0B200F04AF8F5
:10209000BDE8F0412C2000F029B800002DE9F04106
:1020A0000746362000F022F80120FEF749F90E4CD1
:1020B0004FF4A0764FF0F00567B1012F0CD0022F3E
:1020C0000CD0032F04D1E82000F02CF86680258086
:1020D000BDE8F081482002E02820F5E7882000F0E4
:1020E00021F865802680F3E70000002070B50C4DD4
:1020F0004FF480740022064621462846FEF72CFA4B
:10210000002228466100FEF727FA3046FFF792FFCB
:1021100021462846BDE870400122FEF71DBA0000A6
:102120000008024070B50B4C0122064651022046C1
:10213000FEF712FAA515204600222946FEF70CFAF2
:102140003046FFF777FF29462046BDE87040012260
:10215000FEF702BA000802402DE9F04F614887B04F
:10216000016841F010010160016801F01001059162
:10217000016841F004010160016801F0040105916A
:10218000016841F020010160016801F02001059122
:10219000016841F080010160016801F08001059152
:1021A000016841F001010160016801F00101059140
:1021B000016841F002010160016801F0020105912E
:1021C000016841F008010160016801F00801059112
:1021D000016841F04001016000680022DFF808B1A9
:1021E00041F2E81100F0400005905846FEF7B4F9BE
:1021F0004FF481483D4800224146FEF7ADF94FF4C7
:1022000010793B4800224946FEF7A6F94FF4E06AF0
:10221000384800225146FEF79FF9002469461420F1
:102220000294CDE900045846FEF7AAF80125694654
:1022300003266820CDE90005CDE902465846FEF7A1
:102240009FF868036946CDE900042A480294FEF726
:1022500097F84FF48C500090CDE9015469465846E8
:102260000394FEF78DF8244FB00369460294CDE93C
:1022700000075846FEF784F8B0026946CDE900072A
:102280001A480294FEF77CF8CDF800806946CDE943
:10229000015416480394FEF773F8CDF80090694690
:1022A000CDE9015412480394FEF76AF8802069468C
:1022B000CDE900040E480294FEF762F8CDF800A0C4
:1022C000694603960B48CDE90154FEF759F8002200
:1022D00001212820FEF7D8F92820FEF7C9F907B018
:1022E000BDE8F08F30380240001002400004024088
:1022F0000018024000080240000011100849074879
:1023000010B508600846FEF74FFF002805D0BDE86D
:102310001040382103A000F07FBE10BD0008065019
:10232000140000202E2E2F5372632F726E672E63BF
:102330000000000070B5114D4FF4E063104800211B
:102340004FF482746A15C0E9021301610723C0E9E2
:102350000512C16101624162C0E90A130163416370
:10236000C0E90054FEF74CFF002805D0BDE87040DE
:10237000472104A000F050BE70BD00000050014095
:10238000200000202E2E2F5372632F7370692E634E
:10239000000000001948D72230B51749002487B043
:1023A00040F2E733C36080E816008D15C0E904549D
:1023B0008461FFF79DF818B1412111A000F02CFEB7
:1023C0004FF4805003900D4803A9FFF7D7F818B1D8
:1023D00047210BA000F020FE0848694600940194B4
:1023E0000294FFF759F8002803D04F2104A000F011
:1023F00013FE07B030BD0000000001408400002043
:102400002E2E2F5372632F74696D2E63000000000F
:10241000254842F20F7110B5002440F237428EB0C9
:10242000C0E9024104614FF080438461C0E9003299
:10243000FFF75EF818B162211CA000F0EDFD4FF42B
:1024400080500A9018480AA9FFF798F818B1682137
:1024500016A000F0E1FD1448FFF77BFA18B16D21DA
:1024600012A000F0D9FD104807A907940994FFF7BE
:1024700013F818B174210DA000F0CEFD602040F6D5
:10248000C3118DE813000848082269460494FFF739
:10249000CCF918B17D2105A000F0BEFD0248FFF780
:1024A000ABF90EB010BD0000C40000202E2E2F533B
:1024B00072632F74696D2E63000000000E480021C6
:1024C00010B50C4C0C224FF4E1330460C0E901312B
:1024D000C160C0E904128161C16101624162FFF71C
:1024E00015FB002805D0BDE81040442103A000F0F2
:1024F00093BD10BD004C0040040100202E2E2F5330
:1025000072632F75736172742E6300000E48002190
:1025100010B50C4C0C224FF4E1330460C0E90131DA
:10252000C160C0E904128161C16101624162FFF7CB
:10253000EDFA002805D0BDE81040592103A000F0B5
:102540006BBD10BD00480040740100202E2E2F539B
:1025500072632F75736172742E630000090700287F
:102560004FEA116106DA00F00F0000F1E02080F878
:10257000141D704700F1E02080F800147047F8B592
:1025800015460E4604460B464FF4C05100920022F9
:1025900000F019F888B900223346802120460095C2
:1025A00000F061F848B9002233464FF4C06120467C
:1025B000009500F008F8002804D0206E40F02000BC
:1025C00020660320F8BD2DE9F8434FF4C0681D468E
:1025D00017460E46DDF8209004463DE0464505D1FD
:1025E00027B9007B8DF800009DF80000681C33D0EF
:1025F0002DB1FDF7B7FFA0EB0900A8422CD320684E
:10260000416821F0E00141606068B0F5827F0BD144
:10261000A068B0F5004F02D0B0F5806F04D12068FB
:10262000016821F040010160A06AB0F5005F0AD1A5
:1026300020684DF6FF720168114001602068016852
:1026400041F400510160012184F85D10002084F8FC
:102650005C000320BDE8F883206881683140B942FE
:10266000BCD10020F6E72DE9F0411D4616460F4685
:102670000446DDF8188035E0681C33D02DB1FDF735
:1026800071FFA0EB0800A8422CD32068416821F01C
:10269000E00141606068B0F5827F0BD1A068B0F5C1
:1026A000004F02D0B0F5806F04D12068016821F09E
:1026B00040010160A06AB0F5005F0AD120684DF6C4
:1026C000FF720168114001602068016841F4005107
:1026D0000160012184F85D10002084F85C00032073
:1026E000BDE8F081206880683840B042C4D1002045
:1026F000F6E710B5FDF73CFFBDE81040FEF7C5BE9C
:102700002C4870B5B8B0016841F080510160006894
:1027100000F0805036902848016841F44041016043
:1027200000684FF4A021022500F4404036900120BB
:1027300004238205D8240926CDE92A52CDE92401B3
:102740002CA924A881E87800FEF790FB00B1FEE7F1
:10275000FDF7CCFF00B1FEE74FF480524FF4A051DB
:1027600000243394CDE934120F20CDE9310507213F
:1027700031A8FEF78FFA00B1FEE7104814941394C5
:102780001F9400906846FDF7E7FF00B1FEE7FEF7F3
:1027900017FB4FF47A71B0FBF1F0FEF763FE0420F3
:1027A000FEF753FE0022501E1146FDF76DFF38B0B4
:1027B00070BD00004038024000700040000320005F
:1027C000104A30B51048146800210F4B44F47004CF
:1027D0001460083305680D4A0D4C45F0010505608D
:1027E00019600368051D1340074A03600C322C6012
:1027F0000568E305034C25F480250560803C1160E5
:10280000236030BD88ED00E000380240FFFFF6FE97
:10281000103000240148FEF730BF00008400002083
:10282000F0B5274B4FF0804E264D02689842264E59
:10283000264F274C09D0704507D0A84205D0B0429A
:1028400003D0B84201D0A04205D1D1F804C022F093
:1028500070024CEA020298421BD0704519D0A8427F
:1028600017D0B04215D0B84213D0A04211D0194DA4
:10287000A8420ED0184DA8420BD0184DA84208D03F
:10288000174DA84205D0174DA84202D0164DA842B8
:1028900003D1CD6822F440722A434D6922F08002B0
:1028A0002A43026098428A68C2620A68826201D042
:1028B000A04201D10969016301214161F0BD00001D
:1028C000000001400004004000080040000C0040EF
:1028D0000004014000400140004401400048014024
:1028E00000180040001C00400020004042EA032283
:1028F00083680A4323F47F410A43826070478268F9
:1029000022F070020A4342F0070181607047000024
:10291000F0B5026A164B154F22F00102984202628E
:10292000066A4268846926F002068B680D6804EA2C
:10293000070424F0030443EA060345EA040502D031
:102940000C4CA0420BD1CC6822F44077D1E905624F
:1029500023F008031C433E43324324F00403426047
:102960008561496841630362F0BD00008FFFFEFF8F
:102970000000014000040140F0B5026A174B164DFB
:1029800022F0100298420262046A4268836924F0CD
:1029900020048F680E6803EA050323F4407544EAB7
:1029A000071345EA062402D00D4DA8420ED1CD688A
:1029B00023F08003D1E9056722F4406243EA05135E
:1029C00042EA860223F0400342EA870242608461C1
:1029D000496881630362F0BDFF8FFFFE0000014084
:1029E00000040140F0B5026A174B164F22F48072C2
:1029F00098420262056A4368C26925F400758E68D0
:102A000002EA07020C6822F0030745EA062244EABC
:102A1000070402D00D4DA8420ED1CD6822F4006209
:102A2000D1E9056723F4405342EA052243EA06133D
:102A300022F4806243EA07134360C4614968C163BA
:102A40000262F0BD8FFFFEFF000001400004014064
:102A5000F0B5026A124B114F22F480529842026282
:102A6000046A4268C36924F400548E680D6803EA5E
:102A7000070323F4407344EA063443EA052302D0F3
:102A8000084DA84204D14D6922F4804242EA8512E1
:102A90004260C361496801640462F0BDFF8FFFFEBC
:102AA0000000014000040140F0B5026ADFF844C0B4
:102AB00022F480320262056A4268446D25F40035D2
:102AC0000E8960450C4F0B6804EA070445EA064589
:102AD00043EA040302D0094CA04204D14C6922F419
:102AE000803242EA0422426043654968816505629A
:102AF000F0BD0000000001408FFFFEFF0004014018
:102B0000F0B5026ADFF844C022F480120262046A5F
:102B10004268436D24F400140E8960450C4F0D6823
:102B200003EA070344EA065443EA052302D0094DA9
:102B3000A84204D14D6922F4802242EA85224260F3
:102B400043654968C1650462F0BD000000000140B2
:102B5000FF8FFFFE0004014010B5036A046A23F0F2
:102B60000A0324F00104046284690B4324F0F00199
:102B700041EA02118161036210BD10B5036A23F0BE
:102B8000100303628369046A23F4704324F0A004F1
:102B900043EA0232826144EA0111016210BD000081
:102BA0000148FEF7F7BE00000401002090F8241051
:102BB000C90706D00168836A4A6822F400321A43C2
:102BC0004A6090F82410890706D50168C36A4A68EC
:102BD00022F480321A434A6090F82410490706D53F
:102BE0000168036B4A6822F480221A434A6090F815
:102BF0002410090706D50168436B4A6822F4004295
:102C00001A434A6090F82410C90606D50168836B00
:102C10008A6822F480521A438A6090F82410890648
:102C200006D50168C36B8A6822F400521A438A6091
:102C300090F82410490611D50168036C4A6822F403
:102C400080121A434A60016CB1F5801F06D10168F9
:102C5000436C4A6822F4C0021A434A6090F8241078
:102C6000090606D50168826C486820F400201043EC
:102C70004860704738B500250446C566FDF772FC0C
:102C800003462068006800070BD56FF07E40009077
:102C9000002220464FF4001100F08CF908B1032007
:102CA00038BD202084F8690084F8685084F86A00F0
:102CB000002038BD10B5806B0021A0F85A10A0F894
:102CC0005210FEF765FE10BD016820220B6823F448
:102CD00090730B6001688B6823F001038B6080F8B0
:102CE0006A20704710B590F86A10B0F85C2022296D
:102CF000016805D0886940F008008861022010BD95
:102D00008368B3F5805F01D1036973B14B6A416D8C
:102D100013404A1C42650B70B0F85A10491E090452
:102D2000090CA0F85A1008D016E04B6A416D134008
:102D30000B80416D891C4165EEE7016820220B681C
:102D400023F490730B6001688B6823F001038B60A0
:102D500080F86A20FEF756FF002010BD2DE9F047ED
:102D600004468068874B884F2668D4E90415E269D9
:102D70000843D6F800C01021154300222843154609
:102D80000CEA030C814B4CEA000CC6F800C04FF46F
:102D900000492068D4F80CC0466826F4405646EA3C
:102DA0000C0646602668D4F82080A069D6F808C0D2
:102DB00040EA08002CF4306C4CEA000CC6F808C05D
:102DC0002068B8420AD11B6813F0030352D0012BCC
:102DD0007AD0022B76D0032B79D177E06C4EB042BB
:102DE0000AD11B6813F00C036AD0042B6CD0082B9B
:102DF00068D00C2B6BD169E0664EB0420AD11B68DB
:102E000013F030035CD0102B5ED0202B5AD0302B27
:102E10005DD15BE0604EB0420AD11B6813F0C00385
:102E20004ED0402B50D0802B4CD0C02B4FD14DE0FA
:102E30005A4EB0420DD11B6813F4407340D0B3F525
:102E4000807F41D0B3F5007F3CD0B3F5407F3ED1C9
:102E50003CE0534EB0420FD11B6813F4406309D0DD
:102E6000B3F5806F30D0B3F5006F2BD0B3F5406F62
:102E70002DD12BE001212AE04A4EB0420DD11B6832
:102E800013F440531CD0B3F5805F1DD0B3F5005F41
:102E900018D0B3F5405F1AD118E0434EB04216D1B6
:102EA0001B6813F440430BD0B3F5804F0CD04B4557
:102EB00008D0B3F5404F0AD108E005E002E0FFE793
:102EC000002104E0022102E0042100E00821E6697B
:102ED0004E452AD109291FD2DFE801F00508141E4A
:102EE000171E1E1E1A00FDF771FF01E0FDF77EFFA1
:102EF0000146D4F80400490001EB5001B1FBF0F0A9
:102F000082B20AE029496068F6E7FDF77FFFEFE744
:102F100060684FF48031EFE70125216822F00F004F
:102F2000C2F342021043C86028E0092925D2DFE835
:102F300001F005080B24102424241C00FDF746FF93
:102F400009E0FDF753FF06E06168194A02EB510200
:102F50000EE0FDF75BFF0146D4E9002001EB5001D4
:102F6000B1FBF0F080B2D06008E0616809EB51027B
:102F7000B2FBF1F189B2C16000E001252846BDE84D
:102F8000F0870000F369FFEF001001409038024025
:102F90000044004000480040004C00400050004009
:102FA0000014014000780040007C00400048E80127
:102FB0000024F4002DE9F041984617460E460446D9
:102FC000069D1DE0681C1BD02DB1FDF7CBFAA0EBD0
:102FD0000800A84214D32168202000220B6823F4A3
:102FE000D0730B6021688B6823F001038B6084F839
:102FF000690084F86A00032084F86820BDE8F08145
:103000002068C06936EA000004D00020B842D9D058
:103010000020F3E70120F9E7FEE702E008C8121FED
:1030200008C1002AFAD170477047002001E001C1B1
:10303000121F002AFBD17047BFF34F8FBFF36F8F72
:1030400026490020244B0860196841F400311960BA
:10305000BFF34F8FBFF36F8F1F4970310860BFF30D
:103060004F8F081F1D4D43F6FF7410350068C0F3E5
:103070004E31C0F3C90204EA4116104646EA807791
:103080002F60401EFAD2491EF5D2BFF34F8F186849
:1030900040F480301860BFF34F8FBFF36F8FFDF7A0
:1030A0006FFAFFF72DFBFFF757F8FFF72FFAFFF73F
:1030B00041F9FFF76FF9FFF721F9FFF7A9F9FFF7DA
:1030C000FDF9FEF77FFE06480121FEF79DFD41F266
:1030D0008830FDF735F9FEE714ED00E050EF00E031
:1030E000E4300008FFFFFFFFFFFFFFFFFFFFFFFFD0
:1030F000FFFFFFFFFFFFFFFFFFFFFFFFFFFFFFFFE0
:10310000FFFFFFFFFFFFFFFFFFFFFFFFFFFFFFFFCF
:10311000FFFFFFFFFFFFFFFFFFFFFFFFFFFFFFFFBF
:10312000FFFFFFFFFFFFFFFFFFFFFFFFFFFFFFFFAF
:104EF000FFFFFFFFFFFFFFFFFFFF0020002000205C
:104F000000200020002000200020002000200020A1
:104F10000020002000200020002000200020002091
:104F20000020002000200020002000200020002081
:104F30000020002000200020002000200020002071
:104F40000020002000200020002000200020002061
:104F50000020002000200020002000200020002051
:104F600000200020FFFFFFFFFFFFFFFFFFFFFFFF0D
:104F7000FFFFFFFFFFFFFFFFFFFFFFFFFFFFFFFF41
:104F8000FFFFFFFFFFFFFFFFFFFFFFFFFFFFFFFF31
:104F9000FFFFFFFFFFFFFFFFFFFFFFFFFFFFFFFF21
:104FA000FFFFFFFFFFFFFFFFFFFFFFFFFFFFFFFF11
:104FB000FFFFFFFFFFFFFFFFFFFFFFFFFFFFFFFF01
:104FC000FFFFFFFFFFFFFFFFFFFFFFFFFFFFFFFFF1
:104FD000FFFFFFFFFFFFFFFFFFFFFFFFFFFFFFFFE1
:104FE000FFFFFFFFFFFFFFFFFFFFFFFFFFFFFFFFD1
:104FF000FFFFFFFFFFFFFFFFFFFFFFFFFFFFFFFFC1
:10500000FFFFFFFFFFFFFFFFFFFFFFFFFFFFFFFFB0
:10501000FFFFFFFFFFFFFFFFFFFFFFFFFFFFFFFFA0
:10502000FFFFFFFFFFFFFFFFFFFFFFFFFFFFFFFF90
:10503000FFFFFFFFFFFFFFFFFFFFFFFFFFFFFFFF80
:10504000FFFFFFFFFFFFFFFFFFFFFFFFFFFFFFFF70
:10505000FFFFFFFFFFFFFFFFFFFFFFFFFFFFFFFF60
:10506000FFFFFFFFFFFFFFFFFFFFFFFFFFFFFFFF50
:10507000FFFFFFFFFFFFFFFFFFFFFFFFFFFFFFFF40
:10508000FFFFFFFFFFFFFFFFFFFFFFFFFFFFFFFF30
:10509000FFFFFFFFFFFFFFFFFFFFFFFFFFFFFFFF20
:1050A000FFFFFFFFFFFFFFFFFFFFFFFFFFFFFFFF10
:1050B000FFFFFFFFFFFFFFFFFFFFFFFFFFFFFFFF00
:1050C000FFFFFFFFFFFFFFFFFFFFFFFFFFFFFFFFF0
:1050D000FFFFFFFFFFFFFFFFFFFFFFFFFFFFFFFFE0
:1050E000FFFFFFFFFFFFFFFFFFFFFFFFFFFFFFFFD0
:1050F000FFFFFFFFFFFFFFFFFFFFFFFFFFFFFFFFC0
:10510000FFFFFFFFFFFFFFFFFFFFFFFFFFFFFFFFAF
:10511000FFFFFFFFFFFFFFFFFFFFFFFFFFFFFFFF9F
:10512000FFFFFFFFFFFFFFFFFFFFFFFFFFFFFFFF8F
:10513000FFFFFFFFFFFFFFFFFFFFFFFFFFFFFFFF7F
:10514000FFFFFFFFFFFFFFFFFFFFFFFFFFFFFFFF6F
:10515000FFFFFFFFFFFFFFFFFFFFFFFFFFFFFFFF5F
:10516000FFFFFFFFFFFFFFFFFFFFFFFFFFFFFFFF4F
:10517000FFFFFFFFFFFFFFFFFFFF0020FFFFFFFF1D
:10518000FFFFFFFFFFFFFFFFFFFFFFFFFFFFFFFF2F
:10519000FFFFFFFFFFFFFFFFFFFFFFFFFFFFFFFF1F
:1051A000FFFFFFFFFFFFFFFFFFFFFFFFFFFFFFFF0F
:1051B000FFFFFFFFFFFFFFFFFFFFFFFFFFFFFFFFFF
:1051C000FFFFFFFFFFFFFFFFFFFFFFFFFFFFFFFFEF
:1051D000FFFFFFFFFFFFFFFFFFFFFFFFFFFFFFFFDF
:1051E000FFFF0020FFFFFFFFFFFFFFFFFFFFFFFFAD
:1051F000FFFFFFFFFFFFFFFFFFFFFFFFFFFFFFFFBF
:10520000FFFFFFFFFFFFFFFFFFFFFFFFFFFFFFFFAE
:10521000FFFFFFFFFFFFFFFFFFFFFFFFFFFFFFFF9E
:10522000FFFFFFFFFFFFFFFFFFFFFFFFFFFFFFFF8E
:10523000FFFFFFFFFFFFFFFFFFFFFFFFFFFFFFFF7E
:10524000FFFFFFFFFFFFFFFFFFFFFFFFFFFFFFFF6E
:10525000FFFFFFFFFFFFFFFFFFFFFFFFFFFFFFFF5E
:10526000FFFFFFFFFFFFFFFFFFFFFFFFFFFFFFFF4E
:10527000FFFFFFFFFFFFFFFFFFFFFFFFFFFFFFFF3E
:10528000FFFFFFFFFFFFFFFFFFFFFFFFFFFFFFFF2E
:10529000FFFFFFFFFFFFFFFFFFFFFFFFFFFFFFFF1E
:1052A000FFFFFFFFFFFFFFFFFFFFFFFFFFFFFFFF0E
:1052B000FFFFFFFFFFFFFFFFFFFFFFFFFFFFFFFFFE
:1052C000FFFFFFFFFFFFFFFFFFFFFFFFFFFFFFFFEE
:1052D000FFFFFFFFFFFFFFFFFFFFFFFFFFFFFFFFDE
:1052E000FFFFFFFFFFFFFFFFFFFFFFFFFFFFFFFFCE
:1052F000FFFFFFFFFFFFFFFFFFFFFFFFFFFFFFFFBE
:10530000FFFFFFFFFFFFFFFFFFFFFFFFFFFFFFFFAD
:10531000FFFFFFFFFFFFFFFFFFFFFFFFFFFFFFFF9D
:10532000FFFFFFFFFFFFFFFFFFFFFFFFFFFFFFFF8D
:10533000FFFFFFFFFFFFFFFFFFFFFFFFFFFFFFFF7D
:10534000FFFFFFFFFFFFFFFFFFFFFFFFFFFFFFFF6D
:10535000FFFFFFFFFFFFFFFFFFFFFFFFFFFFFFFF5D
:10536000FFFFFFFFFFFFFFFFFFFFFFFFFFFFFFFF4D
:10537000FFFFFFFFFFFFFFFFFFFFFFFFFFFFFFFF3D
:10538000FFFFFFFFFFFFFFFFFFFFFFFFFFFFFFFF2D
:10539000FFFFFFFFFFFFFFFFFFFFFFFFFFFFFFFF1D
:1053A000FFFFFFFFFFFFFFFFFFFFFFFFFFFFFFFF0D
:1053B000FFFFFFFFFFFFFFFFFFFFFFFFFFFFFFFFFD
:1053C000FFFFFFFFFFFFFFFFFFFFFFFFFFFFFFFFED
:1053D000FFFFFFFFFFFFFFFFFFFFFFFFFFFFFFFFDD
:1053E000FFFFFFFFFFFFFFFFFFFFFFFFFFFFFFFFCD
:1053F000FFFFFFFFFFFFFFFFFFFF0020FFFFFFFF9B
:10540000FFFFFFFFFFFFFFFFFFFFFFFFFFFFFFFFAC
:10541000FFFFFFFFFFFFFFFFFFFFFFFFFFFFFFFF9C
:10542000FFFFFFFFFFFFFFFFFFFFFFFFFFFFFFFF8C
:10543000FFFFFFFFFFFFFFFFFFFFFFFFFFFFFFFF7C
:10544000FFFFFFFFFFFFFFFFFFFFFFFFFFFFFFFF6C
:10545000FFFFFFFFFFFFFFFFFFFFFFFFFFFFFFFF5C
:10546000FFFF0020FFFFFFFFFFFFFFFFFFFFFFFF2A
:10547000FFFFFFFFFFFFFFFFFFFFFFFFFFFFFFFF3C
:10548000FFFFFFFFFFFFFFFFFFFFFFFFFFFFFFFF2C
:10549000FFFFFFFFFFFFFFFFFFFFFFFFFFFFFFFF1C
:1054A000FFFFFFFFFFFFFFFFFFFFFFFFFFFFFFFF0C
:1054B000FFFFFFFFFFFFFFFFFFFFFFFFFFFFFFFFFC
:1054C000FFFFFFFFFFFFFFFFFFFFFFFFFFFFFFFFEC
:1054D000FFFFFFFFFFFFFFFFFFFFFFFFFFFFFFFFDC
:1054E000FFFFFFFFFFFFFFFFFFFFFFFFFFFFFFFFCC
:1054F000FFFFFFFFFFFFFFFFFFFFFFFFFFFFFFFFBC
:10550000FFFFFFFFFFFFFFFFFFFFFFFFFFFFFFFFAB
:10551000FFFFFFFFFFFFFFFFFFFFFFFFFFFFFFFF9B
:10552000FFFFFFFFFFFFFFFFFFFFFFFFFFFFFFFF8B
:10553000FFFFFFFFFFFFFFFFFFFFFFFFFFFFFFFF7B
:10554000FFFFFFFFFFFFFFFFFFFFFFFFFFFFFFFF6B
:10555000FFFFFFFFFFFFFFFFFFFFFFFFFFFFFFFF5B
:10556000FFFFFFFFFFFFFFFFFFFFFFFFFFFFFFFF4B
:10557000FFFFFFFFFFFFFFFFFFFFFFFFFFFFFFFF3B
:10558000FFFFFFFFFFFFFFFFFFFFFFFFFFFFFFFF2B
:10559000FFFFFFFFFFFFFFFFFFFFFFFFFFFFFFFF1B
:1055A000FFFFFFFFFFFFFFFFFFFFFFFFFFFFFFFF0B
:1055B000FFFFFFFFFFFFFFFFFFFFFFFFFFFFFFFFFB
:1055C000FFFFFFFFFFFFFFFFFFFFFFFFFFFFFFFFEB
:1055D000FFFFFFFFFFFFFFFFFFFFFFFFFFFFFFFFDB
:1055E000FFFFFFFFFFFFFFFFFFFFFFFFFFFFFFFFCB
:1055F000FFFFFFFFFFFFFFFFFFFFFFFFFFFFFFFFBB
:10560000FFFFFFFFFFFFFFFFFFFFFFFFFFFFFFFFAA
:10561000FFFFFFFFFFFFFFFFFFFFFFFFFFFFFFFF9A
:10562000FFFFFFFFFFFFFFFFFFFFFFFFFFFFFFFF8A
:10563000FFFFFFFFFFFFFFFFFFFFFFFFFFFFFFFF7A
:10564000FFFFFFFFFFFFFFFFFFFFFFFFFFFFFFFF6A
:10565000FFFFFFFFFFFFFFFFFFFFFFFFFFFFFFFF5A
:10566000FFFFFFFFFFFFFFFFFFFFFFFFFFFFFFFF4A
:10567000FFFFFFFFFFFFFFFFFFFF0020FFFFFFFF18
:10568000FFFFFFFFFFFFFFFFFFFFFFFFFFFFFFFF2A
:10569000FFFFFFFFFFFFFFFFFFFFFFFFFFFFFFFF1A
:1056A000FFFFFFFFFFFFFFFFFFFFFFFFFFFFFFFF0A
:1056B000FFFFFFFFFFFFFFFFFFFFFFFFFFFFFFFFFA
:1056C000FFFFFFFFFFFFFFFFFFFFFFFFFFFFFFFFEA
:1056D000FFFFFFFFFFFFFFFFFFFFFFFFFFFFFFFFDA
:1056E000FFFF0020FFFFFFFFFFFFFFFFFFFFFFFFA8
:1056F000FFFFFFFFFFFFFFFFFFFFFFFFFFFFFFFFBA
:10570000FFFFFFFFFFFFFFFFFFFFFFFFFFFFFFFFA9
:10571000FFFFFFFFFFFFFFFFFFFFFFFFFFFFFFFF99
:10572000FFFFFFFFFFFFFFFFFFFFFFFFFFFFFFFF89
:10573000FFFFFFFFFFFFFFFFFFFFFFFFFFFFFFFF79
:10574000FFFFFFFFFFFFFFFFFFFFFFFFFFFFFFFF69
:10575000FFFFFFFFFFFFFFFFFFFFFFFFFFFFFFFF59
:10576000FFFFFFFFFFFFFFFFFFFFFFFFFFFFFFFF49
:10577000FFFFFFFFFFFFFFFFFFFFFFFFFFFFFFFF39
:10578000FFFFFFFFFFFFFFFFFFFFFFFFFFFFFFFF29
:10579000FFFFFFFFFFFFFFFFFFFFFFFFFFFFFFFF19
:1057A000FFFFFFFFFFFFFFFFFFFFFFFFFFFFFFFF09
:1057B000FFFFFFFFFFFFFFFFFFFFFFFFFFFFFFFFF9
:1057C000FFFFFFFFFFFFFFFFFFFFFFFFFFFFFFFFE9
:1057D000FFFFFFFFFFFFFFFFFFFFFFFFFFFFFFFFD9
:1057E000FFFFFFFFFFFFFFFFFFFFFFFFFFFFFFFFC9
:1057F000FFFFFFFFFFFFFFFFFFFFFFFFFFFFFFFFB9
:10580000FFFFFFFFFFFFFFFFFFFFFFFFFFFFFFFFA8
:10581000FFFFFFFFFFFFFFFFFFFFFFFFFFFFFFFF98
:10582000FFFFFFFFFFFFFFFFFFFFFFFFFFFFFFFF88
:10583000FFFFFFFFFFFFFFFFFFFFFFFFFFFFFFFF78
:10584000FFFFFFFFFFFFFFFFFFFFFFFFFFFFFFFF68
:10585000FFFFFFFFFFFFFFFFFFFFFFFFFFFFFFFF58
:10586000FFFFFFFFFFFFFFFFFFFFFFFFFFFFFFFF48
:10587000FFFFFFFFFFFFFFFFFFFFFFFFFFFFFFFF38
:10588000FFFFFFFFFFFFFFFFFFFFFFFFFFFFFFFF28
:10589000FFFFFFFFFFFFFFFFFFFFFFFFFFFFFFFF18
:1058A000FFFFFFFFFFFFFFFFFFFFFFFFFFFFFFFF08
:1058B000FFFFFFFFFFFFFFFFFFFFFFFFFFFFFFFFF8
:1058C000FFFFFFFFFFFFFFFFFFFFFFFFFFFFFFFFE8
:1058D000FFFFFFFFFFFFFFFFFFFFFFFFFFFFFFFFD8
:1058E000FFFFFFFFFFFFFFFFFFFFFFFFFFFFFFFFC8
:1058F000FFFFFFFFFFFFFFFFFFFF0020FFFFFFFF96
:10590000FFFFFFFFFFFFFFFFFFFFFFFFFFFFFFFFA7
:10591000FFFFFFFFFFFFFFFFFFFFFFFFFFFFFFFF97
:10592000FFFFFFFFFFFFFFFFFFFFFFFFFFFFFFFF87
:10593000FFFFFFFFFFFFFFFFFFFFFFFFFFFFFFFF77
:10594000FFFFFFFFFFFFFFFFFFFFFFFFFFFFFFFF67
:10595000FFFFFFFFFFFFFFFFFFFFFFFFFFFFFFFF57
:10596000FFFF0020FFFFFFFFFFFFFFFFFFFFFFFF25
:10597000FFFFFFFFFFFFFFFFFFFFFFFFFFFFFFFF37
:10598000FFFFFFFFFFFFFFFFFFFFFFFFFFFFFFFF27
:10599000FFFFFFFFFFFFFFFFFFFFFFFFFFFFFFFF17
:1059A000FFFFFFFFFFFFFFFFFFFFFFFFFFFFFFFF07
:1059B000FFFFFFFFFFFFFFFFFFFFFFFFFFFFFFFFF7
:1059C000FFFFFFFFFFFFFFFFFFFFFFFFFFFFFFFFE7
:1059D000FFFFFFFFFFFFFFFFFFFFFFFFFFFFFFFFD7
:1059E000FFFFFFFFFFFFFFFFFFFFFFFFFFFFFFFFC7
:1059F000FFFFFFFFFFFFFFFFFFFFFFFFFFFFFFFFB7
:105A0000FFFFFFFFFFFFFFFFFFFFFFFFFFFFFFFFA6
:105A1000FFFFFFFFFFFFFFFFFFFFFFFFFFFFFFFF96
:105A2000FFFFFFFFFFFFFFFFFFFFFFFFFFFFFFFF86
:105A3000FFFFFFFFFFFFFFFFFFFFFFFFFFFFFFFF76
:105A4000FFFFFFFFFFFFFFFFFFFFFFFFFFFFFFFF66
:105A5000FFFFFFFFFFFFFFFFFFFFFFFFFFFFFFFF56
:105A6000FFFFFFFFFFFFFFFFFFFFFFFFFFFFFFFF46
:105A7000FFFFFFFFFFFFFFFFFFFFFFFFFFFFFFFF36
:105A8000FFFFFFFFFFFFFFFFFFFFFFFFFFFFFFFF26
:105A9000FFFFFFFFFFFFFFFFFFFFFFFFFFFFFFFF16
:105AA000FFFFFFFFFFFFFFFFFFFFFFFFFFFFFFFF06
:105AB000FFFFFFFFFFFFFFFFFFFFFFFFFFFFFFFFF6
:105AC000FFFFFFFFFFFFFFFFFFFFFFFFFFFFFFFFE6
:105AD000FFFFFFFFFFFFFFFFFFFFFFFFFFFFFFFFD6
:105AE000FFFFFFFFFFFFFFFFFFFFFFFFFFFFFFFFC6
:105AF000FFFFFFFFFFFFFFFFFFFFFFFFFFFFFFFFB6
:105B0000FFFFFFFFFFFFFFFFFFFFFFFFFFFFFFFFA5
:105B1000FFFFFFFFFFFFFFFFFFFFFFFFFFFFFFFF95
:105B2000FFFFFFFFFFFFFFFFFFFFFFFFFFFFFFFF85
:105B3000FFFFFFFFFFFFFFFFFFFFFFFFFFFFFFFF75
:105B4000FFFFFFFFFFFFFFFFFFFFFFFFFFFFFFFF65
:105B5000FFFFFFFFFFFFFFFFFFFFFFFFFFFFFFFF55
:105B6000FFFFFFFFFFFFFFFFFFFFFFFFFFFFFFFF45
:105B7000FFFFFFFFFFFFFFFFFFFF0020FFFFFFFF13
:105B8000FFFFFFFFFFFFFFFFFFFFFFFFFFFFFFFF25
:105B9000FFFFFFFFFFFFFFFFFFFFFFFFFFFFFFFF15
:105BA000FFFFFFFFFFFFFFFFFFFFFFFFFFFFFFFF05
:105BB000FFFFFFFFFFFFFFFFFFFFFFFFFFFFFFFFF5
:105BC000FFFFFFFFFFFFFFFFFFFFFFFFFFFFFFFFE5
:105BD000FFFFFFFFFFFFFFFFFFFFFFFFFFFFFFFFD5
:105BE000FFFF0020FFFFFFFFFFFFFFFFFFFFFFFFA3
:105BF000FFFFFFFFFFFFFFFFFFFFFFFFFFFFFFFFB5
:105C0000FFFFFFFFFFFFFFFFFFFFFFFFFFFFFFFFA4
:105C1000FFFFFFFFFFFFFFFFFFFFFFFFFFFFFFFF94
:105C2000FFFFFFFFFFFFFFFFFFFFFFFFFFFFFFFF84
:105C3000FFFFFFFFFFFFFFFFFFFFFFFFFFFFFFFF74
:105C4000FFFFFFFFFFFFFFFFFFFFFFFFFFFFFFFF64
:105C5000FFFFFFFFFFFFFFFFFFFFFFFFFFFFFFFF54
:105C6000FFFFFFFFFFFFFFFFFFFFFFFFFFFFFFFF44
:105C7000FFFFFFFFFFFFFFFFFFFFFFFFFFFFFFFF34
:105C8000FFFFFFFFFFFFFFFFFFFFFFFFFFFFFFFF24
:105C9000FFFFFFFFFFFFFFFFFFFFFFFFFFFFFFFF14
:105CA000FFFFFFFFFFFFFFFFFFFFFFFFFFFFFFFF04
:105CB000FFFFFFFFFFFFFFFFFFFFFFFFFFFFFFFFF4
:105CC000FFFFFFFFFFFFFFFFFFFFFFFFFFFFFFFFE4
:105CD000FFFFFFFFFFFFFFFFFFFFFFFFFFFFFFFFD4
:105CE000FFFFFFFFFFFFFFFFFFFFFFFFFFFFFFFFC4
:105CF000FFFFFFFFFFFFFFFFFFFFFFFFFFFFFFFFB4
:105D0000FFFFFFFFFFFFFFFFFFFFFFFFFFFFFFFFA3
:105D1000FFFFFFFFFFFFFFFFFFFFFFFFFFFFFFFF93
:105D2000FFFFFFFFFFFFFFFFFFFFFFFFFFFFFFFF83
:105D3000FFFFFFFFFFFFFFFFFFFFFFFFFFFFFFFF73
:105D4000FFFFFFFFFFFFFFFFFFFFFFFFFFFFFFFF63
:105D5000FFFFFFFFFFFFFFFFFFFFFFFFFFFFFFFF53
:105D6000FFFFFFFFFFFFFFFFFFFFFFFFFFFFFFFF43
:105D7000FFFFFFFFFFFFFFFFFFFFFFFFFFFFFFFF33
:105D8000FFFFFFFFFFFFFFFFFFFFFFFFFFFFFFFF23
:105D9000FFFFFFFFFFFFFFFFFFFFFFFFFFFFFFFF13
:105DA000FFFFFFFFFFFFFFFFFFFFFFFFFFFFFFFF03
:105DB000FFFFFFFFFFFFFFFFFFFFFFFFFFFFFFFFF3
:105DC000FFFFFFFFFFFFFFFFFFFFFFFFFFFFFFFFE3
:105DD000FFFFFFFFFFFFFFFFFFFFFFFFFFFFFFFFD3
:105DE000FFFFFFFFFFFFFFFFFFFFFFFFFFFFFFFFC3
:105DF000FFFFFFFFFFFFFFFFFFFF0020FFFFFFFF91
:105E0000FFFFFFFFFFFFFFFFFFFFFFFFFFFFFFFFA2
:105E1000FFFFFFFFFFFFFFFFFFFFFFFFFFFFFFFF92
:105E2000FFFFFFFFFFFFFFFFFFFFFFFFFFFFFFFF82
:105E3000FFFFFFFFFFFFFFFFFFFFFFFFFFFFFFFF72
:105E4000FFFFFFFFFFFFFFFFFFFFFFFFFFFFFFFF62
:105E5000FFFFFFFFFFFFFFFFFFFFFFFFFFFFFFFF52
:105E6000FFFF0020FFFFFFFFFFFFFFFFFFFFFFFF20
:105E7000FFFFFFFFFFFFFFFFFFFFFFFFFFFFFFFF32
:105E8000FFFFFFFFFFFFFFFFFFFFFFFFFFFFFFFF22
:105E9000FFFFFFFFFFFFFFFFFFFFFFFFFFFFFFFF12
:105EA000FFFFFFFFFFFFFFFFFFFFFFFFFFFFFFFF02
:105EB000FFFFFFFFFFFFFFFFFFFFFFFFFFFFFFFFF2
:105EC000FFFFFFFFFFFFFFFFFFFFFFFFFFFFFFFFE2
:105ED000FFFFFFFFFFFFFFFFFFFFFFFFFFFFFFFFD2
:105EE000FFFFFFFFFFFFFFFFFFFFFFFFFFFFFFFFC2
:105EF000FFFFFFFFFFFFFFFFFFFFFFFFFFFFFFFFB2
:105F0000FFFFFFFFFFFFFFFFFFFFFFFFFFFFFFFFA1
:105F1000FFFFFFFFFFFFFFFFFFFFFFFFFFFFFFFF91
:105F2000FFFFFFFFFFFFFFFFFFFFFFFFFFFFFFFF81
:105F3000FFFFFFFFFFFFFFFFFFFFFFFFFFFFFFFF71
:105F4000FFFFFFFFFFFFFFFFFFFFFFFFFFFFFFFF61
:105F5000FFFFFFFFFFFFFFFFFFFFFFFFFFFFFFFF51
:105F6000FFFFFFFFFFFFFFFFFFFFFFFFFFFFFFFF41
:105F7000FFFFFFFFFFFFFFFFFFFFFFFFFFFFFFFF31
:105F8000FFFFFFFFFFFFFFFFFFFFFFFFFFFFFFFF21
:105F9000FFFFFFFFFFFFFFFFFFFFFFFFFFFFFFFF11
:105FA000FFFFFFFFFFFFFFFFFFFFFFFFFFFFFFFF01
:105FB000FFFFFFFFFFFFFFFFFFFFFFFFFFFFFFFFF1
:105FC000FFFFFFFFFFFFFFFFFFFFFFFFFFFFFFFFE1
:105FD000FFFFFFFFFFFFFFFFFFFFFFFFFFFFFFFFD1
:105FE000FFFFFFFFFFFFFFFFFFFFFFFFFFFFFFFFC1
:105FF000FFFFFFFFFFFFFFFFFFFFFFFFFFFFFFFFB1
:10600000FFFFFFFFFFFFFFFFFFFFFFFFFFFFFFFFA0
:10601000FFFFFFFFFFFFFFFFFFFFFFFFFFFFFFFF90
:10602000FFFFFFFFFFFFFFFFFFFFFFFFFFFFFFFF80
:10603000FFFFFFFFFFFFFFFFFFFFFFFFFFFFFFFF70
:10604000FFFFFFFFFFFFFFFFFFFFFFFFFFFFFFFF60
:10605000FFFFFFFFFFFFFFFFFFFFFFFFFFFFFFFF50
:10606000FFFFFFFFFFFFFFFFFFFFFFFFFFFFFFFF40
:10607000FFFFFFFFFFFFFFFFFFFF0020FFFFFFFF0E
:10608000FFFFFFFFFFFFFFFFFFFFFFFFFFFFFFFF20
:10609000FFFFFFFFFFFFFFFFFFFFFFFFFFFFFFFF10
:1060A000FFFFFFFFFFFFFFFFFFFFFFFFFFFFFFFF00
:1060B000FFFFFFFFFFFFFFFFFFFFFFFFFFFFFFFFF0
:1060C000FFFFFFFFFFFFFFFFFFFFFFFFFFFFFFFFE0
:1060D000FFFFFFFFFFFFFFFFFFFFFFFFFFFFFFFFD0
:1060E000FFFF0020FFFFFFFFFFFFFFFFFFFFFFFF9E
:1060F000FFFFFFFFFFFFFFFFFFFFFFFFFFFFFFFFB0
:10610000FFFFFFFFFFFFFFFFFFFFFFFFFFFFFFFF9F
:10611000FFFFFFFFFFFFFFFFFFFFFFFFFFFFFFFF8F
:10612000FFFFFFFFFFFFFFFFFFFFFFFFFFFFFFFF7F
:10613000FFFFFFFFFFFFFFFFFFFFFFFFFFFFFFFF6F
:10614000FFFFFFFFFFFFFFFFFFFFFFFFFFFFFFFF5F
:10615000FFFFFFFFFFFFFFFFFFFFFFFFFFFFFFFF4F
:10616000FFFFFFFFFFFFFFFFFFFFFFFFFFFFFFFF3F
:10617000FFFFFFFFFFFFFFFFFFFFFFFFFFFFFFFF2F
:10618000FFFFFFFFFFFFFFFFFFFFFFFFFFFFFFFF1F
:10619000FFFFFFFFFFFFFFFFFFFFFFFFFFFFFFFF0F
:1061A000FFFFFFFFFFFFFFFFFFFFFFFFFFFFFFFFFF
:1061B000FFFFFFFFFFFFFFFFFFFFFFFFFFFFFFFFEF
:1061C000FFFFFFFFFFFFFFFFFFFFFFFFFFFFFFFFDF
:1061D000FFFFFFFFFFFFFFFFFFFFFFFFFFFFFFFFCF
:1061E000FFFFFFFFFFFFFFFFFFFFFFFFFFFFFFFFBF
:1061F000FFFFFFFFFFFFFFFFFFFFFFFFFFFFFFFFAF
:10620000FFFFFFFFFFFFFFFFFFFFFFFFFFFFFFFF9E
:10621000FFFFFFFFFFFFFFFFFFFFFFFFFFFFFFFF8E
:10622000FFFFFFFFFFFFFFFFFFFFFFFFFFFFFFFF7E
:10623000FFFFFFFFFFFFFFFFFFFFFFFFFFFFFFFF6E
:10624000FFFFFFFFFFFFFFFFFFFFFFFFFFFFFFFF5E
:10625000FFFFFFFFFFFFFFFFFFFFFFFFFFFFFFFF4E
:10626000FFFFFFFFFFFFFFFFFFFFFFFFFFFFFFFF3E
:10627000FFFFFFFFFFFFFFFFFFFFFFFFFFFFFFFF2E
:10628000FFFFFFFFFFFFFFFFFFFFFFFFFFFFFFFF1E
:10629000FFFFFFFFFFFFFFFFFFFFFFFFFFFFFFFF0E
:1062A000FFFFFFFFFFFFFFFFFFFFFFFFFFFFFFFFFE
:1062B000FFFFFFFFFFFFFFFFFFFFFFFFFFFFFFFFEE
:1062C000FFFFFFFFFFFFFFFFFFFFFFFFFFFFFFFFDE
:1062D000FFFFFFFFFFFFFFFFFFFFFFFFFFFFFFFFCE
:1062E000FFFFFFFFFFFFFFFFFFFFFFFFFFFFFFFFBE
:1062F000FFFFFFFFFFFFFFFFFFFF0020FFFFFFFF8C
:10630000FFFFFFFFFFFFFFFFFFFFFFFFFFFFFFFF9D
:10631000FFFFFFFFFFFFFFFFFFFFFFFFFFFFFFFF8D
:10632000FFFFFFFFFFFFFFFFFFFFFFFFFFFFFFFF7D
:10633000FFFFFFFFFFFFFFFFFFFFFFFFFFFFFFFF6D
:10634000FFFFFFFFFFFFFFFFFFFFFFFFFFFFFFFF5D
:10635000FFFFFFFFFFFFFFFFFFFFFFFFFFFFFFFF4D
:10636000FFFF0020FFFFFFFFFFFFFFFFFFFFFFFF1B
:10637000FFFFFFFFFFFFFFFFFFFFFFFFFFFFFFFF2D
:10638000FFFFFFFFFFFFFFFFFFFFFFFFFFFFFFFF1D
:10639000FFFFFFFFFFFFFFFFFFFFFFFFFFFFFFFF0D
:1063A000FFFFFFFFFFFFFFFFFFFFFFFFFFFFFFFFFD
:1063B000FFFFFFFFFFFFFFFFFFFFFFFFFFFFFFFFED
:1063C000FFFFFFFFFFFFFFFFFFFFFFFFFFFFFFFFDD
:1063D000FFFFFFFFFFFFFFFFFFFFFFFFFFFFFFFFCD
:1063E000FFFFFFFFFFFFFFFFFFFFFFFFFFFFFFFFBD
:1063F000FFFFFFFFFFFFFFFFFFFFFFFFFFFFFFFFAD
:10640000FFFFFFFFFFFFFFFFFFFFFFFFFFFFFFFF9C
:10641000FFFFFFFFFFFFFFFFFFFFFFFFFFFFFFFF8C
:10642000FFFFFFFFFFFFFFFFFFFFFFFFFFFFFFFF7C
:10643000FFFFFFFFFFFFFFFFFFFFFFFFFFFFFFFF6C
:10644000FFFFFFFFFFFFFFFFFFFFFFFFFFFFFFFF5C
:10645000FFFFFFFFFFFFFFFFFFFFFFFFFFFFFFFF4C
:10646000FFFFFFFFFFFFFFFFFFFFFFFFFFFFFFFF3C
:10647000FFFFFFFFFFFFFFFFFFFFFFFFFFFFFFFF2C
:10648000FFFFFFFFFFFFFFFFFFFFFFFFFFFFFFFF1C
:10649000FFFFFFFFFFFFFFFFFFFFFFFFFFFFFFFF0C
:1064A000FFFFFFFFFFFFFFFFFFFFFFFFFFFFFFFFFC
:1064B000FFFFFFFFFFFFFFFFFFFFFFFFFFFFFFFFEC
:1064C000FFFFFFFFFFFFFFFFFFFFFFFFFFFFFFFFDC
:1064D000FFFFFFFFFFFFFFFFFFFFFFFFFFFFFFFFCC
:1064E000FFFFFFFFFFFFFFFFFFFFFFFFFFFFFFFFBC
:1064F000FFFFFFFFFFFFFFFFFFFFFFFFFFFFFFFFAC
:10650000FFFFFFFFFFFFFFFFFFFFFFFFFFFFFFFF9B
:10651000FFFFFFFFFFFFFFFFFFFFFFFFFFFFFFFF8B
:10652000FFFFFFFFFFFFFFFFFFFFFFFFFFFFFFFF7B
:10653000FFFFFFFFFFFFFFFFFFFFFFFFFFFFFFFF6B
:10654000FFFFFFFFFFFFFFFFFFFFFFFFFFFFFFFF5B
:10655000FFFFFFFFFFFFFFFFFFFFFFFFFFFFFFFF4B
:10656000FFFFFFFFFFFFFFFFFFFFFFFFFFFFFFFF3B
:10657000FFFFFFFFFFFFFFFFFFFF0020FFFFFFFF09
:10658000FFFFFFFFFFFFFFFFFFFFFFFFFFFFFFFF1B
:10659000FFFFFFFFFFFFFFFFFFFFFFFFFFFFFFFF0B
:1065A000FFFFFFFFFFFFFFFFFFFFFFFFFFFFFFFFFB
:1065B000FFFFFFFFFFFFFFFFFFFFFFFFFFFFFFFFEB
:1065C000FFFFFFFFFFFFFFFFFFFFFFFFFFFFFFFFDB
:1065D000FFFFFFFFFFFFFFFFFFFFFFFFFFFFFFFFCB
:1065E000FFFF0020FFFFFFFFFFFFFFFFFFFFFFFF99
:1065F000FFFFFFFFFFFFFFFFFFFFFFFFFFFFFFFFAB
:10660000FFFFFFFFFFFFFFFFFFFFFFFFFFFFFFFF9A
:10661000FFFFFFFFFFFFFFFFFFFFFFFFFFFFFFFF8A
:10662000FFFFFFFFFFFFFFFFFFFFFFFFFFFFFFFF7A
:10663000FFFFFFFFFFFFFFFFFFFFFFFFFFFFFFFF6A
:10664000FFFFFFFFFFFFFFFFFFFFFFFFFFFFFFFF5A
:10665000FFFFFFFFFFFFFFFFFFFFFFFFFFFFFFFF4A
:10666000FFFFFFFFFFFFFFFFFFFFFFFFFFFFFFFF3A
:10667000FFFFFFFFFFFFFFFFFFFFFFFFFFFFFFFF2A
:10668000FFFFFFFFFFFFFFFFFFFFFFFFFFFFFFFF1A
:10669000FFFFFFFFFFFFFFFFFFFFFFFFFFFFFFFF0A
:1066A000FFFFFFFFFFFFFFFFFFFFFFFFFFFFFFFFFA
:1066B000FFFFFFFFFFFFFFFFFFFFFFFFFFFFFFFFEA
:1066C000FFFFFFFFFFFFFFFFFFFFFFFFFFFFFFFFDA
:1066D000FFFFFFFFFFFFFFFFFFFFFFFFFFFFFFFFCA
:1066E000FFFFFFFFFFFFFFFFFFFFFFFFFFFFFFFFBA
:1066F000FFFFFFFFFFFFFFFFFFFFFFFFFFFFFFFFAA
:10670000FFFFFFFFFFFFFFFFFFFFFFFFFFFFFFFF99
:10671000FFFFFFFFFFFFFFFFFFFFFFFFFFFFFFFF89
:10672000FFFFFFFFFFFFFFFFFFFFFFFFFFFFFFFF79
:10673000FFFFFFFFFFFFFFFFFFFFFFFFFFFFFFFF69
:10674000FFFFFFFFFFFFFFFFFFFFFFFFFFFFFFFF59
:10675000FFFFFFFFFFFFFFFFFFFFFFFFFFFFFFFF49
:10676000FFFFFFFFFFFFFFFFFFFFFFFFFFFFFFFF39
:10677000FFFFFFFFFFFFFFFFFFFFFFFFFFFFFFFF29
:10678000FFFFFFFFFFFFFFFFFFFFFFFFFFFFFFFF19
:10679000FFFFFFFFFFFFFFFFFFFFFFFFFFFFFFFF09
:1067A000FFFFFFFFFFFFFFFFFFFFFFFFFFFFFFFFF9
:1067B000FFFFFFFFFFFFFFFFFFFFFFFFFFFFFFFFE9
:1067C000FFFFFFFFFFFFFFFFFFFFFFFFFFFFFFFFD9
:1067D000FFFFFFFFFFFFFFFFFFFFFFFFFFFFFFFFC9
:1067E000FFFFFFFFFFFFFFFFFFFFFFFFFFFFFFFFB9
:1067F000FFFFFFFFFFFFFFFFFFFF0020FFFFFFFF87
:10680000FFFFFFFFFFFFFFFFFFFFFFFFFFFFFFFF98
:10681000FFFFFFFFFFFFFFFFFFFFFFFFFFFFFFFF88
:10682000FFFFFFFFFFFFFFFFFFFFFFFFFFFFFFFF78
:10683000FFFFFFFFFFFFFFFFFFFFFFFFFFFFFFFF68
:10684000FFFFFFFFFFFFFFFFFFFFFFFFFFFFFFFF58
:10685000FFFFFFFFFFFFFFFFFFFFFFFFFFFFFFFF48
:10686000FFFF0020FFFFFFFFFFFFFFFFFFFFFFFF16
:10687000FFFFFFFFFFFFFFFFFFFFFFFFFFFFFFFF28
:10688000FFFFFFFFFFFFFFFFFFFFFFFFFFFFFFFF18
:10689000FFFFFFFFFFFFFFFFFFFFFFFFFFFFFFFF08
:1068A000FFFFFFFFFFFFFFFFFFFFFFFFFFFFFFFFF8
:1068B000FFFFFFFFFFFFFFFFFFFFFFFFFFFFFFFFE8
:1068C000FFFFFFFFFFFFFFFFFFFFFFFFFFFFFFFFD8
:1068D000FFFFFFFFFFFFFFFFFFFFFFFFFFFFFFFFC8
:1068E000FFFFFFFFFFFFFFFFFFFFFFFFFFFFFFFFB8
:1068F000FFFFFFFFFFFFFFFFFFFFFFFFFFFFFFFFA8
:10690000FFFFFFFFFFFFFFFFFFFFFFFFFFFFFFFF97
:10691000FFFFFFFFFFFFFFFFFFFFFFFFFFFFFFFF87
:10692000FFFFFFFFFFFFFFFFFFFFFFFFFFFFFFFF77
:10693000FFFFFFFFFFFFFFFFFFFFFFFFFFFFFFFF67
:10694000FFFFFFFFFFFFFFFFFFFFFFFFFFFFFFFF57
:10695000FFFFFFFFFFFFFFFFFFFFFFFFFFFFFFFF47
:10696000FFFFFFFFFFFFFFFFFFFFFFFFFFFFFFFF37
:10697000FFFFFFFFFFFFFFFFFFFFFFFFFFFFFFFF27
:10698000FFFFFFFFFFFFFFFFFFFFFFFFFFFFFFFF17
:10699000FFFFFFFFFFFFFFFFFFFFFFFFFFFFFFFF07
:1069A000FFFFFFFFFFFFFFFFFFFFFFFFFFFFFFFFF7
:1069B000FFFFFFFFFFFFFFFFFFFFFFFFFFFFFFFFE7
:1069C000FFFFFFFFFFFFFFFFFFFFFFFFFFFFFFFFD7
:1069D000FFFFFFFFFFFFFFFFFFFFFFFFFFFFFFFFC7
:1069E000FFFFFFFFFFFFFFFFFFFFFFFFFFFFFFFFB7
:1069F000FFFFFFFFFFFFFFFFFFFFFFFFFFFFFFFFA7
:106A0000FFFFFFFFFFFFFFFFFFFFFFFFFFFFFFFF96
:106A1000FFFFFFFFFFFFFFFFFFFFFFFFFFFFFFFF86
:106A2000FFFFFFFFFFFFFFFFFFFFFFFFFFFFFFFF76
:106A3000FFFFFFFFFFFFFFFFFFFFFFFFFFFFFFFF66
:106A4000FFFFFFFFFFFFFFFFFFFFFFFFFFFFFFFF56
:106A5000FFFFFFFFFFFFFFFFFFFFFFFFFFFFFFFF46
:106A6000FFFFFFFFFFFFFFFFFFFFFFFFFFFFFFFF36
:106A7000FFFFFFFFFFFFFFFFFFFF0020FFFFFFFF04
:106A8000FFFFFFFFFFFFFFFFFFFFFFFFFFFFFFFF16
:106A9000FFFFFFFFFFFFFFFFFFFFFFFFFFFFFFFF06
:106AA000FFFFFFFFFFFFFFFFFFFFFFFFFFFFFFFFF6
:106AB000FFFFFFFFFFFFFFFFFFFFFFFFFFFFFFFFE6
:106AC000FFFFFFFFFFFFFFFFFFFFFFFFFFFFFFFFD6
:106AD000FFFFFFFFFFFFFFFFFFFFFFFFFFFFFFFFC6
:106AE000FFFF0020FFFFFFFFFFFFFFFFFFFFFFFF94
:106AF000FFFFFFFFFFFFFFFFFFFFFFFFFFFFFFFFA6
:106B0000FFFFFFFFFFFFFFFFFFFFFFFFFFFFFFFF95
:106B1000FFFFFFFFFFFFFFFFFFFFFFFFFFFFFFFF85
:106B2000FFFFFFFFFFFFFFFFFFFFFFFFFFFFFFFF75
:106B3000FFFFFFFFFFFFFFFFFFFFFFFFFFFFFFFF65
:106B4000FFFFFFFFFFFFFFFFFFFFFFFFFFFFFFFF55
:106B5000FFFFFFFFFFFFFFFFFFFFFFFFFFFFFFFF45
:106B6000FFFFFFFFFFFFFFFFFFFFFFFFFFFFFFFF35
:106B7000FFFFFFFFFFFFFFFFFFFFFFFFFFFFFFFF25
:106B8000FFFFFFFFFFFFFFFFFFFFFFFFFFFFFFFF15
:106B9000FFFFFFFFFFFFFFFFFFFFFFFFFFFFFFFF05
:106BA000FFFFFFFFFFFFFFFFFFFFFFFFFFFFFFFFF5
:106BB000FFFFFFFFFFFFFFFFFFFFFFFFFFFFFFFFE5
:106BC000FFFFFFFFFFFFFFFFFFFFFFFFFFFFFFFFD5
:106BD000FFFFFFFFFFFFFFFFFFFFFFFFFFFFFFFFC5
:106BE000FFFFFFFFFFFFFFFFFFFFFFFFFFFFFFFFB5
:106BF000FFFFFFFFFFFFFFFFFFFFFFFFFFFFFFFFA5
:106C0000FFFFFFFFFFFFFFFFFFFFFFFFFFFFFFFF94
:106C1000FFFFFFFFFFFFFFFFFFFFFFFFFFFFFFFF84
:106C2000FFFFFFFFFFFFFFFFFFFFFFFFFFFFFFFF74
:106C3000FFFFFFFFFFFFFFFFFFFFFFFFFFFFFFFF64
:106C4000FFFFFFFFFFFFFFFFFFFFFFFFFFFFFFFF54
:106C5000FFFFFFFFFFFFFFFFFFFFFFFFFFFFFFFF44
:106C6000FFFFFFFFFFFFFFFFFFFFFFFFFFFFFFFF34
:106C7000FFFFFFFFFFFFFFFFFFFFFFFFFFFFFFFF24
:106C8000FFFFFFFFFFFFFFFFFFFFFFFFFFFFFFFF14
:106C9000FFFFFFFFFFFFFFFFFFFFFFFFFFFFFFFF04
:106CA000FFFFFFFFFFFFFFFFFFFFFFFFFFFFFFFFF4
:106CB000FFFFFFFFFFFFFFFFFFFFFFFFFFFFFFFFE4
:106CC000FFFFFFFFFFFFFFFFFFFFFFFFFFFFFFFFD4
:106CD000FFFFFFFFFFFFFFFFFFFFFFFFFFFFFFFFC4
:106CE000FFFFFFFFFFFFFFFFFFFFFFFFFFFFFFFFB4
:106CF000FFFFFFFFFFFFFFFFFFFF0020FFFFFFFF82
:106D0000FFFFFFFFFFFFFFFFFFFFFFFFFFFFFFFF93
:106D1000FFFFFFFFFFFFFFFFFFFFFFFFFFFFFFFF83
:106D2000FFFFFFFFFFFFFFFFFFFFFFFFFFFFFFFF73
:106D3000FFFFFFFFFFFFFFFFFFFFFFFFFFFFFFFF63
:106D4000FFFFFFFFFFFFFFFFFFFFFFFFFFFFFFFF53
:106D5000FFFFFFFFFFFFFFFFFFFFFFFFFFFFFFFF43
:106D6000FFFF0020FFFFFFFFFFFFFFFFFFFFFFFF11
:106D7000FFFFFFFFFFFFFFFFFFFFFFFFFFFFFFFF23
:106D8000FFFFFFFFFFFFFFFFFFFFFFFFFFFFFFFF13
:106D9000FFFFFFFFFFFFFFFFFFFFFFFFFFFFFFFF03
:106DA000FFFFFFFFFFFFFFFFFFFFFFFFFFFFFFFFF3
:106DB000FFFFFFFFFFFFFFFFFFFFFFFFFFFFFFFFE3
:106DC000FFFFFFFFFFFFFFFFFFFFFFFFFFFFFFFFD3
:106DD000FFFFFFFFFFFFFFFFFFFFFFFFFFFFFFFFC3
:106DE000FFFFFFFFFFFFFFFFFFFFFFFFFFFFFFFFB3
:106DF000FFFFFFFFFFFFFFFFFFFFFFFFFFFFFFFFA3
:106E0000FFFFFFFFFFFFFFFFFFFFFFFFFFFFFFFF92
:106E1000FFFFFFFFFFFFFFFFFFFFFFFFFFFFFFFF82
:106E2000FFFFFFFFFFFFFFFFFFFFFFFFFFFFFFFF72
:106E3000FFFFFFFFFFFFFFFFFFFFFFFFFFFFFFFF62
:106E4000FFFFFFFFFFFFFFFFFFFFFFFFFFFFFFFF52
:106E5000FFFFFFFFFFFFFFFFFFFFFFFFFFFFFFFF42
:106E6000FFFFFFFFFFFFFFFFFFFFFFFFFFFFFFFF32
:106E7000FFFFFFFFFFFFFFFFFFFFFFFFFFFFFFFF22
:106E8000FFFFFFFFFFFFFFFFFFFFFFFFFFFFFFFF12
:106E9000FFFFFFFFFFFFFFFFFFFFFFFFFFFFFFFF02
:106EA000FFFFFFFFFFFFFFFFFFFFFFFFFFFFFFFFF2
:106EB000FFFFFFFFFFFFFFFFFFFFFFFFFFFFFFFFE2
:106EC000FFFFFFFFFFFFFFFFFFFFFFFFFFFFFFFFD2
:106ED000FFFFFFFFFFFFFFFFFFFFFFFFFFFFFFFFC2
:106EE000FFFFFFFFFFFFFFFFFFFFFFFFFFFFFFFFB2
:106EF000FFFFFFFFFFFFFFFFFFFFFFFFFFFFFFFFA2
:106F0000FFFFFFFFFFFFFFFFFFFFFFFFFFFFFFFF91
:106F1000FFFFFFFFFFFFFFFFFFFFFFFFFFFFFFFF81
:106F2000FFFFFFFFFFFFFFFFFFFFFFFFFFFFFFFF71
:106F3000FFFFFFFFFFFFFFFFFFFFFFFFFFFFFFFF61
:106F4000FFFFFFFFFFFFFFFFFFFFFFFFFFFFFFFF51
:106F5000FFFFFFFFFFFFFFFFFFFFFFFFFFFFFFFF41
:106F6000FFFFFFFFFFFFFFFFFFFFFFFFFFFFFFFF31
:106F7000FFFFFFFFFFFFFFFFFFFF0020FFFFFFFFFF
:106F8000FFFFFFFFFFFFFFFFFFFFFFFFFFFFFFFF11
:106F9000FFFFFFFFFFFFFFFFFFFFFFFFFFFFFFFF01
:106FA000FFFFFFFFFFFFFFFFFFFFFFFFFFFFFFFFF1
:106FB000FFFFFFFFFFFFFFFFFFFFFFFFFFFFFFFFE1
:106FC000FFFFFFFFFFFFFFFFFFFFFFFFFFFFFFFFD1
:106FD000FFFFFFFFFFFFFFFFFFFFFFFFFFFFFFFFC1
:106FE000FFFF0020FFFFFFFFFFFFFFFFFFFFFFFF8F
:106FF000FFFFFFFFFFFFFFFFFFFFFFFFFFFFFFFFA1
:10700000FFFFFFFFFFFFFFFFFFFFFFFFFFFFFFFF90
:10701000FFFFFFFFFFFFFFFFFFFFFFFFFFFFFFFF80
:10702000FFFFFFFFFFFFFFFFFFFFFFFFFFFFFFFF70
:10703000FFFFFFFFFFFFFFFFFFFFFFFFFFFFFFFF60
:10704000FFFFFFFFFFFFFFFFFFFFFFFFFFFFFFFF50
:10705000FFFFFFFFFFFFFFFFFFFFFFFFFFFFFFFF40
:10706000FFFFFFFFFFFFFFFFFFFFFFFFFFFFFFFF30
:10707000FFFFFFFFFFFFFFFFFFFFFFFFFFFFFFFF20
:10708000FFFFFFFFFFFFFFFFFFFFFFFFFFFFFFFF10
:10709000FFFFFFFFFFFFFFFFFFFFFFFFFFFFFFFF00
:1070A000FFFFFFFFFFFFFFFFFFFFFFFFFFFFFFFFF0
:1070B000FFFFFFFFFFFFFFFFFFFFFFFFFFFFFFFFE0
:1070C000FFFFFFFFFFFFFFFFFFFFFFFFFFFFFFFFD0
:1070D000FFFFFFFFFFFFFFFFFFFFFFFFFFFFFFFFC0
:1070E000FFFFFFFFFFFFFFFFFFFFFFFFFFFFFFFFB0
:1070F000FFFFFFFFFFFFFFFFFFFFFFFFFFFFFFFFA0
:10710000FFFFFFFFFFFFFFFFFFFFFFFFFFFFFFFF8F
:10711000FFFFFFFFFFFFFFFFFFFFFFFFFFFFFFFF7F
:10712000FFFFFFFFFFFFFFFFFFFFFFFFFFFFFFFF6F
:10713000FFFFFFFFFFFFFFFFFFFFFFFFFFFFFFFF5F
:10714000FFFFFFFFFFFFFFFFFFFFFFFFFFFFFFFF4F
:10715000FFFFFFFFFFFFFFFFFFFFFFFFFFFFFFFF3F
:10716000FFFFFFFFFFFFFFFFFFFFFFFFFFFFFFFF2F
:10717000FFFFFFFFFFFFFFFFFFFFFFFFFFFFFFFF1F
:10718000FFFFFFFFFFFFFFFFFFFFFFFFFFFFFFFF0F
:10719000FFFFFFFFFFFFFFFFFFFFFFFFFFFFFFFFFF
:1071A000FFFFFFFFFFFFFFFFFFFFFFFFFFFFFFFFEF
:1071B000FFFFFFFFFFFFFFFFFFFFFFFFFFFFFFFFDF
:1071C000FFFFFFFFFFFFFFFFFFFFFFFFFFFFFFFFCF
:1071D000FFFFFFFFFFFFFFFFFFFFFFFFFFFFFFFFBF
:1071E000FFFFFFFFFFFFFFFFFFFFFFFFFFFFFFFFAF
:1071F000FFFFFFFFFFFFFFFFFFFF0020FFFFFFFF7D
:10720000FFFFFFFFFFFFFFFFFFFFFFFFFFFFFFFF8E
:10721000FFFFFFFFFFFFFFFFFFFFFFFFFFFFFFFF7E
:10722000FFFFFFFFFFFFFFFFFFFFFFFFFFFFFFFF6E
:10723000FFFFFFFFFFFFFFFFFFFFFFFFFFFFFFFF5E
:10724000FFFFFFFFFFFFFFFFFFFFFFFFFFFFFFFF4E
:10725000FFFFFFFFFFFFFFFFFFFFFFFFFFFFFFFF3E
:10726000FFFF0020FFFFFFFFFFFFFFFFFFFFFFFF0C
:10727000FFFFFFFFFFFFFFFFFFFFFFFFFFFFFFFF1E
:10728000FFFFFFFFFFFFFFFFFFFFFFFFFFFFFFFF0E
:10729000FFFFFFFFFFFFFFFFFFFFFFFFFFFFFFFFFE
:1072A000FFFFFFFFFFFFFFFFFFFFFFFFFFFFFFFFEE
:1072B000FFFFFFFFFFFFFFFFFFFFFFFFFFFFFFFFDE
:1072C000FFFFFFFFFFFFFFFFFFFFFFFFFFFFFFFFCE
:1072D000FFFFFFFFFFFFFFFFFFFFFFFFFFFFFFFFBE
:1072E000FFFFFFFFFFFFFFFFFFFFFFFFFFFFFFFFAE
:1072F000FFFFFFFFFFFFFFFFFFFFFFFFFFFFFFFF9E
:10730000FFFFFFFFFFFFFFFFFFFFFFFFFFFFFFFF8D
:10731000FFFFFFFFFFFFFFFFFFFFFFFFFFFFFFFF7D
:10732000FFFFFFFFFFFFFFFFFFFFFFFFFFFFFFFF6D
:10733000FFFFFFFFFFFFFFFFFFFFFFFFFFFFFFFF5D
:10734000FFFFFFFFFFFFFFFFFFFFFFFFFFFFFFFF4D
:10735000FFFFFFFFFFFFFFFFFFFFFFFFFFFFFFFF3D
:10736000FFFFFFFFFFFFFFFFFFFFFFFFFFFFFFFF2D
:10737000FFFFFFFFFFFFFFFFFFFFFFFFFFFFFFFF1D
:10738000FFFFFFFFFFFFFFFFFFFFFFFFFFFFFFFF0D
:10739000FFFFFFFFFFFFFFFFFFFFFFFFFFFFFFFFFD
:1073A000FFFFFFFFFFFFFFFFFFFFFFFFFFFFFFFFED
:1073B000FFFFFFFFFFFFFFFFFFFFFFFFFFFFFFFFDD
:1073C000FFFFFFFFFFFFFFFFFFFFFFFFFFFFFFFFCD
:1073D000FFFFFFFFFFFFFFFFFFFFFFFFFFFFFFFFBD
:1073E000FFFFFFFFFFFFFFFFFFFFFFFFFFFFFFFFAD
:1073F000FFFFFFFFFFFFFFFFFFFFFFFFFFFFFFFF9D
:10740000FFFFFFFFFFFFFFFFFFFFFFFFFFFFFFFF8C
:10741000FFFFFFFFFFFFFFFFFFFFFFFFFFFFFFFF7C
:10742000FFFFFFFFFFFFFFFFFFFFFFFFFFFFFFFF6C
:10743000FFFFFFFFFFFFFFFFFFFFFFFFFFFFFFFF5C
:10744000FFFFFFFFFFFFFFFFFFFFFFFFFFFFFFFF4C
:10745000FFFFFFFFFFFFFFFFFFFFFFFFFFFFFFFF3C
:10746000FFFFFFFFFFFFFFFFFFFFFFFFFFFFFFFF2C
:10747000FFFFFFFFFFFFFFFFFFFF0020FFFFFFFFFA
:10748000FFFFFFFFFFFFFFFFFFFFFFFFFFFFFFFF0C
:10749000FFFFFFFFFFFFFFFFFFFFFFFFFFFFFFFFFC
:1074A000FFFFFFFFFFFFFFFFFFFFFFFFFFFFFFFFEC
:1074B000FFFFFFFFFFFFFFFFFFFFFFFFFFFFFFFFDC
:1074C000FFFFFFFFFFFFFFFFFFFFFFFFFFFFFFFFCC
:1074D000FFFFFFFFFFFFFFFFFFFFFFFFFFFFFFFFBC
:1074E000FFFF0020FFFFFFFFFFFFFFFFFFFFFFFF8A
:1074F000FFFFFFFFFFFFFFFFFFFFFFFFFFFFFFFF9C
:10750000FFFFFFFFFFFFFFFFFFFFFFFFFFFFFFFF8B
:10751000FFFFFFFFFFFFFFFFFFFFFFFFFFFFFFFF7B
:10752000FFFFFFFFFFFFFFFFFFFFFFFFFFFFFFFF6B
:10753000FFFFFFFFFFFFFFFFFFFFFFFFFFFFFFFF5B
:10754000FFFFFFFFFFFFFFFFFFFFFFFFFFFFFFFF4B
:10755000FFFFFFFFFFFFFFFFFFFFFFFFFFFFFFFF3B
:10756000FFFFFFFFFFFFFFFFFFFFFFFFFFFFFFFF2B
:10757000FFFFFFFFFFFFFFFFFFFFFFFFFFFFFFFF1B
:10758000FFFFFFFFFFFFFFFFFFFFFFFFFFFFFFFF0B
:10759000FFFFFFFFFFFFFFFFFFFFFFFFFFFFFFFFFB
:1075A000FFFFFFFFFFFFFFFFFFFFFFFFFFFFFFFFEB
:1075B000FFFFFFFFFFFFFFFFFFFFFFFFFFFFFFFFDB
:1075C000FFFFFFFFFFFFFFFFFFFFFFFFFFFFFFFFCB
:1075D000FFFFFFFFFFFFFFFFFFFFFFFFFFFFFFFFBB
:1075E000FFFFFFFFFFFFFFFFFFFFFFFFFFFFFFFFAB
:1075F000FFFFFFFFFFFFFFFFFFFFFFFFFFFFFFFF9B
:10760000FFFFFFFFFFFFFFFFFFFFFFFFFFFFFFFF8A
:10761000FFFFFFFFFFFFFFFFFFFFFFFFFFFFFFFF7A
:10762000FFFFFFFFFFFFFFFFFFFFFFFFFFFFFFFF6A
:10763000FFFFFFFFFFFFFFFFFFFFFFFFFFFFFFFF5A
:10764000FFFFFFFFFFFFFFFFFFFFFFFFFFFFFFFF4A
:10765000FFFFFFFFFFFFFFFFFFFFFFFFFFFFFFFF3A
:10766000FFFFFFFFFFFFFFFFFFFFFFFFFFFFFFFF2A
:10767000FFFFFFFFFFFFFFFFFFFFFFFFFFFFFFFF1A
:10768000FFFFFFFFFFFFFFFFFFFFFFFFFFFFFFFF0A
:10769000FFFFFFFFFFFFFFFFFFFFFFFFFFFFFFFFFA
:1076A000FFFFFFFFFFFFFFFFFFFFFFFFFFFFFFFFEA
:1076B000FFFFFFFFFFFFFFFFFFFFFFFFFFFFFFFFDA
:1076C000FFFFFFFFFFFFFFFFFFFFFFFFFFFFFFFFCA
:1076D000FFFFFFFFFFFFFFFFFFFFFFFFFFFFFFFFBA
:1076E000FFFFFFFFFFFFFFFFFFFFFFFFFFFFFFFFAA
:1076F000FFFFFFFFFFFFFFFFFFFF0020FFFFFFFF78
:10770000FFFFFFFFFFFFFFFFFFFFFFFFFFFFFFFF89
:10771000FFFFFFFFFFFFFFFFFFFFFFFFFFFFFFFF79
:10772000FFFFFFFFFFFFFFFFFFFFFFFFFFFFFFFF69
:10773000FFFFFFFFFFFFFFFFFFFFFFFFFFFFFFFF59
:10774000FFFFFFFFFFFFFFFFFFFFFFFFFFFFFFFF49
:10775000FFFFFFFFFFFFFFFFFFFFFFFFFFFFFFFF39
:10776000FFFF0020FFFFFFFFFFFFFFFFFFFFFFFF07
:10777000FFFFFFFFFFFFFFFFFFFFFFFFFFFFFFFF19
:10778000FFFFFFFFFFFFFFFFFFFFFFFFFFFFFFFF09
:10779000FFFFFFFFFFFFFFFFFFFFFFFFFFFFFFFFF9
:1077A000FFFFFFFFFFFFFFFFFFFFFFFFFFFFFFFFE9
:1077B000FFFFFFFFFFFFFFFFFFFFFFFFFFFFFFFFD9
:1077C000FFFFFFFFFFFFFFFFFFFFFFFFFFFFFFFFC9
:1077D000FFFFFFFFFFFFFFFFFFFFFFFFFFFFFFFFB9
:1077E000FFFFFFFFFFFFFFFFFFFFFFFFFFFFFFFFA9
:1077F000FFFFFFFFFFFFFFFFFFFFFFFFFFFFFFFF99
:10780000FFFFFFFFFFFFFFFFFFFFFFFFFFFFFFFF88
:10781000FFFFFFFFFFFFFFFFFFFFFFFFFFFFFFFF78
:10782000FFFFFFFFFFFFFFFFFFFFFFFFFFFFFFFF68
:10783000FFFFFFFFFFFFFFFFFFFFFFFFFFFFFFFF58
:10784000FFFFFFFFFFFFFFFFFFFFFFFFFFFFFFFF48
:10785000FFFFFFFFFFFFFFFFFFFFFFFFFFFFFFFF38
:10786000FFFFFFFFFFFFFFFFFFFFFFFFFFFFFFFF28
:10787000FFFFFFFFFFFFFFFFFFFFFFFFFFFFFFFF18
:10788000FFFFFFFFFFFFFFFFFFFFFFFFFFFFFFFF08
:10789000FFFFFFFFFFFFFFFFFFFFFFFFFFFFFFFFF8
